{
  "_format": "hh-sol-artifact-1",
  "contractName": "Controller",
  "sourceName": "contracts/Controller.sol",
  "abi": [
    {
      "inputs": [
        {
          "internalType": "address[]",
          "name": "_users",
          "type": "address[]"
        },
        {
          "internalType": "address",
          "name": "nftContractAddr",
          "type": "address"
        }
      ],
      "stateMutability": "nonpayable",
      "type": "constructor"
    },
    {
      "inputs": [],
      "name": "N_FOLIOS",
      "outputs": [
        {
          "internalType": "uint256",
          "name": "",
          "type": "uint256"
        }
      ],
      "stateMutability": "view",
      "type": "function"
    },
    {
      "inputs": [],
      "name": "getAllOwners",
      "outputs": [
        {
          "internalType": "address[]",
          "name": "",
          "type": "address[]"
        }
      ],
      "stateMutability": "view",
      "type": "function"
    },
    {
      "inputs": [],
      "name": "getAllTokenURIs",
      "outputs": [
        {
          "internalType": "string[]",
          "name": "",
          "type": "string[]"
        }
      ],
      "stateMutability": "view",
      "type": "function"
    },
    {
      "inputs": [
        {
          "internalType": "uint256",
          "name": "tokenId",
          "type": "uint256"
        }
      ],
      "name": "getOwner",
      "outputs": [
        {
          "internalType": "address",
          "name": "",
          "type": "address"
        }
      ],
      "stateMutability": "view",
      "type": "function"
    },
    {
      "inputs": [
        {
          "internalType": "uint256",
          "name": "tokenId",
          "type": "uint256"
        }
      ],
      "name": "isMinted",
      "outputs": [
        {
          "internalType": "bool",
          "name": "",
          "type": "bool"
        }
      ],
      "stateMutability": "view",
      "type": "function"
    },
    {
      "inputs": [
        {
          "internalType": "uint256",
          "name": "tokenId",
          "type": "uint256"
        }
      ],
      "name": "mint",
      "outputs": [],
      "stateMutability": "nonpayable",
      "type": "function"
    },
    {
      "inputs": [],
      "name": "nftContract",
      "outputs": [
        {
          "internalType": "contract Mintable",
          "name": "",
          "type": "address"
        }
      ],
      "stateMutability": "view",
      "type": "function"
    },
    {
      "inputs": [
        {
          "internalType": "address",
          "name": "",
          "type": "address"
        }
      ],
      "name": "userStatus",
      "outputs": [
        {
          "internalType": "uint256",
          "name": "",
          "type": "uint256"
        }
      ],
      "stateMutability": "view",
      "type": "function"
    }
  ],
  "bytecode": "0x610100604052610e1060a090815250600c60c090815250600073ffffffffffffffffffffffffffffffffffffffff1660e09073ffffffffffffffffffffffffffffffffffffffff168152503480156200005757600080fd5b50604051620018aa380380620018aa83398181016040528101906200007d919062000363565b8073ffffffffffffffffffffffffffffffffffffffff1660808173ffffffffffffffffffffffffffffffffffffffff1681525050600082519050600060a05182620000c9919062000402565b42620000d6919062000463565b90505b60008211156200016b578180620000f090620004c0565b92505060a05181620001039190620004ef565b9050806000808685815181106200011f576200011e6200052a565b5b602002602001015173ffffffffffffffffffffffffffffffffffffffff1673ffffffffffffffffffffffffffffffffffffffff16815260200190815260200160002081905550620000d9565b5050505062000559565b6000604051905090565b600080fd5b600080fd5b600080fd5b6000601f19601f8301169050919050565b7f4e487b7100000000000000000000000000000000000000000000000000000000600052604160045260246000fd5b620001d9826200018e565b810181811067ffffffffffffffff82111715620001fb57620001fa6200019f565b5b80604052505050565b60006200021062000175565b90506200021e8282620001ce565b919050565b600067ffffffffffffffff8211156200024157620002406200019f565b5b602082029050602081019050919050565b600080fd5b600073ffffffffffffffffffffffffffffffffffffffff82169050919050565b6000620002848262000257565b9050919050565b620002968162000277565b8114620002a257600080fd5b50565b600081519050620002b6816200028b565b92915050565b6000620002d3620002cd8462000223565b62000204565b90508083825260208201905060208402830185811115620002f957620002f862000252565b5b835b81811015620003265780620003118882620002a5565b845260208401935050602081019050620002fb565b5050509392505050565b600082601f83011262000348576200034762000189565b5b81516200035a848260208601620002bc565b91505092915050565b600080604083850312156200037d576200037c6200017f565b5b600083015167ffffffffffffffff8111156200039e576200039d62000184565b5b620003ac8582860162000330565b9250506020620003bf85828601620002a5565b9150509250929050565b6000819050919050565b7f4e487b7100000000000000000000000000000000000000000000000000000000600052601160045260246000fd5b60006200040f82620003c9565b91506200041c83620003c9565b9250817fffffffffffffffffffffffffffffffffffffffffffffffffffffffffffffffff0483118215151615620004585762000457620003d3565b5b828202905092915050565b60006200047082620003c9565b91506200047d83620003c9565b9250827fffffffffffffffffffffffffffffffffffffffffffffffffffffffffffffffff03821115620004b557620004b4620003d3565b5b828201905092915050565b6000620004cd82620003c9565b91506000821415620004e457620004e3620003d3565b5b600182039050919050565b6000620004fc82620003c9565b91506200050983620003c9565b9250828210156200051f576200051e620003d3565b5b828203905092915050565b7f4e487b7100000000000000000000000000000000000000000000000000000000600052603260045260246000fd5b60805160a05160c05160e0516112db620005cf60003960006109ab0152600081816101b701528181610225015281816103c5015281816103ed0152610460015260005050600081816102d801528181610488015281816105d501528181610840015281816108d301526109de01526112db6000f3fe608060405234801561001057600080fd5b50600436106100885760003560e01c806389fde7af1161005b57806389fde7af14610129578063a0712d6814610147578063c41a360a14610163578063d56d229d1461019357610088565b806316c127461461008d578063225d29a1146100ab57806333c41a90146100db578063714cd1241461010b575b600080fd5b6100956101b1565b6040516100a29190610af0565b60405180910390f35b6100c560048036038101906100c09190610b52565b6102bc565b6040516100d29190610b98565b60405180910390f35b6100f560048036038101906100f09190610bdf565b6102d4565b6040516101029190610c27565b60405180910390f35b6101136103c3565b6040516101209190610b98565b60405180910390f35b6101316103e7565b60405161013e9190610d9d565b60405180910390f35b610161600480360381019061015c9190610bdf565b6105d3565b005b61017d60048036038101906101789190610bdf565b6108cf565b60405161018a9190610dce565b60405180910390f35b61019b6109dc565b6040516101a89190610e48565b60405180910390f35b606060007f000000000000000000000000000000000000000000000000000000000000000067ffffffffffffffff8111156101ef576101ee610e63565b5b60405190808252806020026020018201604052801561021d5781602001602082028036833780820191505090505b50905060005b7f00000000000000000000000000000000000000000000000000000000000000008110156102b457610254816108cf565b82828151811061026757610266610e92565b5b602002602001019073ffffffffffffffffffffffffffffffffffffffff16908173ffffffffffffffffffffffffffffffffffffffff168152505080806102ac90610ef0565b915050610223565b508091505090565b60006020528060005260406000206000915090505481565b60007f000000000000000000000000000000000000000000000000000000000000000073ffffffffffffffffffffffffffffffffffffffff16636352211e836040518263ffffffff1660e01b815260040161032f9190610b98565b60206040518083038186803b15801561034757600080fd5b505afa92505050801561037857506040513d601f19601f820116820180604052508101906103759190610f4e565b60015b6103b8573d80600081146103a8576040519150601f19603f3d011682016040523d82523d6000602084013e6103ad565b606091505b5060009150506103be565b60019150505b919050565b7f000000000000000000000000000000000000000000000000000000000000000081565b606060007f000000000000000000000000000000000000000000000000000000000000000067ffffffffffffffff81111561042557610424610e63565b5b60405190808252806020026020018201604052801561045857816020015b60608152602001906001900390816104435790505b50905060005b7f00000000000000000000000000000000000000000000000000000000000000008110156105cb577f000000000000000000000000000000000000000000000000000000000000000073ffffffffffffffffffffffffffffffffffffffff1663c87b56dd826040518263ffffffff1660e01b81526004016104df9190610b98565b60006040518083038186803b1580156104f757600080fd5b505afa92505050801561052d57506040513d6000823e3d601f19601f8201168201806040525081019061052a9190611072565b60015b610597573d806000811461055d576040519150601f19603f3d011682016040523d82523d6000602084013e610562565b606091505b506040518060200160405280600081525083838151811061058657610585610e92565b5b6020026020010181905250506105b8565b808383815181106105ab576105aa610e92565b5b6020026020010181905250505b80806105c390610ef0565b91505061045e565b508091505090565b7f000000000000000000000000000000000000000000000000000000000000000073ffffffffffffffffffffffffffffffffffffffff16636352211e826040518263ffffffff1660e01b815260040161062c9190610b98565b60206040518083038186803b15801561064457600080fd5b505afa92505050801561067557506040513d601f19601f820116820180604052508101906106729190610f4e565b60015b6106b1573d80600081146106a5576040519150601f19603f3d011682016040523d82523d6000602084013e6106aa565b606091505b50506106ec565b6040517f08c379a00000000000000000000000000000000000000000000000000000000081526004016106e390611118565b60405180910390fd5b60008060003373ffffffffffffffffffffffffffffffffffffffff1673ffffffffffffffffffffffffffffffffffffffff1681526020019081526020016000205490506000811415610773576040517f08c379a000000000000000000000000000000000000000000000000000000000815260040161076a90611184565b60405180910390fd5b60018114156107b7576040517f08c379a00000000000000000000000000000000000000000000000000000000081526004016107ae906111f0565b60405180910390fd5b428111156107fa576040517f08c379a00000000000000000000000000000000000000000000000000000000081526004016107f19061125c565b60405180910390fd5b60016000803373ffffffffffffffffffffffffffffffffffffffff1673ffffffffffffffffffffffffffffffffffffffff168152602001908152602001600020819055507f000000000000000000000000000000000000000000000000000000000000000073ffffffffffffffffffffffffffffffffffffffff1663a144819433846040518363ffffffff1660e01b815260040161089992919061127c565b600060405180830381600087803b1580156108b357600080fd5b505af11580156108c7573d6000803e3d6000fd5b505050505050565b60007f000000000000000000000000000000000000000000000000000000000000000073ffffffffffffffffffffffffffffffffffffffff16636352211e836040518263ffffffff1660e01b815260040161092a9190610b98565b60206040518083038186803b15801561094257600080fd5b505afa92505050801561097357506040513d601f19601f820116820180604052508101906109709190610f4e565b60015b6109d2573d80600081146109a3576040519150601f19603f3d011682016040523d82523d6000602084013e6109a8565b606091505b507f00000000000000000000000000000000000000000000000000000000000000009150506109d7565b809150505b919050565b7f000000000000000000000000000000000000000000000000000000000000000081565b600081519050919050565b600082825260208201905092915050565b6000819050602082019050919050565b600073ffffffffffffffffffffffffffffffffffffffff82169050919050565b6000610a5782610a2c565b9050919050565b610a6781610a4c565b82525050565b6000610a798383610a5e565b60208301905092915050565b6000602082019050919050565b6000610a9d82610a00565b610aa78185610a0b565b9350610ab283610a1c565b8060005b83811015610ae3578151610aca8882610a6d565b9750610ad583610a85565b925050600181019050610ab6565b5085935050505092915050565b60006020820190508181036000830152610b0a8184610a92565b905092915050565b6000604051905090565b600080fd5b600080fd5b610b2f81610a4c565b8114610b3a57600080fd5b50565b600081359050610b4c81610b26565b92915050565b600060208284031215610b6857610b67610b1c565b5b6000610b7684828501610b3d565b91505092915050565b6000819050919050565b610b9281610b7f565b82525050565b6000602082019050610bad6000830184610b89565b92915050565b610bbc81610b7f565b8114610bc757600080fd5b50565b600081359050610bd981610bb3565b92915050565b600060208284031215610bf557610bf4610b1c565b5b6000610c0384828501610bca565b91505092915050565b60008115159050919050565b610c2181610c0c565b82525050565b6000602082019050610c3c6000830184610c18565b92915050565b600081519050919050565b600082825260208201905092915050565b6000819050602082019050919050565b600081519050919050565b600082825260208201905092915050565b60005b83811015610ca8578082015181840152602081019050610c8d565b83811115610cb7576000848401525b50505050565b6000601f19601f8301169050919050565b6000610cd982610c6e565b610ce38185610c79565b9350610cf3818560208601610c8a565b610cfc81610cbd565b840191505092915050565b6000610d138383610cce565b905092915050565b6000602082019050919050565b6000610d3382610c42565b610d3d8185610c4d565b935083602082028501610d4f85610c5e565b8060005b85811015610d8b5784840389528151610d6c8582610d07565b9450610d7783610d1b565b925060208a01995050600181019050610d53565b50829750879550505050505092915050565b60006020820190508181036000830152610db78184610d28565b905092915050565b610dc881610a4c565b82525050565b6000602082019050610de36000830184610dbf565b92915050565b6000819050919050565b6000610e0e610e09610e0484610a2c565b610de9565b610a2c565b9050919050565b6000610e2082610df3565b9050919050565b6000610e3282610e15565b9050919050565b610e4281610e27565b82525050565b6000602082019050610e5d6000830184610e39565b92915050565b7f4e487b7100000000000000000000000000000000000000000000000000000000600052604160045260246000fd5b7f4e487b7100000000000000000000000000000000000000000000000000000000600052603260045260246000fd5b7f4e487b7100000000000000000000000000000000000000000000000000000000600052601160045260246000fd5b6000610efb82610b7f565b91507fffffffffffffffffffffffffffffffffffffffffffffffffffffffffffffffff821415610f2e57610f2d610ec1565b5b600182019050919050565b600081519050610f4881610b26565b92915050565b600060208284031215610f6457610f63610b1c565b5b6000610f7284828501610f39565b91505092915050565b600080fd5b600080fd5b610f8e82610cbd565b810181811067ffffffffffffffff82111715610fad57610fac610e63565b5b80604052505050565b6000610fc0610b12565b9050610fcc8282610f85565b919050565b600067ffffffffffffffff821115610fec57610feb610e63565b5b610ff582610cbd565b9050602081019050919050565b600061101561101084610fd1565b610fb6565b90508281526020810184848401111561103157611030610f80565b5b61103c848285610c8a565b509392505050565b600082601f83011261105957611058610f7b565b5b8151611069848260208601611002565b91505092915050565b60006020828403121561108857611087610b1c565b5b600082015167ffffffffffffffff8111156110a6576110a5610b21565b5b6110b284828501611044565b91505092915050565b600082825260208201905092915050565b7f616c7265616479206d696e746564000000000000000000000000000000000000600082015250565b6000611102600e836110bb565b915061110d826110cc565b602082019050919050565b60006020820190508181036000830152611131816110f5565b9050919050565b7f6e6f742077686974656c69737465640000000000000000000000000000000000600082015250565b600061116e600f836110bb565b915061117982611138565b602082019050919050565b6000602082019050818103600083015261119d81611161565b9050919050565b7f63616e206f6e6c79206d696e7420310000000000000000000000000000000000600082015250565b60006111da600f836110bb565b91506111e5826111a4565b602082019050919050565b60006020820190508181036000830152611209816111cd565b9050919050565b7f6e6f742079657420756e6c6f636b656400000000000000000000000000000000600082015250565b60006112466010836110bb565b915061125182611210565b602082019050919050565b6000602082019050818103600083015261127581611239565b9050919050565b60006040820190506112916000830185610dbf565b61129e6020830184610b89565b939250505056fea2646970667358221220ef7fb3abd856f45658bf8c45317318d27766c4ca25c64b09f48b9259e9fcc92864736f6c63430008090033",
  "linkReferences": {},
  "deployedLinkReferences": {}
}