{
  "_format": "hh-sol-artifact-1",
  "contractName": "Controller",
  "sourceName": "contracts/Controller.sol",
  "abi": [
    {
      "inputs": [
        {
          "internalType": "address[]",
          "name": "_users",
          "type": "address[]"
        },
        {
          "internalType": "address",
          "name": "nftContractAddr",
          "type": "address"
        },
        {
          "internalType": "uint256",
          "name": "_intervalBtwUsers",
          "type": "uint256"
        }
      ],
      "stateMutability": "nonpayable",
      "type": "constructor"
    },
    {
      "inputs": [],
      "name": "getAllOwners",
      "outputs": [
        {
          "internalType": "address[]",
          "name": "",
          "type": "address[]"
        }
      ],
      "stateMutability": "view",
      "type": "function"
    },
    {
      "inputs": [],
      "name": "getAllTokenURIs",
      "outputs": [
        {
          "internalType": "string[]",
          "name": "",
          "type": "string[]"
        }
      ],
      "stateMutability": "view",
      "type": "function"
    },
    {
      "inputs": [
        {
          "internalType": "uint256",
          "name": "tokenId",
          "type": "uint256"
        }
      ],
      "name": "getOwner",
      "outputs": [
        {
          "internalType": "address",
          "name": "",
          "type": "address"
        }
      ],
      "stateMutability": "view",
      "type": "function"
    },
    {
      "inputs": [],
      "name": "intervalBtwUsers",
      "outputs": [
        {
          "internalType": "uint256",
          "name": "",
          "type": "uint256"
        }
      ],
      "stateMutability": "view",
      "type": "function"
    },
    {
      "inputs": [
        {
          "internalType": "uint256",
          "name": "tokenId",
          "type": "uint256"
        }
      ],
      "name": "isMinted",
      "outputs": [
        {
          "internalType": "bool",
          "name": "",
          "type": "bool"
        }
      ],
      "stateMutability": "view",
      "type": "function"
    },
    {
      "inputs": [
        {
          "internalType": "uint256",
          "name": "tokenId",
          "type": "uint256"
        }
      ],
      "name": "mint",
      "outputs": [],
      "stateMutability": "nonpayable",
      "type": "function"
    },
    {
      "inputs": [],
      "name": "nFolios",
      "outputs": [
        {
          "internalType": "uint256",
          "name": "",
          "type": "uint256"
        }
      ],
      "stateMutability": "view",
      "type": "function"
    },
    {
      "inputs": [],
      "name": "nftContract",
      "outputs": [
        {
          "internalType": "contract MockCreatorNFT",
          "name": "",
          "type": "address"
        }
      ],
      "stateMutability": "view",
      "type": "function"
    },
    {
      "inputs": [
        {
          "internalType": "address",
          "name": "",
          "type": "address"
        }
      ],
      "name": "userStatus",
      "outputs": [
        {
          "internalType": "uint256",
          "name": "",
          "type": "uint256"
        }
      ],
      "stateMutability": "view",
      "type": "function"
    }
  ],
  "bytecode": "0x60806040523480156200001157600080fd5b50604051620018b1380380620018b1833981810160405281019062000037919062000415565b816000806101000a81548173ffffffffffffffffffffffffffffffffffffffff021916908373ffffffffffffffffffffffffffffffffffffffff1602179055508060018190555060008054906101000a900473ffffffffffffffffffffffffffffffffffffffff1673ffffffffffffffffffffffffffffffffffffffff16638c0fd0016040518163ffffffff1660e01b815260040160206040518083038186803b158015620000e557600080fd5b505afa158015620000fa573d6000803e3d6000fd5b505050506040513d601f19601f8201168201806040525081019062000120919062000490565b6002819055506000835190506000600154826200013e9190620004f1565b426200014b919062000552565b90505b6000821115620001e15781806200016590620005af565b92505060015481620001789190620005de565b9050806003600087858151811062000195576200019462000619565b5b602002602001015173ffffffffffffffffffffffffffffffffffffffff1673ffffffffffffffffffffffffffffffffffffffff168152602001908152602001600020819055506200014e565b505050505062000648565b6000604051905090565b600080fd5b600080fd5b600080fd5b6000601f19601f8301169050919050565b7f4e487b7100000000000000000000000000000000000000000000000000000000600052604160045260246000fd5b620002508262000205565b810181811067ffffffffffffffff8211171562000272576200027162000216565b5b80604052505050565b600062000287620001ec565b905062000295828262000245565b919050565b600067ffffffffffffffff821115620002b857620002b762000216565b5b602082029050602081019050919050565b600080fd5b600073ffffffffffffffffffffffffffffffffffffffff82169050919050565b6000620002fb82620002ce565b9050919050565b6200030d81620002ee565b81146200031957600080fd5b50565b6000815190506200032d8162000302565b92915050565b60006200034a62000344846200029a565b6200027b565b9050808382526020820190506020840283018581111562000370576200036f620002c9565b5b835b818110156200039d57806200038888826200031c565b84526020840193505060208101905062000372565b5050509392505050565b600082601f830112620003bf57620003be62000200565b5b8151620003d184826020860162000333565b91505092915050565b6000819050919050565b620003ef81620003da565b8114620003fb57600080fd5b50565b6000815190506200040f81620003e4565b92915050565b600080600060608486031215620004315762000430620001f6565b5b600084015167ffffffffffffffff811115620004525762000451620001fb565b5b6200046086828701620003a7565b935050602062000473868287016200031c565b92505060406200048686828701620003fe565b9150509250925092565b600060208284031215620004a957620004a8620001f6565b5b6000620004b984828501620003fe565b91505092915050565b7f4e487b7100000000000000000000000000000000000000000000000000000000600052601160045260246000fd5b6000620004fe82620003da565b91506200050b83620003da565b9250817fffffffffffffffffffffffffffffffffffffffffffffffffffffffffffffffff0483118215151615620005475762000546620004c2565b5b828202905092915050565b60006200055f82620003da565b91506200056c83620003da565b9250827fffffffffffffffffffffffffffffffffffffffffffffffffffffffffffffffff03821115620005a457620005a3620004c2565b5b828201905092915050565b6000620005bc82620003da565b91506000821415620005d357620005d2620004c2565b5b600182039050919050565b6000620005eb82620003da565b9150620005f883620003da565b9250828210156200060e576200060d620004c2565b5b828203905092915050565b7f4e487b7100000000000000000000000000000000000000000000000000000000600052603260045260246000fd5b61125980620006586000396000f3fe608060405234801561001057600080fd5b50600436106100935760003560e01c806389fde7af1161006657806389fde7af146101345780638c0fd00114610152578063a0712d6814610170578063c41a360a1461018c578063d56d229d146101bc57610093565b806316c1274614610098578063225d29a1146100b6578063300a63bc146100e657806333c41a9014610104575b600080fd5b6100a06101da565b6040516100ad9190610a6e565b60405180910390f35b6100d060048036038101906100cb9190610ad0565b6102a9565b6040516100dd9190610b16565b60405180910390f35b6100ee6102c1565b6040516100fb9190610b16565b60405180910390f35b61011e60048036038101906101199190610b5d565b6102c7565b60405161012b9190610ba5565b60405180910390f35b61013c6103b7565b6040516101499190610d1b565b60405180910390f35b61015a610567565b6040516101679190610b16565b60405180910390f35b61018a60048036038101906101859190610b5d565b61056d565b005b6101a660048036038101906101a19190610b5d565b61086b565b6040516101b39190610d4c565b60405180910390f35b6101c461095a565b6040516101d19190610dc6565b60405180910390f35b6060600060025467ffffffffffffffff8111156101fa576101f9610de1565b5b6040519080825280602002602001820160405280156102285781602001602082028036833780820191505090505b50905060005b6002548110156102a1576102418161086b565b82828151811061025457610253610e10565b5b602002602001019073ffffffffffffffffffffffffffffffffffffffff16908173ffffffffffffffffffffffffffffffffffffffff1681525050808061029990610e6e565b91505061022e565b508091505090565b60036020528060005260406000206000915090505481565b60015481565b60008060009054906101000a900473ffffffffffffffffffffffffffffffffffffffff1673ffffffffffffffffffffffffffffffffffffffff16636352211e836040518263ffffffff1660e01b81526004016103239190610b16565b60206040518083038186803b15801561033b57600080fd5b505afa92505050801561036c57506040513d601f19601f820116820180604052508101906103699190610ecc565b60015b6103ac573d806000811461039c576040519150601f19603f3d011682016040523d82523d6000602084013e6103a1565b606091505b5060009150506103b2565b60019150505b919050565b6060600060025467ffffffffffffffff8111156103d7576103d6610de1565b5b60405190808252806020026020018201604052801561040a57816020015b60608152602001906001900390816103f55790505b50905060005b60025481101561055f5760008054906101000a900473ffffffffffffffffffffffffffffffffffffffff1673ffffffffffffffffffffffffffffffffffffffff1663c87b56dd826040518263ffffffff1660e01b81526004016104739190610b16565b60006040518083038186803b15801561048b57600080fd5b505afa9250505080156104c157506040513d6000823e3d601f19601f820116820180604052508101906104be9190610ff0565b60015b61052b573d80600081146104f1576040519150601f19603f3d011682016040523d82523d6000602084013e6104f6565b606091505b506040518060200160405280600081525083838151811061051a57610519610e10565b5b60200260200101819052505061054c565b8083838151811061053f5761053e610e10565b5b6020026020010181905250505b808061055790610e6e565b915050610410565b508091505090565b60025481565b60008054906101000a900473ffffffffffffffffffffffffffffffffffffffff1673ffffffffffffffffffffffffffffffffffffffff16636352211e826040518263ffffffff1660e01b81526004016105c69190610b16565b60206040518083038186803b1580156105de57600080fd5b505afa92505050801561060f57506040513d601f19601f8201168201806040525081019061060c9190610ecc565b60015b61064b573d806000811461063f576040519150601f19603f3d011682016040523d82523d6000602084013e610644565b606091505b5050610686565b6040517f08c379a000000000000000000000000000000000000000000000000000000000815260040161067d90611096565b60405180910390fd5b6000600360003373ffffffffffffffffffffffffffffffffffffffff1673ffffffffffffffffffffffffffffffffffffffff168152602001908152602001600020549050600081141561070e576040517f08c379a000000000000000000000000000000000000000000000000000000000815260040161070590611102565b60405180910390fd5b6001811415610752576040517f08c379a00000000000000000000000000000000000000000000000000000000081526004016107499061116e565b60405180910390fd5b42811115610795576040517f08c379a000000000000000000000000000000000000000000000000000000000815260040161078c906111da565b60405180910390fd5b6001600360003373ffffffffffffffffffffffffffffffffffffffff1673ffffffffffffffffffffffffffffffffffffffff1681526020019081526020016000208190555060008054906101000a900473ffffffffffffffffffffffffffffffffffffffff1673ffffffffffffffffffffffffffffffffffffffff1663a144819433846040518363ffffffff1660e01b81526004016108359291906111fa565b600060405180830381600087803b15801561084f57600080fd5b505af1158015610863573d6000803e3d6000fd5b505050505050565b60008060009054906101000a900473ffffffffffffffffffffffffffffffffffffffff1673ffffffffffffffffffffffffffffffffffffffff16636352211e836040518263ffffffff1660e01b81526004016108c79190610b16565b60206040518083038186803b1580156108df57600080fd5b505afa92505050801561091057506040513d601f19601f8201168201806040525081019061090d9190610ecc565b60015b610950573d8060008114610940576040519150601f19603f3d011682016040523d82523d6000602084013e610945565b606091505b506000915050610955565b809150505b919050565b60008054906101000a900473ffffffffffffffffffffffffffffffffffffffff1681565b600081519050919050565b600082825260208201905092915050565b6000819050602082019050919050565b600073ffffffffffffffffffffffffffffffffffffffff82169050919050565b60006109d5826109aa565b9050919050565b6109e5816109ca565b82525050565b60006109f783836109dc565b60208301905092915050565b6000602082019050919050565b6000610a1b8261097e565b610a258185610989565b9350610a308361099a565b8060005b83811015610a61578151610a4888826109eb565b9750610a5383610a03565b925050600181019050610a34565b5085935050505092915050565b60006020820190508181036000830152610a888184610a10565b905092915050565b6000604051905090565b600080fd5b600080fd5b610aad816109ca565b8114610ab857600080fd5b50565b600081359050610aca81610aa4565b92915050565b600060208284031215610ae657610ae5610a9a565b5b6000610af484828501610abb565b91505092915050565b6000819050919050565b610b1081610afd565b82525050565b6000602082019050610b2b6000830184610b07565b92915050565b610b3a81610afd565b8114610b4557600080fd5b50565b600081359050610b5781610b31565b92915050565b600060208284031215610b7357610b72610a9a565b5b6000610b8184828501610b48565b91505092915050565b60008115159050919050565b610b9f81610b8a565b82525050565b6000602082019050610bba6000830184610b96565b92915050565b600081519050919050565b600082825260208201905092915050565b6000819050602082019050919050565b600081519050919050565b600082825260208201905092915050565b60005b83811015610c26578082015181840152602081019050610c0b565b83811115610c35576000848401525b50505050565b6000601f19601f8301169050919050565b6000610c5782610bec565b610c618185610bf7565b9350610c71818560208601610c08565b610c7a81610c3b565b840191505092915050565b6000610c918383610c4c565b905092915050565b6000602082019050919050565b6000610cb182610bc0565b610cbb8185610bcb565b935083602082028501610ccd85610bdc565b8060005b85811015610d095784840389528151610cea8582610c85565b9450610cf583610c99565b925060208a01995050600181019050610cd1565b50829750879550505050505092915050565b60006020820190508181036000830152610d358184610ca6565b905092915050565b610d46816109ca565b82525050565b6000602082019050610d616000830184610d3d565b92915050565b6000819050919050565b6000610d8c610d87610d82846109aa565b610d67565b6109aa565b9050919050565b6000610d9e82610d71565b9050919050565b6000610db082610d93565b9050919050565b610dc081610da5565b82525050565b6000602082019050610ddb6000830184610db7565b92915050565b7f4e487b7100000000000000000000000000000000000000000000000000000000600052604160045260246000fd5b7f4e487b7100000000000000000000000000000000000000000000000000000000600052603260045260246000fd5b7f4e487b7100000000000000000000000000000000000000000000000000000000600052601160045260246000fd5b6000610e7982610afd565b91507fffffffffffffffffffffffffffffffffffffffffffffffffffffffffffffffff821415610eac57610eab610e3f565b5b600182019050919050565b600081519050610ec681610aa4565b92915050565b600060208284031215610ee257610ee1610a9a565b5b6000610ef084828501610eb7565b91505092915050565b600080fd5b600080fd5b610f0c82610c3b565b810181811067ffffffffffffffff82111715610f2b57610f2a610de1565b5b80604052505050565b6000610f3e610a90565b9050610f4a8282610f03565b919050565b600067ffffffffffffffff821115610f6a57610f69610de1565b5b610f7382610c3b565b9050602081019050919050565b6000610f93610f8e84610f4f565b610f34565b905082815260208101848484011115610faf57610fae610efe565b5b610fba848285610c08565b509392505050565b600082601f830112610fd757610fd6610ef9565b5b8151610fe7848260208601610f80565b91505092915050565b60006020828403121561100657611005610a9a565b5b600082015167ffffffffffffffff81111561102457611023610a9f565b5b61103084828501610fc2565b91505092915050565b600082825260208201905092915050565b7f616c7265616479206d696e746564000000000000000000000000000000000000600082015250565b6000611080600e83611039565b915061108b8261104a565b602082019050919050565b600060208201905081810360008301526110af81611073565b9050919050565b7f6e6f742077686974656c69737465640000000000000000000000000000000000600082015250565b60006110ec600f83611039565b91506110f7826110b6565b602082019050919050565b6000602082019050818103600083015261111b816110df565b9050919050565b7f63616e206f6e6c79206d696e7420310000000000000000000000000000000000600082015250565b6000611158600f83611039565b915061116382611122565b602082019050919050565b600060208201905081810360008301526111878161114b565b9050919050565b7f6e6f742079657420756e6c6f636b656400000000000000000000000000000000600082015250565b60006111c4601083611039565b91506111cf8261118e565b602082019050919050565b600060208201905081810360008301526111f3816111b7565b9050919050565b600060408201905061120f6000830185610d3d565b61121c6020830184610b07565b939250505056fea26469706673582212206280af32b70666a061ffc7a54a746a1ee8a3001c0e53fca84d5869fa376246ab64736f6c63430008090033",
  "linkReferences": {},
  "deployedLinkReferences": {}
}