{
  "_format": "hh-sol-artifact-1",
  "contractName": "WCController",
  "sourceName": "contracts/WCController.sol",
  "abi": [
    {
      "inputs": [
        {
          "internalType": "address[]",
          "name": "_users",
          "type": "address[]"
        },
        {
          "internalType": "address",
          "name": "nftContractAddr",
          "type": "address"
        },
        {
          "internalType": "uint256",
          "name": "_intervalBtwUsers",
          "type": "uint256"
        }
      ],
      "stateMutability": "nonpayable",
      "type": "constructor"
    },
    {
      "inputs": [],
      "name": "getAllOwners",
      "outputs": [
        {
          "internalType": "address[]",
          "name": "",
          "type": "address[]"
        }
      ],
      "stateMutability": "view",
      "type": "function"
    },
    {
      "inputs": [],
      "name": "getAllTokenURIs",
      "outputs": [
        {
          "internalType": "string[]",
          "name": "",
          "type": "string[]"
        }
      ],
      "stateMutability": "view",
      "type": "function"
    },
    {
      "inputs": [
        {
          "internalType": "uint256",
          "name": "folioNum",
          "type": "uint256"
        }
      ],
      "name": "getOwner",
      "outputs": [
        {
          "internalType": "address",
          "name": "",
          "type": "address"
        }
      ],
      "stateMutability": "view",
      "type": "function"
    },
    {
      "inputs": [
        {
          "internalType": "address",
          "name": "userAddr",
          "type": "address"
        }
      ],
      "name": "getUnlockTimestamp",
      "outputs": [
        {
          "internalType": "uint256",
          "name": "",
          "type": "uint256"
        }
      ],
      "stateMutability": "view",
      "type": "function"
    },
    {
      "inputs": [],
      "name": "initTimestamp",
      "outputs": [
        {
          "internalType": "uint256",
          "name": "",
          "type": "uint256"
        }
      ],
      "stateMutability": "view",
      "type": "function"
    },
    {
      "inputs": [],
      "name": "intervalBtwUsers",
      "outputs": [
        {
          "internalType": "uint256",
          "name": "",
          "type": "uint256"
        }
      ],
      "stateMutability": "view",
      "type": "function"
    },
    {
      "inputs": [
        {
          "internalType": "uint256",
          "name": "folioNum",
          "type": "uint256"
        }
      ],
      "name": "mint",
      "outputs": [],
      "stateMutability": "nonpayable",
      "type": "function"
    },
    {
      "inputs": [],
      "name": "nFolios",
      "outputs": [
        {
          "internalType": "uint256",
          "name": "",
          "type": "uint256"
        }
      ],
      "stateMutability": "view",
      "type": "function"
    },
    {
      "inputs": [],
      "name": "nftContract",
      "outputs": [
        {
          "internalType": "contract MockCreatorNFT",
          "name": "",
          "type": "address"
        }
      ],
      "stateMutability": "view",
      "type": "function"
    },
    {
      "inputs": [
        {
          "internalType": "uint256",
          "name": "folioNum",
          "type": "uint256"
        }
      ],
      "name": "tokenURIfromFolioNum",
      "outputs": [
        {
          "internalType": "string",
          "name": "",
          "type": "string"
        }
      ],
      "stateMutability": "view",
      "type": "function"
    },
    {
      "inputs": [
        {
          "internalType": "address",
          "name": "",
          "type": "address"
        },
        {
          "internalType": "uint256",
          "name": "",
          "type": "uint256"
        }
      ],
      "name": "userStatus",
      "outputs": [
        {
          "internalType": "uint256",
          "name": "",
          "type": "uint256"
        }
      ],
      "stateMutability": "view",
      "type": "function"
    }
  ],
  "bytecode": "0x60806040523480156200001157600080fd5b506040516200114b3803806200114b833981016040819052620000349162000384565b600080546001600160a01b0319166001600160a01b03841690811790915560408051638c0fd00160e01b81529051638c0fd00191600480820192602092909190829003018186803b1580156200008957600080fd5b505afa1580156200009e573d6000803e3d6000fd5b505050506040513d601f19601f82011682018060405250810190620000c491906200045a565b6002556000805460408051636c0360eb60e01b815290516001600160a01b0390921692636c0360eb92600480840193829003018186803b1580156200010857600080fd5b505afa1580156200011d573d6000803e3d6000fd5b505050506040513d6000823e601f3d908101601f1916820160405262000147919081019062000474565b80516200015d9160049160209091019062000278565b5060008054604080516316779d4960e31b815290516001600160a01b039092169263b3bcea4892600480840193829003018186803b1580156200019f57600080fd5b505afa158015620001b4573d6000803e3d6000fd5b505050506040513d6000823e601f3d908101601f19168201604052620001de919081019062000474565b8051620001f49160059160209091019062000278565b5060018190554260035582515b80156200026e5780620002148162000533565b9150506006600085838151811062000230576200023062000559565b6020908102919091018101516001600160a01b0316825281810192909252604001600090812080546001810182559082529190200181905562000201565b50505050620005ac565b82805462000286906200056f565b90600052602060002090601f016020900481019282620002aa5760008555620002f5565b82601f10620002c557805160ff1916838001178555620002f5565b82800160010185558215620002f5579182015b82811115620002f5578251825591602001919060010190620002d8565b506200030392915062000307565b5090565b5b8082111562000303576000815560010162000308565b634e487b7160e01b600052604160045260246000fd5b604051601f8201601f191681016001600160401b03811182821017156200035f576200035f6200031e565b604052919050565b80516001600160a01b03811681146200037f57600080fd5b919050565b6000806000606084860312156200039a57600080fd5b83516001600160401b0380821115620003b257600080fd5b818601915086601f830112620003c757600080fd5b8151602082821115620003de57620003de6200031e565b8160051b9250620003f181840162000334565b828152928401810192818101908a8511156200040c57600080fd5b948201945b848610156200043557620004258662000367565b8252948201949082019062000411565b975062000446905088820162000367565b955050505050604084015190509250925092565b6000602082840312156200046d57600080fd5b5051919050565b600060208083850312156200048857600080fd5b82516001600160401b0380821115620004a057600080fd5b818501915085601f830112620004b557600080fd5b815181811115620004ca57620004ca6200031e565b620004de601f8201601f1916850162000334565b91508082528684828501011115620004f557600080fd5b60005b8181101562000515578381018501518382018601528401620004f8565b81811115620005275760008583850101525b50909695505050505050565b6000816200055157634e487b7160e01b600052601160045260246000fd5b506000190190565b634e487b7160e01b600052603260045260246000fd5b600181811c908216806200058457607f821691505b60208210811415620005a657634e487b7160e01b600052602260045260246000fd5b50919050565b610b8f80620005bc6000396000f3fe608060405234801561001057600080fd5b50600436106100a95760003560e01c806389fde7af1161007157806389fde7af146101125780638b294b55146101275780638c0fd00114610147578063a0712d6814610150578063c41a360a14610165578063d56d229d1461019057600080fd5b806316c12746146100ae57806326afa48b146100cc5780632f0b4fa9146100ed578063300a63bc146101005780637358c57a14610109575b600080fd5b6100b66101a3565b6040516100c391906107e6565b60405180910390f35b6100df6100da36600461084b565b61024b565b6040519081526020016100c3565b6100df6100fb366004610868565b6102d9565b6100df60015481565b6100df60035481565b61011a61030a565b6040516100c391906108f0565b61013a610135366004610952565b6103aa565b6040516100c3919061096b565b6100df60025481565b61016361015e366004610952565b6103e1565b005b610178610173366004610952565b6105d0565b6040516001600160a01b0390911681526020016100c3565b600054610178906001600160a01b031681565b6060600060025467ffffffffffffffff8111156101c2576101c261097e565b6040519080825280602002602001820160405280156101eb578160200160208202803683370190505b50905060005b600254811015610245576102096101738260016109aa565b82828151811061021b5761021b6109c2565b6001600160a01b03909216602092830291909101909101528061023d816109d8565b9150506101f1565b50919050565b6001600160a01b03811660009081526006602052604081205480610276575064e8d4a5100092915050565b6001600160a01b03831660009081526006602052604081206102996001846109f3565b815481106102a9576102a96109c2565b90600052602060002001549050600154816102c49190610a0a565b6003546102d191906109aa565b949350505050565b600660205281600052604060002081815481106102f557600080fd5b90600052602060002001600091509150505481565b6060600060025467ffffffffffffffff8111156103295761032961097e565b60405190808252806020026020018201604052801561035c57816020015b60608152602001906001900390816103475790505b50905060005b6002548110156102455761037a6101358260016109aa565b82828151811061038c5761038c6109c2565b602002602001018190525080806103a2906109d8565b915050610362565b606060046103b783610670565b60056040516020016103cb93929190610ac3565b6040516020818303038152906040529050919050565b600081815260076020526040902054156104335760405162461bcd60e51b815260206004820152600e60248201526d185b1c9958591e481b5a5b9d195960921b60448201526064015b60405180910390fd5b3360009081526006602052604090208054806104805760405162461bcd60e51b815260206004820152600c60248201526b6e6f20616c6c6f77616e636560a01b604482015260640161042a565b60008261048e6001846109f3565b8154811061049e5761049e6109c2565b906000526020600020015490506000600154826104bb9190610a0a565b6003546104c891906109aa565b90504281111561050d5760405162461bcd60e51b815260206004820152601060248201526f1b9bdd081e595d081d5b9b1bd8dad95960821b604482015260640161042a565b8380548061051d5761051d610af6565b60019003818190600052602060002001600090559055600082600161054291906109aa565b9050600061054f876103aa565b600054604051633349e71f60e21b81529192506001600160a01b03169063cd279c7c9061058490339086908690600401610b0c565b600060405180830381600087803b15801561059e57600080fd5b505af11580156105b2573d6000803e3d6000fd5b50505060009788525050600760205260409095209490945550505050565b600081815260076020526040812054806105ed5750600092915050565b6000546040516331a9108f60e11b8152600481018390526001600160a01b0390911690636352211e9060240160206040518083038186803b15801561063157600080fd5b505afa158015610645573d6000803e3d6000fd5b505050506040513d601f19601f820116820180604052508101906106699190610b3c565b9392505050565b6060600061067d8361070d565b600101905060008167ffffffffffffffff81111561069d5761069d61097e565b6040519080825280601f01601f1916602001820160405280156106c7576020820181803683370190505b5090508181016020015b600019016f181899199a1a9b1b9c1cb0b131b232b360811b600a86061a8153600a850494508461070057610705565b6106d1565b509392505050565b60008072184f03e93ff9f4daa797ed6e38ed64bf6a1f0160401b831061074c5772184f03e93ff9f4daa797ed6e38ed64bf6a1f0160401b830492506040015b6d04ee2d6d415b85acef81000000008310610778576d04ee2d6d415b85acef8100000000830492506020015b662386f26fc10000831061079657662386f26fc10000830492506010015b6305f5e10083106107ae576305f5e100830492506008015b61271083106107c257612710830492506004015b606483106107d4576064830492506002015b600a83106107e0576001015b92915050565b6020808252825182820181905260009190848201906040850190845b818110156108275783516001600160a01b031683529284019291840191600101610802565b50909695505050505050565b6001600160a01b038116811461084857600080fd5b50565b60006020828403121561085d57600080fd5b813561066981610833565b6000806040838503121561087b57600080fd5b823561088681610833565b946020939093013593505050565b60005b838110156108af578181015183820152602001610897565b838111156108be576000848401525b50505050565b600081518084526108dc816020860160208601610894565b601f01601f19169290920160200192915050565b6000602080830181845280855180835260408601915060408160051b870101925083870160005b8281101561094557603f198886030184526109338583516108c4565b94509285019290850190600101610917565b5092979650505050505050565b60006020828403121561096457600080fd5b5035919050565b60208152600061066960208301846108c4565b634e487b7160e01b600052604160045260246000fd5b634e487b7160e01b600052601160045260246000fd5b600082198211156109bd576109bd610994565b500190565b634e487b7160e01b600052603260045260246000fd5b60006000198214156109ec576109ec610994565b5060010190565b600082821015610a0557610a05610994565b500390565b6000816000190483118215151615610a2457610a24610994565b500290565b8054600090600181811c9080831680610a4357607f831692505b6020808410821415610a6557634e487b7160e01b600052602260045260246000fd5b818015610a795760018114610a8a57610ab7565b60ff19861689528489019650610ab7565b60008881526020902060005b86811015610aaf5781548b820152908501908301610a96565b505084890196505b50505050505092915050565b6000610acf8286610a29565b8451610adf818360208901610894565b610aeb81830186610a29565b979650505050505050565b634e487b7160e01b600052603160045260246000fd5b60018060a01b0384168152826020820152606060408201526000610b3360608301846108c4565b95945050505050565b600060208284031215610b4e57600080fd5b81516106698161083356fea2646970667358221220ab47ec6142bd6db4a37e7c51efc918a33201a637464c72f94e2da0108e9354ae64736f6c63430008090033",
  "linkReferences": {},
  "deployedLinkReferences": {}
}