{
  "_format": "hh-sol-artifact-1",
  "contractName": "WCController",
  "sourceName": "contracts/WCController.sol",
  "abi": [
    {
      "inputs": [
        {
          "internalType": "address[]",
          "name": "_users",
          "type": "address[]"
        },
        {
          "internalType": "address",
          "name": "nftContractAddr",
          "type": "address"
        },
        {
          "internalType": "uint256",
          "name": "_intervalBtwUsers",
          "type": "uint256"
        }
      ],
      "stateMutability": "nonpayable",
      "type": "constructor"
    },
    {
      "inputs": [],
      "name": "getAllOwners",
      "outputs": [
        {
          "internalType": "address[]",
          "name": "",
          "type": "address[]"
        }
      ],
      "stateMutability": "view",
      "type": "function"
    },
    {
      "inputs": [],
      "name": "getAllTokenURIs",
      "outputs": [
        {
          "internalType": "string[]",
          "name": "",
          "type": "string[]"
        }
      ],
      "stateMutability": "view",
      "type": "function"
    },
    {
      "inputs": [
        {
          "internalType": "uint256",
          "name": "folioNum",
          "type": "uint256"
        }
      ],
      "name": "getOwner",
      "outputs": [
        {
          "internalType": "address",
          "name": "",
          "type": "address"
        }
      ],
      "stateMutability": "view",
      "type": "function"
    },
    {
      "inputs": [
        {
          "internalType": "address",
          "name": "userAddr",
          "type": "address"
        }
      ],
      "name": "getUnlockTimestamp",
      "outputs": [
        {
          "internalType": "uint256",
          "name": "",
          "type": "uint256"
        }
      ],
      "stateMutability": "view",
      "type": "function"
    },
    {
      "inputs": [],
      "name": "initTimestamp",
      "outputs": [
        {
          "internalType": "uint256",
          "name": "",
          "type": "uint256"
        }
      ],
      "stateMutability": "view",
      "type": "function"
    },
    {
      "inputs": [],
      "name": "intervalBtwUsers",
      "outputs": [
        {
          "internalType": "uint256",
          "name": "",
          "type": "uint256"
        }
      ],
      "stateMutability": "view",
      "type": "function"
    },
    {
      "inputs": [
        {
          "internalType": "uint256",
          "name": "folioNum",
          "type": "uint256"
        }
      ],
      "name": "mint",
      "outputs": [],
      "stateMutability": "nonpayable",
      "type": "function"
    },
    {
      "inputs": [],
      "name": "nFolios",
      "outputs": [
        {
          "internalType": "uint256",
          "name": "",
          "type": "uint256"
        }
      ],
      "stateMutability": "view",
      "type": "function"
    },
    {
      "inputs": [],
      "name": "nftContract",
      "outputs": [
        {
          "internalType": "contract WCCompatibleNFT",
          "name": "",
          "type": "address"
        }
      ],
      "stateMutability": "view",
      "type": "function"
    },
    {
      "inputs": [
        {
          "internalType": "address",
          "name": "",
          "type": "address"
        },
        {
          "internalType": "uint256",
          "name": "",
          "type": "uint256"
        }
      ],
      "name": "positionsByUser",
      "outputs": [
        {
          "internalType": "uint256",
          "name": "",
          "type": "uint256"
        }
      ],
      "stateMutability": "view",
      "type": "function"
    }
  ],
  "bytecode": "0x60806040523480156200001157600080fd5b5060405162000d9838038062000d98833981016040819052620000349162000177565b600080546001600160a01b0319166001600160a01b03841690811790915560408051638c0fd00160e01b81529051638c0fd00191600480820192602092909190829003018186803b1580156200008957600080fd5b505afa1580156200009e573d6000803e3d6000fd5b505050506040513d601f19601f82011682018060405250810190620000c4919062000266565b60025560018190554260035582515b80156200013a5780806001900391505060046000858381518110620000fc57620000fc62000280565b6020908102919091018101516001600160a01b03168252818101929092526040016000908120805460018101825590825291902001819055620000d3565b5050505062000296565b634e487b7160e01b600052604160045260246000fd5b80516001600160a01b03811681146200017257600080fd5b919050565b6000806000606084860312156200018d57600080fd5b83516001600160401b0380821115620001a557600080fd5b818601915086601f830112620001ba57600080fd5b8151602082821115620001d157620001d162000144565b8160051b604051601f19603f83011681018181108682111715620001f957620001f962000144565b60405292835281830193508481018201928a8411156200021857600080fd5b948201945b83861015620002415762000231866200015a565b855294820194938201936200021d565b97506200025290508882016200015a565b955050505050604084015190509250925092565b6000602082840312156200027957600080fd5b5051919050565b634e487b7160e01b600052603260045260246000fd5b610af280620002a66000396000f3fe608060405234801561001057600080fd5b506004361061009e5760003560e01c806389fde7af1161006657806389fde7af146101075780638c0fd0011461011c578063a0712d6814610125578063c41a360a1461013a578063d56d229d1461016557600080fd5b806316c12746146100a357806318b71851146100c157806326afa48b146100e2578063300a63bc146100f55780637358c57a146100fe575b600080fd5b6100ab610178565b6040516100b891906107a7565b60405180910390f35b6100d46100cf36600461080c565b610220565b6040519081526020016100b8565b6100d46100f0366004610838565b610251565b6100d460015481565b6100d460035481565b61010f6102df565b6040516100b89190610885565b6100d460025481565b6101386101333660046108ff565b6103ff565b005b61014d6101483660046108ff565b610697565b6040516001600160a01b0390911681526020016100b8565b60005461014d906001600160a01b031681565b6060600060025467ffffffffffffffff81111561019757610197610918565b6040519080825280602002602001820160405280156101c0578160200160208202803683370190505b50905060005b60025481101561021a576101de610148826001610944565b8282815181106101f0576101f061095c565b6001600160a01b03909216602092830291909101909101528061021281610972565b9150506101c6565b50919050565b6004602052816000526040600020818154811061023c57600080fd5b90600052602060002001600091509150505481565b6001600160a01b0381166000908152600460205260408120548061027c575064e8d4a5100092915050565b6001600160a01b038316600090815260046020526040812061029f60018461098d565b815481106102af576102af61095c565b90600052602060002001549050600154816102ca91906109a4565b6003546102d79190610944565b949350505050565b6060600060025467ffffffffffffffff8111156102fe576102fe610918565b60405190808252806020026020018201604052801561033157816020015b606081526020019060019003908161031c5790505b50905060005b60025481101561021a576000546001600160a01b0316638b294b5561035d836001610944565b6040518263ffffffff1660e01b815260040161037b91815260200190565b60006040518083038186803b15801561039357600080fd5b505afa1580156103a7573d6000803e3d6000fd5b505050506040513d6000823e601f3d908101601f191682016040526103cf91908101906109c3565b8282815181106103e1576103e161095c565b602002602001018190525080806103f790610972565b915050610337565b801580159061041057506002548111155b6104515760405162461bcd60e51b815260206004820152600d60248201526c6e6f207375636820666f6c696f60981b60448201526064015b60405180910390fd5b600080546040516374e9fd3160e11b8152600481018490526001600160a01b039091169063e9d3fa629060240160206040518083038186803b15801561049657600080fd5b505afa1580156104aa573d6000803e3d6000fd5b505050506040513d601f19601f820116820180604052508101906104ce9190610a70565b1461050c5760405162461bcd60e51b815260206004820152600e60248201526d185b1c9958591e481b5a5b9d195960921b6044820152606401610448565b3360009081526004602052604090208054806105595760405162461bcd60e51b815260206004820152600c60248201526b6e6f20616c6c6f77616e636560a01b6044820152606401610448565b60008261056760018461098d565b815481106105775761057761095c565b9060005260206000200154905060006001548261059491906109a4565b6003546105a19190610944565b9050428111156105e65760405162461bcd60e51b815260206004820152601060248201526f1b9bdd081e595d081d5b9b1bd8dad95960821b6044820152606401610448565b838054806105f6576105f6610a89565b6000828152602081208201600019908101829055909101909155546001600160a01b03166324eeedf63361062b856001610944565b6040516001600160e01b031960e085901b1681526001600160a01b039092166004830152602482015260448101889052606401600060405180830381600087803b15801561067857600080fd5b505af115801561068c573d6000803e3d6000fd5b505050505050505050565b600080546040516374e9fd3160e11b81526004810184905282916001600160a01b03169063e9d3fa629060240160206040518083038186803b1580156106dc57600080fd5b505afa1580156106f0573d6000803e3d6000fd5b505050506040513d601f19601f820116820180604052508101906107149190610a70565b9050806107245750600092915050565b6000546040516331a9108f60e11b8152600481018390526001600160a01b0390911690636352211e9060240160206040518083038186803b15801561076857600080fd5b505afa15801561077c573d6000803e3d6000fd5b505050506040513d601f19601f820116820180604052508101906107a09190610a9f565b9392505050565b6020808252825182820181905260009190848201906040850190845b818110156107e85783516001600160a01b0316835292840192918401916001016107c3565b50909695505050505050565b6001600160a01b038116811461080957600080fd5b50565b6000806040838503121561081f57600080fd5b823561082a816107f4565b946020939093013593505050565b60006020828403121561084a57600080fd5b81356107a0816107f4565b60005b83811015610870578181015183820152602001610858565b8381111561087f576000848401525b50505050565b6000602080830181845280855180835260408601915060408160051b870101925083870160005b828110156108f257878503603f19018452815180518087526108d3818989018a8501610855565b601f01601f1916959095018601945092850192908501906001016108ac565b5092979650505050505050565b60006020828403121561091157600080fd5b5035919050565b634e487b7160e01b600052604160045260246000fd5b634e487b7160e01b600052601160045260246000fd5b600082198211156109575761095761092e565b500190565b634e487b7160e01b600052603260045260246000fd5b60006000198214156109865761098661092e565b5060010190565b60008282101561099f5761099f61092e565b500390565b60008160001904831182151516156109be576109be61092e565b500290565b6000602082840312156109d557600080fd5b815167ffffffffffffffff808211156109ed57600080fd5b818401915084601f830112610a0157600080fd5b815181811115610a1357610a13610918565b604051601f8201601f19908116603f01168101908382118183101715610a3b57610a3b610918565b81604052828152876020848701011115610a5457600080fd5b610a65836020830160208801610855565b979650505050505050565b600060208284031215610a8257600080fd5b5051919050565b634e487b7160e01b600052603160045260246000fd5b600060208284031215610ab157600080fd5b81516107a0816107f456fea264697066735822122016b90dbdbab751210c74512aeb9d45b8f2d20fbbd2221094ccc685c2535e46fa64736f6c63430008090033",
  "linkReferences": {},
  "deployedLinkReferences": {}
}