{
  "_format": "hh-sol-artifact-1",
  "contractName": "WCDeployer",
  "sourceName": "contracts/WCDeployer.sol",
  "abi": [
    {
      "anonymous": false,
      "inputs": [
        {
          "indexed": false,
          "internalType": "address",
          "name": "nftAddress",
          "type": "address"
        },
        {
          "indexed": false,
          "internalType": "address",
          "name": "wccAddress",
          "type": "address"
        }
      ],
      "name": "Created",
      "type": "event"
    },
    {
      "anonymous": false,
      "inputs": [
        {
          "indexed": false,
          "internalType": "address",
          "name": "createdNFTaddress",
          "type": "address"
        }
      ],
      "name": "CreatedNFT",
      "type": "event"
    },
    {
      "inputs": [
        {
          "internalType": "uint256",
          "name": "nFolios",
          "type": "uint256"
        },
        {
          "internalType": "string",
          "name": "baseURI",
          "type": "string"
        },
        {
          "internalType": "string",
          "name": "suffixURI",
          "type": "string"
        }
      ],
      "name": "makeNewERC721",
      "outputs": [],
      "stateMutability": "nonpayable",
      "type": "function"
    },
    {
      "inputs": [
        {
          "internalType": "address[]",
          "name": "users",
          "type": "address[]"
        },
        {
          "internalType": "address",
          "name": "nftContractAddr",
          "type": "address"
        },
        {
          "internalType": "uint256",
          "name": "intervalBtwUsers",
          "type": "uint256"
        }
      ],
      "name": "makeNewWCC",
      "outputs": [],
      "stateMutability": "nonpayable",
      "type": "function"
    },
    {
      "inputs": [],
      "name": "nftAddress",
      "outputs": [
        {
          "internalType": "address",
          "name": "",
          "type": "address"
        }
      ],
      "stateMutability": "view",
      "type": "function"
    },
    {
      "inputs": [],
      "name": "wccAddress",
      "outputs": [
        {
          "internalType": "address",
          "name": "",
          "type": "address"
        }
      ],
      "stateMutability": "view",
      "type": "function"
    }
  ],
  "bytecode": "0x608060405234801561001057600080fd5b50613538806100206000396000f3fe60806040523480156200001157600080fd5b5060043610620000525760003560e01c80630a176e3d14620000575780633ae6747614620000705780635bf8633a14620000a0578063f7f88f7914620000b4575b600080fd5b6200006e6200006836600462000472565b620000cb565b005b60015462000084906001600160a01b031681565b6040516001600160a01b03909116815260200160405180910390f35b60005462000084906001600160a01b031681565b6200006e620000c536600462000511565b620001ff565b81516200017a57600d83106200013d5760405162461bcd60e51b815260206004820152602d60248201527f77697468206e6f207572692070726f76696465642c206d75737420686176652060448201526c3c3d203132206e466f6c696f7360981b606482015260840160405180910390fd5b604051806080016040528060438152602001620034c060439139915060405180604001604052806005815260200164173539b7b760d91b81525090505b60008383836040516200018d9062000395565b6200019b939291906200063d565b604051809103906000f080158015620001b8573d6000803e3d6000fd5b506040516001600160a01b03821681529091507f44453fd1b4b804cdcef4c8037de7b08e98c56c619b6787b6f58c1b896c6a175a906020015b60405180910390a150505050565b60008383836040516200021290620003a3565b620002209392919062000676565b604051809103906000f0801580156200023d573d6000803e3d6000fd5b509050306001600160a01b0316836001600160a01b0316638da5cb5b6040518163ffffffff1660e01b815260040160206040518083038186803b1580156200028457600080fd5b505afa15801562000299573d6000803e3d6000fd5b505050506040513d601f19601f82011682018060405250810190620002bf9190620006d7565b6001600160a01b031614156200032d5760405163a3106b9560e01b81526001600160a01b03828116600483015284169063a3106b9590602401600060405180830381600087803b1580156200031357600080fd5b505af115801562000328573d6000803e3d6000fd5b505050505b600080546001600160a01b038581166001600160a01b03199283168117909355600180549185169190921681179091556040805192835260208301919091527f587ece4cd19692c5be1a4184503d607d45542d2aca0698c0068f52e09ccb541c9101620001f1565b61202980620006ff83390190565b610d98806200272883390190565b634e487b7160e01b600052604160045260246000fd5b604051601f8201601f1916810167ffffffffffffffff81118282101715620003f357620003f3620003b1565b604052919050565b600082601f8301126200040d57600080fd5b813567ffffffffffffffff8111156200042a576200042a620003b1565b6200043f601f8201601f1916602001620003c7565b8181528460208386010111156200045557600080fd5b816020850160208301376000918101602001919091529392505050565b6000806000606084860312156200048857600080fd5b83359250602084013567ffffffffffffffff80821115620004a857600080fd5b620004b687838801620003fb565b93506040860135915080821115620004cd57600080fd5b50620004dc86828701620003fb565b9150509250925092565b6001600160a01b0381168114620004fc57600080fd5b50565b80356200050c81620004e6565b919050565b6000806000606084860312156200052757600080fd5b833567ffffffffffffffff808211156200054057600080fd5b818601915086601f8301126200055557600080fd5b81356020828211156200056c576200056c620003b1565b8160051b92506200057f818401620003c7565b828152928401810192818101908a8511156200059a57600080fd5b948201945b84861015620005c85785359350620005b784620004e6565b83825294820194908201906200059f565b9750620005d99050888201620004ff565b955050505050604084013590509250925092565b6000815180845260005b818110156200061557602081850181015186830182015201620005f7565b8181111562000628576000602083870101525b50601f01601f19169290920160200192915050565b838152606060208201526000620006586060830185620005ed565b82810360408401526200066c8185620005ed565b9695505050505050565b606080825284519082018190526000906020906080840190828801845b82811015620006ba5781516001600160a01b03168452928401929084019060010162000693565b5050506001600160a01b0395909516908301525060400152919050565b600060208284031215620006ea57600080fd5b8151620006f781620004e6565b939250505056fe60a06040523480156200001157600080fd5b5060405162002029380380620020298339810160408190526200003491620002cf565b604080518082018252600f81526e15d0d0dbdb5c185d1a589b19539195608a1b60208083019182528351808501909452600384526226a1a760e91b90840152815191929162000086916000916200015c565b5080516200009c9060019060208401906200015c565b505050620000b9620000b36200010660201b60201c565b6200010a565b60808390528151620000d39060079060208501906200015c565b508051620000e99060089060208401906200015c565b5050600980546001600160a01b0319163317905550620003809050565b3390565b600680546001600160a01b038381166001600160a01b0319831681179093556040519116919082907f8be0079c531659141344cd1fd0a4f28419497f9722a3daafe3b4186f6b6457e090600090a35050565b8280546200016a9062000343565b90600052602060002090601f0160209004810192826200018e5760008555620001d9565b82601f10620001a957805160ff1916838001178555620001d9565b82800160010185558215620001d9579182015b82811115620001d9578251825591602001919060010190620001bc565b50620001e7929150620001eb565b5090565b5b80821115620001e75760008155600101620001ec565b634e487b7160e01b600052604160045260246000fd5b600082601f8301126200022a57600080fd5b81516001600160401b038082111562000247576200024762000202565b604051601f8301601f19908116603f0116810190828211818310171562000272576200027262000202565b816040528381526020925086838588010111156200028f57600080fd5b600091505b83821015620002b3578582018301518183018401529082019062000294565b83821115620002c55760008385830101525b9695505050505050565b600080600060608486031215620002e557600080fd5b835160208501519093506001600160401b03808211156200030557600080fd5b620003138783880162000218565b935060408601519150808211156200032a57600080fd5b50620003398682870162000218565b9150509250925092565b600181811c908216806200035857607f821691505b602082108114156200037a57634e487b7160e01b600052602260045260246000fd5b50919050565b608051611c7f620003aa60003960008181610309015281816108d001526110b60152611c7f6000f3fe608060405234801561001057600080fd5b50600436106101a95760003560e01c806370a08231116100f9578063a3106b9511610097578063c87b56dd11610071578063c87b56dd14610387578063e985e9c51461039a578063e9d3fa62146103d6578063f2fde38b146103f657600080fd5b8063a3106b9514610359578063b3bcea481461036c578063b88d4fde1461037457600080fd5b80638c0fd001116100d35780638c0fd001146103075780638da5cb5b1461032d57806395d89b411461033e578063a22cb4651461034657600080fd5b806370a08231146102cb578063715018a6146102ec5780638b294b55146102f457600080fd5b806323b872dd1161016657806342842e0e1161014057806342842e0e1461028a57806355f804b31461029d5780636352211e146102b05780636c0360eb146102c357600080fd5b806323b872dd1461025157806324eeedf6146102645780632574ad911461027757600080fd5b806301ffc9a7146101ae57806306fdde03146101d657806307546172146101eb578063081812fc14610216578063095ea7b314610229578063150c80b41461023e575b600080fd5b6101c16101bc3660046115fa565b610409565b60405190151581526020015b60405180910390f35b6101de61045b565b6040516101cd919061166f565b6009546101fe906001600160a01b031681565b6040516001600160a01b0390911681526020016101cd565b6101fe610224366004611682565b6104ed565b61023c6102373660046116b7565b610514565b005b6101de61024c366004611682565b61062f565b61023c61025f3660046116e1565b6106c9565b61023c61027236600461171d565b6106fa565b61023c610285366004611799565b610765565b61023c6102983660046116e1565b61078c565b61023c6102ab3660046117e5565b6107a7565b6101fe6102be366004611682565b6107bb565b6101de61081b565b6102de6102d9366004611827565b610828565b6040519081526020016101cd565b61023c6108ae565b6101de610302366004611682565b6108c2565b7f00000000000000000000000000000000000000000000000000000000000000006102de565b6006546001600160a01b03166101fe565b6101de610a22565b61023c610354366004611842565b610a31565b61023c610367366004611827565b610a40565b6101de610a6a565b61023c610382366004611894565b610a77565b6101de610395366004611682565b610aa9565b6101c16103a8366004611970565b6001600160a01b03918216600090815260056020908152604080832093909416825291909152205460ff1690565b6102de6103e4366004611682565b600b6020526000908152604090205481565b61023c610404366004611827565b610b07565b60006001600160e01b031982166380ac58cd60e01b148061043a57506001600160e01b03198216635b5e139f60e01b145b8061045557506301ffc9a760e01b6001600160e01b03198316145b92915050565b60606000805461046a906119a3565b80601f0160208091040260200160405190810160405280929190818152602001828054610496906119a3565b80156104e35780601f106104b8576101008083540402835291602001916104e3565b820191906000526020600020905b8154815290600101906020018083116104c657829003601f168201915b5050505050905090565b60006104f882610b80565b506000908152600460205260409020546001600160a01b031690565b600061051f826107bb565b9050806001600160a01b0316836001600160a01b031614156105925760405162461bcd60e51b815260206004820152602160248201527f4552433732313a20617070726f76616c20746f2063757272656e74206f776e656044820152603960f91b60648201526084015b60405180910390fd5b336001600160a01b03821614806105ae57506105ae81336103a8565b6106205760405162461bcd60e51b815260206004820152603d60248201527f4552433732313a20617070726f76652063616c6c6572206973206e6f7420746f60448201527f6b656e206f776e6572206f7220617070726f76656420666f7220616c6c0000006064820152608401610589565b61062a8383610bdf565b505050565b600a6020526000908152604090208054610648906119a3565b80601f0160208091040260200160405190810160405280929190818152602001828054610674906119a3565b80156106c15780601f10610696576101008083540402835291602001916106c1565b820191906000526020600020905b8154815290600101906020018083116106a457829003601f168201915b505050505081565b6106d33382610c4d565b6106ef5760405162461bcd60e51b8152600401610589906119de565b61062a838383610ccc565b6009546001600160a01b0316336001600160a01b03161461074a5760405162461bcd60e51b815260206004820152600a6024820152693737ba1036b4b73a32b960b11b6044820152606401610589565b6000818152600b6020526040902082905561062a8383610e3d565b61076d610e57565b6000838152600a6020526040902061078690838361154b565b50505050565b61062a83838360405180602001604052806000815250610a77565b6107af610e57565b61062a6007838361154b565b6000818152600260205260408120546001600160a01b0316806104555760405162461bcd60e51b8152602060048201526018602482015277115490cdcc8c4e881a5b9d985b1a59081d1bdad95b88125160421b6044820152606401610589565b60078054610648906119a3565b60006001600160a01b0382166108925760405162461bcd60e51b815260206004820152602960248201527f4552433732313a2061646472657373207a65726f206973206e6f7420612076616044820152683634b21037bbb732b960b91b6064820152608401610589565b506001600160a01b031660009081526003602052604090205490565b6108b6610e57565b6108c06000610eb1565b565b606081158015906108f357507f00000000000000000000000000000000000000000000000000000000000000008211155b6109325760405162461bcd60e51b815260206004820152601060248201526f696e76616c696420666f6c696f4e756d60801b6044820152606401610589565b6000828152600a60205260408120805461094b906119a3565b80601f0160208091040260200160405190810160405280929190818152602001828054610977906119a3565b80156109c45780601f10610999576101008083540402835291602001916109c4565b820191906000526020600020905b8154815290600101906020018083116109a757829003601f168201915b50505050509050805160001415610a0b5760076109e084610f03565b60086040516020016109f493929190611ac5565b604051602081830303815290604052915050919050565b60078160086040516020016109f493929190611ac5565b60606001805461046a906119a3565b610a3c338383610fa0565b5050565b610a48610e57565b600980546001600160a01b0319166001600160a01b0392909216919091179055565b60088054610648906119a3565b610a813383610c4d565b610a9d5760405162461bcd60e51b8152600401610589906119de565b6107868484848461106f565b60606000610ab6836110a2565b905080610af75760405162461bcd60e51b815260206004820152600f60248201526e1a5b9d985b1a59081d1bdad95b9259608a1b6044820152606401610589565b610b00816108c2565b9392505050565b610b0f610e57565b6001600160a01b038116610b745760405162461bcd60e51b815260206004820152602660248201527f4f776e61626c653a206e6577206f776e657220697320746865207a65726f206160448201526564647265737360d01b6064820152608401610589565b610b7d81610eb1565b50565b6000818152600260205260409020546001600160a01b0316610b7d5760405162461bcd60e51b8152602060048201526018602482015277115490cdcc8c4e881a5b9d985b1a59081d1bdad95b88125160421b6044820152606401610589565b600081815260046020526040902080546001600160a01b0319166001600160a01b0384169081179091558190610c14826107bb565b6001600160a01b03167f8c5be1e5ebec7d5bd14f71427d1e84f3dd0314c0f7b2291e5b200ac8c7c3b92560405160405180910390a45050565b600080610c59836107bb565b9050806001600160a01b0316846001600160a01b03161480610ca057506001600160a01b0380821660009081526005602090815260408083209388168352929052205460ff165b80610cc45750836001600160a01b0316610cb9846104ed565b6001600160a01b0316145b949350505050565b826001600160a01b0316610cdf826107bb565b6001600160a01b031614610d055760405162461bcd60e51b815260040161058990611af8565b6001600160a01b038216610d675760405162461bcd60e51b8152602060048201526024808201527f4552433732313a207472616e7366657220746f20746865207a65726f206164646044820152637265737360e01b6064820152608401610589565b610d748383836001611112565b826001600160a01b0316610d87826107bb565b6001600160a01b031614610dad5760405162461bcd60e51b815260040161058990611af8565b600081815260046020908152604080832080546001600160a01b03199081169091556001600160a01b0387811680865260038552838620805460001901905590871680865283862080546001019055868652600290945282852080549092168417909155905184937fddf252ad1be2c89b69c2b068fc378daa952ba7f163c4a11628f55a4df523b3ef91a4505050565b610a3c82826040518060200160405280600081525061119a565b6006546001600160a01b031633146108c05760405162461bcd60e51b815260206004820181905260248201527f4f776e61626c653a2063616c6c6572206973206e6f7420746865206f776e65726044820152606401610589565b600680546001600160a01b038381166001600160a01b0319831681179093556040519116919082907f8be0079c531659141344cd1fd0a4f28419497f9722a3daafe3b4186f6b6457e090600090a35050565b60606000610f10836111cd565b600101905060008167ffffffffffffffff811115610f3057610f3061187e565b6040519080825280601f01601f191660200182016040528015610f5a576020820181803683370190505b5090508181016020015b600019016f181899199a1a9b1b9c1cb0b131b232b360811b600a86061a8153600a8504945084610f9357610f98565b610f64565b509392505050565b816001600160a01b0316836001600160a01b031614156110025760405162461bcd60e51b815260206004820152601960248201527f4552433732313a20617070726f766520746f2063616c6c6572000000000000006044820152606401610589565b6001600160a01b03838116600081815260056020908152604080832094871680845294825291829020805460ff191686151590811790915591519182527f17307eab39ab6107e8899845ad3d59bd9653f200f220920489ca2b5937696c31910160405180910390a3505050565b61107a848484610ccc565b611086848484846112a5565b6107865760405162461bcd60e51b815260040161058990611b3d565b6000816110b157506000919050565b60015b7f00000000000000000000000000000000000000000000000000000000000000008111611109576000818152600b60205260409020548314156110f75792915050565b8061110181611ba5565b9150506110b4565b50600092915050565b6001811115610786576001600160a01b03841615611158576001600160a01b03841660009081526003602052604081208054839290611152908490611bc0565b90915550505b6001600160a01b03831615610786576001600160a01b0383166000908152600360205260408120805483929061118f908490611bd7565b909155505050505050565b6111a483836113b2565b6111b160008484846112a5565b61062a5760405162461bcd60e51b815260040161058990611b3d565b60008072184f03e93ff9f4daa797ed6e38ed64bf6a1f0160401b831061120c5772184f03e93ff9f4daa797ed6e38ed64bf6a1f0160401b830492506040015b6d04ee2d6d415b85acef81000000008310611238576d04ee2d6d415b85acef8100000000830492506020015b662386f26fc10000831061125657662386f26fc10000830492506010015b6305f5e100831061126e576305f5e100830492506008015b612710831061128257612710830492506004015b60648310611294576064830492506002015b600a83106104555760010192915050565b60006001600160a01b0384163b156113a757604051630a85bd0160e11b81526001600160a01b0385169063150b7a02906112e9903390899088908890600401611bef565b602060405180830381600087803b15801561130357600080fd5b505af1925050508015611333575060408051601f3d908101601f1916820190925261133091810190611c2c565b60015b61138d573d808015611361576040519150601f19603f3d011682016040523d82523d6000602084013e611366565b606091505b5080516113855760405162461bcd60e51b815260040161058990611b3d565b805181602001fd5b6001600160e01b031916630a85bd0160e11b149050610cc4565b506001949350505050565b6001600160a01b0382166114085760405162461bcd60e51b815260206004820181905260248201527f4552433732313a206d696e7420746f20746865207a65726f20616464726573736044820152606401610589565b6000818152600260205260409020546001600160a01b03161561146d5760405162461bcd60e51b815260206004820152601c60248201527f4552433732313a20746f6b656e20616c7265616479206d696e746564000000006044820152606401610589565b61147b600083836001611112565b6000818152600260205260409020546001600160a01b0316156114e05760405162461bcd60e51b815260206004820152601c60248201527f4552433732313a20746f6b656e20616c7265616479206d696e746564000000006044820152606401610589565b6001600160a01b038216600081815260036020908152604080832080546001019055848352600290915280822080546001600160a01b0319168417905551839291907fddf252ad1be2c89b69c2b068fc378daa952ba7f163c4a11628f55a4df523b3ef908290a45050565b828054611557906119a3565b90600052602060002090601f01602090048101928261157957600085556115bf565b82601f106115925782800160ff198235161785556115bf565b828001600101855582156115bf579182015b828111156115bf5782358255916020019190600101906115a4565b506115cb9291506115cf565b5090565b5b808211156115cb57600081556001016115d0565b6001600160e01b031981168114610b7d57600080fd5b60006020828403121561160c57600080fd5b8135610b00816115e4565b60005b8381101561163257818101518382015260200161161a565b838111156107865750506000910152565b6000815180845261165b816020860160208601611617565b601f01601f19169290920160200192915050565b602081526000610b006020830184611643565b60006020828403121561169457600080fd5b5035919050565b80356001600160a01b03811681146116b257600080fd5b919050565b600080604083850312156116ca57600080fd5b6116d38361169b565b946020939093013593505050565b6000806000606084860312156116f657600080fd5b6116ff8461169b565b925061170d6020850161169b565b9150604084013590509250925092565b60008060006060848603121561173257600080fd5b61173b8461169b565b95602085013595506040909401359392505050565b60008083601f84011261176257600080fd5b50813567ffffffffffffffff81111561177a57600080fd5b60208301915083602082850101111561179257600080fd5b9250929050565b6000806000604084860312156117ae57600080fd5b83359250602084013567ffffffffffffffff8111156117cc57600080fd5b6117d886828701611750565b9497909650939450505050565b600080602083850312156117f857600080fd5b823567ffffffffffffffff81111561180f57600080fd5b61181b85828601611750565b90969095509350505050565b60006020828403121561183957600080fd5b610b008261169b565b6000806040838503121561185557600080fd5b61185e8361169b565b91506020830135801515811461187357600080fd5b809150509250929050565b634e487b7160e01b600052604160045260246000fd5b600080600080608085870312156118aa57600080fd5b6118b38561169b565b93506118c16020860161169b565b925060408501359150606085013567ffffffffffffffff808211156118e557600080fd5b818701915087601f8301126118f957600080fd5b81358181111561190b5761190b61187e565b604051601f8201601f19908116603f011681019083821181831017156119335761193361187e565b816040528281528a602084870101111561194c57600080fd5b82602086016020830137600060208483010152809550505050505092959194509250565b6000806040838503121561198357600080fd5b61198c8361169b565b915061199a6020840161169b565b90509250929050565b600181811c908216806119b757607f821691505b602082108114156119d857634e487b7160e01b600052602260045260246000fd5b50919050565b6020808252602d908201527f4552433732313a2063616c6c6572206973206e6f7420746f6b656e206f776e6560408201526c1c881bdc88185c1c1c9bdd9959609a1b606082015260800190565b8054600090600181811c9080831680611a4557607f831692505b6020808410821415611a6757634e487b7160e01b600052602260045260246000fd5b818015611a7b5760018114611a8c57611ab9565b60ff19861689528489019650611ab9565b60008881526020902060005b86811015611ab15781548b820152908501908301611a98565b505084890196505b50505050505092915050565b6000611ad18286611a2b565b8451611ae1818360208901611617565b611aed81830186611a2b565b979650505050505050565b60208082526025908201527f4552433732313a207472616e736665722066726f6d20696e636f72726563742060408201526437bbb732b960d91b606082015260800190565b60208082526032908201527f4552433732313a207472616e7366657220746f206e6f6e20455243373231526560408201527131b2b4bb32b91034b6b83632b6b2b73a32b960711b606082015260800190565b634e487b7160e01b600052601160045260246000fd5b6000600019821415611bb957611bb9611b8f565b5060010190565b600082821015611bd257611bd2611b8f565b500390565b60008219821115611bea57611bea611b8f565b500190565b6001600160a01b0385811682528416602082015260408101839052608060608201819052600090611c2290830184611643565b9695505050505050565b600060208284031215611c3e57600080fd5b8151610b00816115e456fea264697066735822122072a8106aa5123f88bf0bf15b1b4dc54d2fb780f24b30d3dbc14beb89df18050764736f6c6343000809003360806040523480156200001157600080fd5b5060405162000d9838038062000d98833981016040819052620000349162000177565b600080546001600160a01b0319166001600160a01b03841690811790915560408051638c0fd00160e01b81529051638c0fd00191600480820192602092909190829003018186803b1580156200008957600080fd5b505afa1580156200009e573d6000803e3d6000fd5b505050506040513d601f19601f82011682018060405250810190620000c4919062000266565b60025560018190554260035582515b80156200013a5780806001900391505060046000858381518110620000fc57620000fc62000280565b6020908102919091018101516001600160a01b03168252818101929092526040016000908120805460018101825590825291902001819055620000d3565b5050505062000296565b634e487b7160e01b600052604160045260246000fd5b80516001600160a01b03811681146200017257600080fd5b919050565b6000806000606084860312156200018d57600080fd5b83516001600160401b0380821115620001a557600080fd5b818601915086601f830112620001ba57600080fd5b8151602082821115620001d157620001d162000144565b8160051b604051601f19603f83011681018181108682111715620001f957620001f962000144565b60405292835281830193508481018201928a8411156200021857600080fd5b948201945b83861015620002415762000231866200015a565b855294820194938201936200021d565b97506200025290508882016200015a565b955050505050604084015190509250925092565b6000602082840312156200027957600080fd5b5051919050565b634e487b7160e01b600052603260045260246000fd5b610af280620002a66000396000f3fe608060405234801561001057600080fd5b506004361061009e5760003560e01c806389fde7af1161006657806389fde7af146101075780638c0fd0011461011c578063a0712d6814610125578063c41a360a1461013a578063d56d229d1461016557600080fd5b806316c12746146100a357806318b71851146100c157806326afa48b146100e2578063300a63bc146100f55780637358c57a146100fe575b600080fd5b6100ab610178565b6040516100b891906107a7565b60405180910390f35b6100d46100cf36600461080c565b610220565b6040519081526020016100b8565b6100d46100f0366004610838565b610251565b6100d460015481565b6100d460035481565b61010f6102df565b6040516100b89190610885565b6100d460025481565b6101386101333660046108ff565b6103ff565b005b61014d6101483660046108ff565b610697565b6040516001600160a01b0390911681526020016100b8565b60005461014d906001600160a01b031681565b6060600060025467ffffffffffffffff81111561019757610197610918565b6040519080825280602002602001820160405280156101c0578160200160208202803683370190505b50905060005b60025481101561021a576101de610148826001610944565b8282815181106101f0576101f061095c565b6001600160a01b03909216602092830291909101909101528061021281610972565b9150506101c6565b50919050565b6004602052816000526040600020818154811061023c57600080fd5b90600052602060002001600091509150505481565b6001600160a01b0381166000908152600460205260408120548061027c575064e8d4a5100092915050565b6001600160a01b038316600090815260046020526040812061029f60018461098d565b815481106102af576102af61095c565b90600052602060002001549050600154816102ca91906109a4565b6003546102d79190610944565b949350505050565b6060600060025467ffffffffffffffff8111156102fe576102fe610918565b60405190808252806020026020018201604052801561033157816020015b606081526020019060019003908161031c5790505b50905060005b60025481101561021a576000546001600160a01b0316638b294b5561035d836001610944565b6040518263ffffffff1660e01b815260040161037b91815260200190565b60006040518083038186803b15801561039357600080fd5b505afa1580156103a7573d6000803e3d6000fd5b505050506040513d6000823e601f3d908101601f191682016040526103cf91908101906109c3565b8282815181106103e1576103e161095c565b602002602001018190525080806103f790610972565b915050610337565b801580159061041057506002548111155b6104515760405162461bcd60e51b815260206004820152600d60248201526c6e6f207375636820666f6c696f60981b60448201526064015b60405180910390fd5b600080546040516374e9fd3160e11b8152600481018490526001600160a01b039091169063e9d3fa629060240160206040518083038186803b15801561049657600080fd5b505afa1580156104aa573d6000803e3d6000fd5b505050506040513d601f19601f820116820180604052508101906104ce9190610a70565b1461050c5760405162461bcd60e51b815260206004820152600e60248201526d185b1c9958591e481b5a5b9d195960921b6044820152606401610448565b3360009081526004602052604090208054806105595760405162461bcd60e51b815260206004820152600c60248201526b6e6f20616c6c6f77616e636560a01b6044820152606401610448565b60008261056760018461098d565b815481106105775761057761095c565b9060005260206000200154905060006001548261059491906109a4565b6003546105a19190610944565b9050428111156105e65760405162461bcd60e51b815260206004820152601060248201526f1b9bdd081e595d081d5b9b1bd8dad95960821b6044820152606401610448565b838054806105f6576105f6610a89565b6000828152602081208201600019908101829055909101909155546001600160a01b03166324eeedf63361062b856001610944565b6040516001600160e01b031960e085901b1681526001600160a01b039092166004830152602482015260448101889052606401600060405180830381600087803b15801561067857600080fd5b505af115801561068c573d6000803e3d6000fd5b505050505050505050565b600080546040516374e9fd3160e11b81526004810184905282916001600160a01b03169063e9d3fa629060240160206040518083038186803b1580156106dc57600080fd5b505afa1580156106f0573d6000803e3d6000fd5b505050506040513d601f19601f820116820180604052508101906107149190610a70565b9050806107245750600092915050565b6000546040516331a9108f60e11b8152600481018390526001600160a01b0390911690636352211e9060240160206040518083038186803b15801561076857600080fd5b505afa15801561077c573d6000803e3d6000fd5b505050506040513d601f19601f820116820180604052508101906107a09190610a9f565b9392505050565b6020808252825182820181905260009190848201906040850190845b818110156107e85783516001600160a01b0316835292840192918401916001016107c3565b50909695505050505050565b6001600160a01b038116811461080957600080fd5b50565b6000806040838503121561081f57600080fd5b823561082a816107f4565b946020939093013593505050565b60006020828403121561084a57600080fd5b81356107a0816107f4565b60005b83811015610870578181015183820152602001610858565b8381111561087f576000848401525b50505050565b6000602080830181845280855180835260408601915060408160051b870101925083870160005b828110156108f257878503603f19018452815180518087526108d3818989018a8501610855565b601f01601f1916959095018601945092850192908501906001016108ac565b5092979650505050505050565b60006020828403121561091157600080fd5b5035919050565b634e487b7160e01b600052604160045260246000fd5b634e487b7160e01b600052601160045260246000fd5b600082198211156109575761095761092e565b500190565b634e487b7160e01b600052603260045260246000fd5b60006000198214156109865761098661092e565b5060010190565b60008282101561099f5761099f61092e565b500390565b60008160001904831182151516156109be576109be61092e565b500290565b6000602082840312156109d557600080fd5b815167ffffffffffffffff808211156109ed57600080fd5b818401915084601f830112610a0157600080fd5b815181811115610a1357610a13610918565b604051601f8201601f19908116603f01168101908382118183101715610a3b57610a3b610918565b81604052828152876020848701011115610a5457600080fd5b610a65836020830160208801610855565b979650505050505050565b600060208284031215610a8257600080fd5b5051919050565b634e487b7160e01b600052603160045260246000fd5b600060208284031215610ab157600080fd5b81516107a0816107f456fea264697066735822122016b90dbdbab751210c74512aeb9d45b8f2d20fbbd2221094ccc685c2535e46fa64736f6c63430008090033697066733a2f2f62616679626569676333747278746b676932776979617863656b763666776b6e66636f76337a7432667871677563326e63356a787078696e3437752fa264697066735822122070ecf4dcac530061f35c5f62bcbc673b71ea83e56f261760f327bcbc9ae04a7564736f6c63430008090033",
  "linkReferences": {},
  "deployedLinkReferences": {}
}