{
  "_format": "hh-sol-artifact-1",
  "contractName": "WCFactory",
  "sourceName": "contracts/WCFactory.sol",
  "abi": [
    {
      "anonymous": false,
      "inputs": [
        {
          "indexed": false,
          "internalType": "address",
          "name": "curNFTaddress",
          "type": "address"
        },
        {
          "indexed": false,
          "internalType": "address",
          "name": "curWCCaddress",
          "type": "address"
        }
      ],
      "name": "Created",
      "type": "event"
    },
    {
      "anonymous": false,
      "inputs": [
        {
          "indexed": false,
          "internalType": "address",
          "name": "createdNFTaddress",
          "type": "address"
        }
      ],
      "name": "CreatedNFT",
      "type": "event"
    },
    {
      "inputs": [],
      "name": "curNFTaddress",
      "outputs": [
        {
          "internalType": "address",
          "name": "",
          "type": "address"
        }
      ],
      "stateMutability": "view",
      "type": "function"
    },
    {
      "inputs": [],
      "name": "curWCCaddress",
      "outputs": [
        {
          "internalType": "address",
          "name": "",
          "type": "address"
        }
      ],
      "stateMutability": "view",
      "type": "function"
    },
    {
      "inputs": [
        {
          "internalType": "uint256",
          "name": "nFolios",
          "type": "uint256"
        },
        {
          "internalType": "string",
          "name": "baseURI",
          "type": "string"
        },
        {
          "internalType": "string",
          "name": "suffixURI",
          "type": "string"
        }
      ],
      "name": "makeNewERC721",
      "outputs": [],
      "stateMutability": "nonpayable",
      "type": "function"
    },
    {
      "inputs": [
        {
          "internalType": "address[]",
          "name": "users",
          "type": "address[]"
        },
        {
          "internalType": "address",
          "name": "nftContractAddr",
          "type": "address"
        },
        {
          "internalType": "uint256",
          "name": "intervalBtwUsers",
          "type": "uint256"
        }
      ],
      "name": "makeNewWCC",
      "outputs": [],
      "stateMutability": "nonpayable",
      "type": "function"
    }
  ],
  "bytecode": "0x608060405234801561001057600080fd5b50615abe806100206000396000f3fe60806040523480156200001157600080fd5b5060043610620000525760003560e01c80630a176e3d14620000575780634b92585d14620000775780639aa1a6e11462000099578063f7f88f7914620000bb575b600080fd5b6200007560048036038101906200006f9190620005dd565b620000db565b005b620000816200015b565b604051620000909190620006bc565b60405180910390f35b620000a362000181565b604051620000b29190620006bc565b60405180910390f35b620000d96004803603810190620000d39190620007e5565b620001a5565b005b6000838383604051620000ee9062000410565b620000fc9392919062000904565b604051809103906000f08015801562000119573d6000803e3d6000fd5b5090507f44453fd1b4b804cdcef4c8037de7b08e98c56c619b6787b6f58c1b896c6a175a816040516200014d9190620006bc565b60405180910390a150505050565b600160009054906101000a900473ffffffffffffffffffffffffffffffffffffffff1681565b60008054906101000a900473ffffffffffffffffffffffffffffffffffffffff1681565b6000838383604051620001b8906200041e565b620001c69392919062000a1d565b604051809103906000f080158015620001e3573d6000803e3d6000fd5b5090503073ffffffffffffffffffffffffffffffffffffffff168373ffffffffffffffffffffffffffffffffffffffff16638da5cb5b6040518163ffffffff1660e01b815260040160206040518083038186803b1580156200024457600080fd5b505afa15801562000259573d6000803e3d6000fd5b505050506040513d601f19601f820116820180604052508101906200027f919062000a78565b73ffffffffffffffffffffffffffffffffffffffff1614156200030c578273ffffffffffffffffffffffffffffffffffffffff1663a3106b95826040518263ffffffff1660e01b8152600401620002d79190620006bc565b600060405180830381600087803b158015620002f257600080fd5b505af115801562000307573d6000803e3d6000fd5b505050505b826000806101000a81548173ffffffffffffffffffffffffffffffffffffffff021916908373ffffffffffffffffffffffffffffffffffffffff16021790555080600160006101000a81548173ffffffffffffffffffffffffffffffffffffffff021916908373ffffffffffffffffffffffffffffffffffffffff1602179055507f587ece4cd19692c5be1a4184503d607d45542d2aca0698c0068f52e09ccb541c60008054906101000a900473ffffffffffffffffffffffffffffffffffffffff16600160009054906101000a900473ffffffffffffffffffffffffffffffffffffffff166040516200040292919062000aaa565b60405180910390a150505050565b6137008062000ad883390190565b6118b180620041d883390190565b6000604051905090565b600080fd5b600080fd5b6000819050919050565b620004558162000440565b81146200046157600080fd5b50565b60008135905062000475816200044a565b92915050565b600080fd5b600080fd5b6000601f19601f8301169050919050565b7f4e487b7100000000000000000000000000000000000000000000000000000000600052604160045260246000fd5b620004d08262000485565b810181811067ffffffffffffffff82111715620004f257620004f162000496565b5b80604052505050565b6000620005076200042c565b9050620005158282620004c5565b919050565b600067ffffffffffffffff82111562000538576200053762000496565b5b620005438262000485565b9050602081019050919050565b82818337600083830152505050565b60006200057662000570846200051a565b620004fb565b90508281526020810184848401111562000595576200059462000480565b5b620005a284828562000550565b509392505050565b600082601f830112620005c257620005c16200047b565b5b8135620005d48482602086016200055f565b91505092915050565b600080600060608486031215620005f957620005f862000436565b5b6000620006098682870162000464565b935050602084013567ffffffffffffffff8111156200062d576200062c6200043b565b5b6200063b86828701620005aa565b925050604084013567ffffffffffffffff8111156200065f576200065e6200043b565b5b6200066d86828701620005aa565b9150509250925092565b600073ffffffffffffffffffffffffffffffffffffffff82169050919050565b6000620006a48262000677565b9050919050565b620006b68162000697565b82525050565b6000602082019050620006d36000830184620006ab565b92915050565b600067ffffffffffffffff821115620006f757620006f662000496565b5b602082029050602081019050919050565b600080fd5b620007188162000697565b81146200072457600080fd5b50565b60008135905062000738816200070d565b92915050565b6000620007556200074f84620006d9565b620004fb565b905080838252602082019050602084028301858111156200077b576200077a62000708565b5b835b81811015620007a8578062000793888262000727565b8452602084019350506020810190506200077d565b5050509392505050565b600082601f830112620007ca57620007c96200047b565b5b8135620007dc8482602086016200073e565b91505092915050565b60008060006060848603121562000801576200080062000436565b5b600084013567ffffffffffffffff8111156200082257620008216200043b565b5b6200083086828701620007b2565b9350506020620008438682870162000727565b9250506040620008568682870162000464565b9150509250925092565b6200086b8162000440565b82525050565b600081519050919050565b600082825260208201905092915050565b60005b83811015620008ad57808201518184015260208101905062000890565b83811115620008bd576000848401525b50505050565b6000620008d08262000871565b620008dc81856200087c565b9350620008ee8185602086016200088d565b620008f98162000485565b840191505092915050565b60006060820190506200091b600083018662000860565b81810360208301526200092f8185620008c3565b90508181036040830152620009458184620008c3565b9050949350505050565b600081519050919050565b600082825260208201905092915050565b6000819050602082019050919050565b620009868162000697565b82525050565b60006200099a83836200097b565b60208301905092915050565b6000602082019050919050565b6000620009c0826200094f565b620009cc81856200095a565b9350620009d9836200096b565b8060005b8381101562000a10578151620009f488826200098c565b975062000a0183620009a6565b925050600181019050620009dd565b5085935050505092915050565b6000606082019050818103600083015262000a398186620009b3565b905062000a4a6020830185620006ab565b62000a59604083018462000860565b949350505050565b60008151905062000a72816200070d565b92915050565b60006020828403121562000a915762000a9062000436565b5b600062000aa18482850162000a61565b91505092915050565b600060408201905062000ac16000830185620006ab565b62000ad06020830184620006ab565b939250505056fe60a06040523480156200001157600080fd5b5060405162003700380380620037008339818101604052810190620000379190620005e2565b6040518060400160405280600e81526020017f4d6f636b43726561746f724e46540000000000000000000000000000000000008152506040518060400160405280600381526020017f4d434e00000000000000000000000000000000000000000000000000000000008152508160009080519060200190620000bb9291906200035a565b508060019080519060200190620000d49291906200035a565b505050620000f7620000eb6200026260201b60201c565b6200026a60201b60201c565b8260808181525050600082511415620001d657600d831062000150576040517f08c379a0000000000000000000000000000000000000000000000000000000008152600401620001479062000703565b60405180910390fd5b604051806080016040528060438152602001620036bd6043913960079080519060200190620001819291906200035a565b506040518060400160405280600581526020017f2e6a736f6e00000000000000000000000000000000000000000000000000000081525060089080519060200190620001cf9291906200035a565b5062000209565b8160079080519060200190620001ee9291906200035a565b508060089080519060200190620002079291906200035a565b505b620002196200033060201b60201c565b600960006101000a81548173ffffffffffffffffffffffffffffffffffffffff021916908373ffffffffffffffffffffffffffffffffffffffff1602179055505050506200078a565b600033905090565b6000600660009054906101000a900473ffffffffffffffffffffffffffffffffffffffff16905081600660006101000a81548173ffffffffffffffffffffffffffffffffffffffff021916908373ffffffffffffffffffffffffffffffffffffffff1602179055508173ffffffffffffffffffffffffffffffffffffffff168173ffffffffffffffffffffffffffffffffffffffff167f8be0079c531659141344cd1fd0a4f28419497f9722a3daafe3b4186f6b6457e060405160405180910390a35050565b6000600660009054906101000a900473ffffffffffffffffffffffffffffffffffffffff16905090565b828054620003689062000754565b90600052602060002090601f0160209004810192826200038c5760008555620003d8565b82601f10620003a757805160ff1916838001178555620003d8565b82800160010185558215620003d8579182015b82811115620003d7578251825591602001919060010190620003ba565b5b509050620003e79190620003eb565b5090565b5b8082111562000406576000816000905550600101620003ec565b5090565b6000604051905090565b600080fd5b600080fd5b6000819050919050565b62000433816200041e565b81146200043f57600080fd5b50565b600081519050620004538162000428565b92915050565b600080fd5b600080fd5b6000601f19601f8301169050919050565b7f4e487b7100000000000000000000000000000000000000000000000000000000600052604160045260246000fd5b620004ae8262000463565b810181811067ffffffffffffffff82111715620004d057620004cf62000474565b5b80604052505050565b6000620004e56200040a565b9050620004f38282620004a3565b919050565b600067ffffffffffffffff82111562000516576200051562000474565b5b620005218262000463565b9050602081019050919050565b60005b838110156200054e57808201518184015260208101905062000531565b838111156200055e576000848401525b50505050565b60006200057b6200057584620004f8565b620004d9565b9050828152602081018484840111156200059a57620005996200045e565b5b620005a78482856200052e565b509392505050565b600082601f830112620005c757620005c662000459565b5b8151620005d984826020860162000564565b91505092915050565b600080600060608486031215620005fe57620005fd62000414565b5b60006200060e8682870162000442565b935050602084015167ffffffffffffffff81111562000632576200063162000419565b5b6200064086828701620005af565b925050604084015167ffffffffffffffff81111562000664576200066362000419565b5b6200067286828701620005af565b9150509250925092565b600082825260208201905092915050565b7f77697468206e6f207572692070726f76696465642c206d75737420686176652060008201527f3c3d203132206e466f6c696f7300000000000000000000000000000000000000602082015250565b6000620006eb602d836200067c565b9150620006f8826200068d565b604082019050919050565b600060208201905081810360008301526200071e81620006dc565b9050919050565b7f4e487b7100000000000000000000000000000000000000000000000000000000600052602260045260246000fd5b600060028204905060018216806200076d57607f821691505b6020821081141562000784576200078362000725565b5b50919050565b608051612f10620007ad600039600081816109800152610af90152612f106000f3fe608060405234801561001057600080fd5b50600436106101425760003560e01c80638c0fd001116100b8578063a3106b951161007c578063a3106b9514610351578063b3bcea481461036d578063b88d4fde1461038b578063c87b56dd146103a7578063e985e9c5146103d7578063f2fde38b1461040757610142565b80638c0fd001146102bf5780638da5cb5b146102dd57806395d89b41146102fb578063a144819414610319578063a22cb4651461033557610142565b806323b872dd1161010a57806323b872dd146101ff57806342842e0e1461021b5780636352211e146102375780636c0360eb1461026757806370a0823114610285578063715018a6146102b557610142565b806301ffc9a71461014757806306fdde03146101775780630754617214610195578063081812fc146101b3578063095ea7b3146101e3575b600080fd5b610161600480360381019061015c9190611eac565b610423565b60405161016e9190611ef4565b60405180910390f35b61017f610505565b60405161018c9190611fa8565b60405180910390f35b61019d610597565b6040516101aa919061200b565b60405180910390f35b6101cd60048036038101906101c8919061205c565b6105bd565b6040516101da919061200b565b60405180910390f35b6101fd60048036038101906101f891906120b5565b610603565b005b610219600480360381019061021491906120f5565b61071b565b005b610235600480360381019061023091906120f5565b61077b565b005b610251600480360381019061024c919061205c565b61079b565b60405161025e919061200b565b60405180910390f35b61026f610822565b60405161027c9190611fa8565b60405180910390f35b61029f600480360381019061029a9190612148565b6108b0565b6040516102ac9190612184565b60405180910390f35b6102bd610968565b005b6102c761097c565b6040516102d49190612184565b60405180910390f35b6102e56109a4565b6040516102f2919061200b565b60405180910390f35b6103036109ce565b6040516103109190611fa8565b60405180910390f35b610333600480360381019061032e91906120b5565b610a60565b005b61034f600480360381019061034a91906121cb565b610b67565b005b61036b60048036038101906103669190612148565b610b7d565b005b610375610bc9565b6040516103829190611fa8565b60405180910390f35b6103a560048036038101906103a09190612340565b610c57565b005b6103c160048036038101906103bc919061205c565b610cb9565b6040516103ce9190611fa8565b60405180910390f35b6103f160048036038101906103ec91906123c3565b610cf0565b6040516103fe9190611ef4565b60405180910390f35b610421600480360381019061041c9190612148565b610d84565b005b60007f80ac58cd000000000000000000000000000000000000000000000000000000007bffffffffffffffffffffffffffffffffffffffffffffffffffffffff1916827bffffffffffffffffffffffffffffffffffffffffffffffffffffffff191614806104ee57507f5b5e139f000000000000000000000000000000000000000000000000000000007bffffffffffffffffffffffffffffffffffffffffffffffffffffffff1916827bffffffffffffffffffffffffffffffffffffffffffffffffffffffff1916145b806104fe57506104fd82610e08565b5b9050919050565b60606000805461051490612432565b80601f016020809104026020016040519081016040528092919081815260200182805461054090612432565b801561058d5780601f106105625761010080835404028352916020019161058d565b820191906000526020600020905b81548152906001019060200180831161057057829003601f168201915b5050505050905090565b600960009054906101000a900473ffffffffffffffffffffffffffffffffffffffff1681565b60006105c882610e72565b6004600083815260200190815260200160002060009054906101000a900473ffffffffffffffffffffffffffffffffffffffff169050919050565b600061060e8261079b565b90508073ffffffffffffffffffffffffffffffffffffffff168373ffffffffffffffffffffffffffffffffffffffff16141561067f576040517f08c379a0000000000000000000000000000000000000000000000000000000008152600401610676906124d6565b60405180910390fd5b8073ffffffffffffffffffffffffffffffffffffffff1661069e610ebd565b73ffffffffffffffffffffffffffffffffffffffff1614806106cd57506106cc816106c7610ebd565b610cf0565b5b61070c576040517f08c379a000000000000000000000000000000000000000000000000000000000815260040161070390612568565b60405180910390fd5b6107168383610ec5565b505050565b61072c610726610ebd565b82610f7e565b61076b576040517f08c379a0000000000000000000000000000000000000000000000000000000008152600401610762906125fa565b60405180910390fd5b610776838383611013565b505050565b61079683838360405180602001604052806000815250610c57565b505050565b6000806107a78361130d565b9050600073ffffffffffffffffffffffffffffffffffffffff168173ffffffffffffffffffffffffffffffffffffffff161415610819576040517f08c379a000000000000000000000000000000000000000000000000000000000815260040161081090612666565b60405180910390fd5b80915050919050565b6007805461082f90612432565b80601f016020809104026020016040519081016040528092919081815260200182805461085b90612432565b80156108a85780601f1061087d576101008083540402835291602001916108a8565b820191906000526020600020905b81548152906001019060200180831161088b57829003601f168201915b505050505081565b60008073ffffffffffffffffffffffffffffffffffffffff168273ffffffffffffffffffffffffffffffffffffffff161415610921576040517f08c379a0000000000000000000000000000000000000000000000000000000008152600401610918906126f8565b60405180910390fd5b600360008373ffffffffffffffffffffffffffffffffffffffff1673ffffffffffffffffffffffffffffffffffffffff168152602001908152602001600020549050919050565b61097061134a565b61097a60006113c8565b565b60007f0000000000000000000000000000000000000000000000000000000000000000905090565b6000600660009054906101000a900473ffffffffffffffffffffffffffffffffffffffff16905090565b6060600180546109dd90612432565b80601f0160208091040260200160405190810160405280929190818152602001828054610a0990612432565b8015610a565780601f10610a2b57610100808354040283529160200191610a56565b820191906000526020600020905b815481529060010190602001808311610a3957829003601f168201915b5050505050905090565b600960009054906101000a900473ffffffffffffffffffffffffffffffffffffffff1673ffffffffffffffffffffffffffffffffffffffff16610aa1610ebd565b73ffffffffffffffffffffffffffffffffffffffff1614610af7576040517f08c379a0000000000000000000000000000000000000000000000000000000008152600401610aee90612764565b60405180910390fd5b7f00000000000000000000000000000000000000000000000000000000000000008110610b59576040517f08c379a0000000000000000000000000000000000000000000000000000000008152600401610b50906127f6565b60405180910390fd5b610b63828261148e565b5050565b610b79610b72610ebd565b83836114ac565b5050565b610b8561134a565b80600960006101000a81548173ffffffffffffffffffffffffffffffffffffffff021916908373ffffffffffffffffffffffffffffffffffffffff16021790555050565b60088054610bd690612432565b80601f0160208091040260200160405190810160405280929190818152602001828054610c0290612432565b8015610c4f5780601f10610c2457610100808354040283529160200191610c4f565b820191906000526020600020905b815481529060010190602001808311610c3257829003601f168201915b505050505081565b610c68610c62610ebd565b83610f7e565b610ca7576040517f08c379a0000000000000000000000000000000000000000000000000000000008152600401610c9e906125fa565b60405180910390fd5b610cb384848484611619565b50505050565b60606007610cc683611675565b6008604051602001610cda939291906128e6565b6040516020818303038152906040529050919050565b6000600560008473ffffffffffffffffffffffffffffffffffffffff1673ffffffffffffffffffffffffffffffffffffffff16815260200190815260200160002060008373ffffffffffffffffffffffffffffffffffffffff1673ffffffffffffffffffffffffffffffffffffffff16815260200190815260200160002060009054906101000a900460ff16905092915050565b610d8c61134a565b600073ffffffffffffffffffffffffffffffffffffffff168173ffffffffffffffffffffffffffffffffffffffff161415610dfc576040517f08c379a0000000000000000000000000000000000000000000000000000000008152600401610df390612989565b60405180910390fd5b610e05816113c8565b50565b60007f01ffc9a7000000000000000000000000000000000000000000000000000000007bffffffffffffffffffffffffffffffffffffffffffffffffffffffff1916827bffffffffffffffffffffffffffffffffffffffffffffffffffffffff1916149050919050565b610e7b8161174d565b610eba576040517f08c379a0000000000000000000000000000000000000000000000000000000008152600401610eb190612666565b60405180910390fd5b50565b600033905090565b816004600083815260200190815260200160002060006101000a81548173ffffffffffffffffffffffffffffffffffffffff021916908373ffffffffffffffffffffffffffffffffffffffff160217905550808273ffffffffffffffffffffffffffffffffffffffff16610f388361079b565b73ffffffffffffffffffffffffffffffffffffffff167f8c5be1e5ebec7d5bd14f71427d1e84f3dd0314c0f7b2291e5b200ac8c7c3b92560405160405180910390a45050565b600080610f8a8361079b565b90508073ffffffffffffffffffffffffffffffffffffffff168473ffffffffffffffffffffffffffffffffffffffff161480610fcc5750610fcb8185610cf0565b5b8061100a57508373ffffffffffffffffffffffffffffffffffffffff16610ff2846105bd565b73ffffffffffffffffffffffffffffffffffffffff16145b91505092915050565b8273ffffffffffffffffffffffffffffffffffffffff166110338261079b565b73ffffffffffffffffffffffffffffffffffffffff1614611089576040517f08c379a000000000000000000000000000000000000000000000000000000000815260040161108090612a1b565b60405180910390fd5b600073ffffffffffffffffffffffffffffffffffffffff168273ffffffffffffffffffffffffffffffffffffffff1614156110f9576040517f08c379a00000000000000000000000000000000000000000000000000000000081526004016110f090612aad565b60405180910390fd5b611106838383600161178e565b8273ffffffffffffffffffffffffffffffffffffffff166111268261079b565b73ffffffffffffffffffffffffffffffffffffffff161461117c576040517f08c379a000000000000000000000000000000000000000000000000000000000815260040161117390612a1b565b60405180910390fd5b6004600082815260200190815260200160002060006101000a81549073ffffffffffffffffffffffffffffffffffffffff02191690556001600360008573ffffffffffffffffffffffffffffffffffffffff1673ffffffffffffffffffffffffffffffffffffffff168152602001908152602001600020600082825403925050819055506001600360008473ffffffffffffffffffffffffffffffffffffffff1673ffffffffffffffffffffffffffffffffffffffff16815260200190815260200160002060008282540192505081905550816002600083815260200190815260200160002060006101000a81548173ffffffffffffffffffffffffffffffffffffffff021916908373ffffffffffffffffffffffffffffffffffffffff160217905550808273ffffffffffffffffffffffffffffffffffffffff168473ffffffffffffffffffffffffffffffffffffffff167fddf252ad1be2c89b69c2b068fc378daa952ba7f163c4a11628f55a4df523b3ef60405160405180910390a461130883838360016118b4565b505050565b60006002600083815260200190815260200160002060009054906101000a900473ffffffffffffffffffffffffffffffffffffffff169050919050565b611352610ebd565b73ffffffffffffffffffffffffffffffffffffffff166113706109a4565b73ffffffffffffffffffffffffffffffffffffffff16146113c6576040517f08c379a00000000000000000000000000000000000000000000000000000000081526004016113bd90612b19565b60405180910390fd5b565b6000600660009054906101000a900473ffffffffffffffffffffffffffffffffffffffff16905081600660006101000a81548173ffffffffffffffffffffffffffffffffffffffff021916908373ffffffffffffffffffffffffffffffffffffffff1602179055508173ffffffffffffffffffffffffffffffffffffffff168173ffffffffffffffffffffffffffffffffffffffff167f8be0079c531659141344cd1fd0a4f28419497f9722a3daafe3b4186f6b6457e060405160405180910390a35050565b6114a88282604051806020016040528060008152506118ba565b5050565b8173ffffffffffffffffffffffffffffffffffffffff168373ffffffffffffffffffffffffffffffffffffffff16141561151b576040517f08c379a000000000000000000000000000000000000000000000000000000000815260040161151290612b85565b60405180910390fd5b80600560008573ffffffffffffffffffffffffffffffffffffffff1673ffffffffffffffffffffffffffffffffffffffff16815260200190815260200160002060008473ffffffffffffffffffffffffffffffffffffffff1673ffffffffffffffffffffffffffffffffffffffff16815260200190815260200160002060006101000a81548160ff0219169083151502179055508173ffffffffffffffffffffffffffffffffffffffff168373ffffffffffffffffffffffffffffffffffffffff167f17307eab39ab6107e8899845ad3d59bd9653f200f220920489ca2b5937696c318360405161160c9190611ef4565b60405180910390a3505050565b611624848484611013565b61163084848484611915565b61166f576040517f08c379a000000000000000000000000000000000000000000000000000000000815260040161166690612c17565b60405180910390fd5b50505050565b60606000600161168484611aac565b01905060008167ffffffffffffffff8111156116a3576116a2612215565b5b6040519080825280601f01601f1916602001820160405280156116d55781602001600182028036833780820191505090505b509050600082602001820190505b600115611742578080600190039150507f3031323334353637383961626364656600000000000000000000000000000000600a86061a8153600a858161172c5761172b612c37565b5b049450600085141561173d57611742565b6116e3565b819350505050919050565b60008073ffffffffffffffffffffffffffffffffffffffff1661176f8361130d565b73ffffffffffffffffffffffffffffffffffffffff1614159050919050565b60018111156118ae57600073ffffffffffffffffffffffffffffffffffffffff168473ffffffffffffffffffffffffffffffffffffffff16146118225780600360008673ffffffffffffffffffffffffffffffffffffffff1673ffffffffffffffffffffffffffffffffffffffff168152602001908152602001600020600082825461181a9190612c95565b925050819055505b600073ffffffffffffffffffffffffffffffffffffffff168373ffffffffffffffffffffffffffffffffffffffff16146118ad5780600360008573ffffffffffffffffffffffffffffffffffffffff1673ffffffffffffffffffffffffffffffffffffffff16815260200190815260200160002060008282546118a59190612cc9565b925050819055505b5b50505050565b50505050565b6118c48383611bff565b6118d16000848484611915565b611910576040517f08c379a000000000000000000000000000000000000000000000000000000000815260040161190790612c17565b60405180910390fd5b505050565b60006119368473ffffffffffffffffffffffffffffffffffffffff16611e1d565b15611a9f578373ffffffffffffffffffffffffffffffffffffffff1663150b7a0261195f610ebd565b8786866040518563ffffffff1660e01b81526004016119819493929190612d74565b602060405180830381600087803b15801561199b57600080fd5b505af19250505080156119cc57506040513d601f19601f820116820180604052508101906119c99190612dd5565b60015b611a4f573d80600081146119fc576040519150601f19603f3d011682016040523d82523d6000602084013e611a01565b606091505b50600081511415611a47576040517f08c379a0000000000000000000000000000000000000000000000000000000008152600401611a3e90612c17565b60405180910390fd5b805181602001fd5b63150b7a0260e01b7bffffffffffffffffffffffffffffffffffffffffffffffffffffffff1916817bffffffffffffffffffffffffffffffffffffffffffffffffffffffff191614915050611aa4565b600190505b949350505050565b600080600090507a184f03e93ff9f4daa797ed6e38ed64bf6a1f0100000000000000008310611b0a577a184f03e93ff9f4daa797ed6e38ed64bf6a1f0100000000000000008381611b0057611aff612c37565b5b0492506040810190505b6d04ee2d6d415b85acef81000000008310611b47576d04ee2d6d415b85acef81000000008381611b3d57611b3c612c37565b5b0492506020810190505b662386f26fc100008310611b7657662386f26fc100008381611b6c57611b6b612c37565b5b0492506010810190505b6305f5e1008310611b9f576305f5e1008381611b9557611b94612c37565b5b0492506008810190505b6127108310611bc4576127108381611bba57611bb9612c37565b5b0492506004810190505b60648310611be75760648381611bdd57611bdc612c37565b5b0492506002810190505b600a8310611bf6576001810190505b80915050919050565b600073ffffffffffffffffffffffffffffffffffffffff168273ffffffffffffffffffffffffffffffffffffffff161415611c6f576040517f08c379a0000000000000000000000000000000000000000000000000000000008152600401611c6690612e4e565b60405180910390fd5b611c788161174d565b15611cb8576040517f08c379a0000000000000000000000000000000000000000000000000000000008152600401611caf90612eba565b60405180910390fd5b611cc660008383600161178e565b611ccf8161174d565b15611d0f576040517f08c379a0000000000000000000000000000000000000000000000000000000008152600401611d0690612eba565b60405180910390fd5b6001600360008473ffffffffffffffffffffffffffffffffffffffff1673ffffffffffffffffffffffffffffffffffffffff16815260200190815260200160002060008282540192505081905550816002600083815260200190815260200160002060006101000a81548173ffffffffffffffffffffffffffffffffffffffff021916908373ffffffffffffffffffffffffffffffffffffffff160217905550808273ffffffffffffffffffffffffffffffffffffffff16600073ffffffffffffffffffffffffffffffffffffffff167fddf252ad1be2c89b69c2b068fc378daa952ba7f163c4a11628f55a4df523b3ef60405160405180910390a4611e196000838360016118b4565b5050565b6000808273ffffffffffffffffffffffffffffffffffffffff163b119050919050565b6000604051905090565b600080fd5b600080fd5b60007fffffffff0000000000000000000000000000000000000000000000000000000082169050919050565b611e8981611e54565b8114611e9457600080fd5b50565b600081359050611ea681611e80565b92915050565b600060208284031215611ec257611ec1611e4a565b5b6000611ed084828501611e97565b91505092915050565b60008115159050919050565b611eee81611ed9565b82525050565b6000602082019050611f096000830184611ee5565b92915050565b600081519050919050565b600082825260208201905092915050565b60005b83811015611f49578082015181840152602081019050611f2e565b83811115611f58576000848401525b50505050565b6000601f19601f8301169050919050565b6000611f7a82611f0f565b611f848185611f1a565b9350611f94818560208601611f2b565b611f9d81611f5e565b840191505092915050565b60006020820190508181036000830152611fc28184611f6f565b905092915050565b600073ffffffffffffffffffffffffffffffffffffffff82169050919050565b6000611ff582611fca565b9050919050565b61200581611fea565b82525050565b60006020820190506120206000830184611ffc565b92915050565b6000819050919050565b61203981612026565b811461204457600080fd5b50565b60008135905061205681612030565b92915050565b60006020828403121561207257612071611e4a565b5b600061208084828501612047565b91505092915050565b61209281611fea565b811461209d57600080fd5b50565b6000813590506120af81612089565b92915050565b600080604083850312156120cc576120cb611e4a565b5b60006120da858286016120a0565b92505060206120eb85828601612047565b9150509250929050565b60008060006060848603121561210e5761210d611e4a565b5b600061211c868287016120a0565b935050602061212d868287016120a0565b925050604061213e86828701612047565b9150509250925092565b60006020828403121561215e5761215d611e4a565b5b600061216c848285016120a0565b91505092915050565b61217e81612026565b82525050565b60006020820190506121996000830184612175565b92915050565b6121a881611ed9565b81146121b357600080fd5b50565b6000813590506121c58161219f565b92915050565b600080604083850312156121e2576121e1611e4a565b5b60006121f0858286016120a0565b9250506020612201858286016121b6565b9150509250929050565b600080fd5b600080fd5b7f4e487b7100000000000000000000000000000000000000000000000000000000600052604160045260246000fd5b61224d82611f5e565b810181811067ffffffffffffffff8211171561226c5761226b612215565b5b80604052505050565b600061227f611e40565b905061228b8282612244565b919050565b600067ffffffffffffffff8211156122ab576122aa612215565b5b6122b482611f5e565b9050602081019050919050565b82818337600083830152505050565b60006122e36122de84612290565b612275565b9050828152602081018484840111156122ff576122fe612210565b5b61230a8482856122c1565b509392505050565b600082601f8301126123275761232661220b565b5b81356123378482602086016122d0565b91505092915050565b6000806000806080858703121561235a57612359611e4a565b5b6000612368878288016120a0565b9450506020612379878288016120a0565b935050604061238a87828801612047565b925050606085013567ffffffffffffffff8111156123ab576123aa611e4f565b5b6123b787828801612312565b91505092959194509250565b600080604083850312156123da576123d9611e4a565b5b60006123e8858286016120a0565b92505060206123f9858286016120a0565b9150509250929050565b7f4e487b7100000000000000000000000000000000000000000000000000000000600052602260045260246000fd5b6000600282049050600182168061244a57607f821691505b6020821081141561245e5761245d612403565b5b50919050565b7f4552433732313a20617070726f76616c20746f2063757272656e74206f776e6560008201527f7200000000000000000000000000000000000000000000000000000000000000602082015250565b60006124c0602183611f1a565b91506124cb82612464565b604082019050919050565b600060208201905081810360008301526124ef816124b3565b9050919050565b7f4552433732313a20617070726f76652063616c6c6572206973206e6f7420746f60008201527f6b656e206f776e6572206f7220617070726f76656420666f7220616c6c000000602082015250565b6000612552603d83611f1a565b915061255d826124f6565b604082019050919050565b6000602082019050818103600083015261258181612545565b9050919050565b7f4552433732313a2063616c6c6572206973206e6f7420746f6b656e206f776e6560008201527f72206f7220617070726f76656400000000000000000000000000000000000000602082015250565b60006125e4602d83611f1a565b91506125ef82612588565b604082019050919050565b60006020820190508181036000830152612613816125d7565b9050919050565b7f4552433732313a20696e76616c696420746f6b656e2049440000000000000000600082015250565b6000612650601883611f1a565b915061265b8261261a565b602082019050919050565b6000602082019050818103600083015261267f81612643565b9050919050565b7f4552433732313a2061646472657373207a65726f206973206e6f74206120766160008201527f6c6964206f776e65720000000000000000000000000000000000000000000000602082015250565b60006126e2602983611f1a565b91506126ed82612686565b604082019050919050565b60006020820190508181036000830152612711816126d5565b9050919050565b7f6e6f74206d696e74657200000000000000000000000000000000000000000000600082015250565b600061274e600a83611f1a565b915061275982612718565b602082019050919050565b6000602082019050818103600083015261277d81612741565b9050919050565b7f746f6b656e496420746f6f20686967682c206d757374206265203c206e466f6c60008201527f696f730000000000000000000000000000000000000000000000000000000000602082015250565b60006127e0602383611f1a565b91506127eb82612784565b604082019050919050565b6000602082019050818103600083015261280f816127d3565b9050919050565b600081905092915050565b60008190508160005260206000209050919050565b6000815461284381612432565b61284d8186612816565b945060018216600081146128685760018114612879576128ac565b60ff198316865281860193506128ac565b61288285612821565b60005b838110156128a457815481890152600182019150602081019050612885565b838801955050505b50505092915050565b60006128c082611f0f565b6128ca8185612816565b93506128da818560208601611f2b565b80840191505092915050565b60006128f28286612836565b91506128fe82856128b5565b915061290a8284612836565b9150819050949350505050565b7f4f776e61626c653a206e6577206f776e657220697320746865207a65726f206160008201527f6464726573730000000000000000000000000000000000000000000000000000602082015250565b6000612973602683611f1a565b915061297e82612917565b604082019050919050565b600060208201905081810360008301526129a281612966565b9050919050565b7f4552433732313a207472616e736665722066726f6d20696e636f72726563742060008201527f6f776e6572000000000000000000000000000000000000000000000000000000602082015250565b6000612a05602583611f1a565b9150612a10826129a9565b604082019050919050565b60006020820190508181036000830152612a34816129f8565b9050919050565b7f4552433732313a207472616e7366657220746f20746865207a65726f2061646460008201527f7265737300000000000000000000000000000000000000000000000000000000602082015250565b6000612a97602483611f1a565b9150612aa282612a3b565b604082019050919050565b60006020820190508181036000830152612ac681612a8a565b9050919050565b7f4f776e61626c653a2063616c6c6572206973206e6f7420746865206f776e6572600082015250565b6000612b03602083611f1a565b9150612b0e82612acd565b602082019050919050565b60006020820190508181036000830152612b3281612af6565b9050919050565b7f4552433732313a20617070726f766520746f2063616c6c657200000000000000600082015250565b6000612b6f601983611f1a565b9150612b7a82612b39565b602082019050919050565b60006020820190508181036000830152612b9e81612b62565b9050919050565b7f4552433732313a207472616e7366657220746f206e6f6e20455243373231526560008201527f63656976657220696d706c656d656e7465720000000000000000000000000000602082015250565b6000612c01603283611f1a565b9150612c0c82612ba5565b604082019050919050565b60006020820190508181036000830152612c3081612bf4565b9050919050565b7f4e487b7100000000000000000000000000000000000000000000000000000000600052601260045260246000fd5b7f4e487b7100000000000000000000000000000000000000000000000000000000600052601160045260246000fd5b6000612ca082612026565b9150612cab83612026565b925082821015612cbe57612cbd612c66565b5b828203905092915050565b6000612cd482612026565b9150612cdf83612026565b9250827fffffffffffffffffffffffffffffffffffffffffffffffffffffffffffffffff03821115612d1457612d13612c66565b5b828201905092915050565b600081519050919050565b600082825260208201905092915050565b6000612d4682612d1f565b612d508185612d2a565b9350612d60818560208601611f2b565b612d6981611f5e565b840191505092915050565b6000608082019050612d896000830187611ffc565b612d966020830186611ffc565b612da36040830185612175565b8181036060830152612db58184612d3b565b905095945050505050565b600081519050612dcf81611e80565b92915050565b600060208284031215612deb57612dea611e4a565b5b6000612df984828501612dc0565b91505092915050565b7f4552433732313a206d696e7420746f20746865207a65726f2061646472657373600082015250565b6000612e38602083611f1a565b9150612e4382612e02565b602082019050919050565b60006020820190508181036000830152612e6781612e2b565b9050919050565b7f4552433732313a20746f6b656e20616c7265616479206d696e74656400000000600082015250565b6000612ea4601c83611f1a565b9150612eaf82612e6e565b602082019050919050565b60006020820190508181036000830152612ed381612e97565b905091905056fea26469706673582212204d76aa5ef3bb3a81335251b00d85bd9959715f42f37e0c6eb4efbeb0f129c15564736f6c63430008090033697066733a2f2f62616679626569673575766163727865673463696a656f6735356a6d61626f7075776c7673337279756a3334627272766a7a7836787069753435752f60806040523480156200001157600080fd5b50604051620018b1380380620018b1833981810160405281019062000037919062000415565b816000806101000a81548173ffffffffffffffffffffffffffffffffffffffff021916908373ffffffffffffffffffffffffffffffffffffffff1602179055508060018190555060008054906101000a900473ffffffffffffffffffffffffffffffffffffffff1673ffffffffffffffffffffffffffffffffffffffff16638c0fd0016040518163ffffffff1660e01b815260040160206040518083038186803b158015620000e557600080fd5b505afa158015620000fa573d6000803e3d6000fd5b505050506040513d601f19601f8201168201806040525081019062000120919062000490565b6002819055506000835190506000600154826200013e9190620004f1565b426200014b919062000552565b90505b6000821115620001e15781806200016590620005af565b92505060015481620001789190620005de565b9050806003600087858151811062000195576200019462000619565b5b602002602001015173ffffffffffffffffffffffffffffffffffffffff1673ffffffffffffffffffffffffffffffffffffffff168152602001908152602001600020819055506200014e565b505050505062000648565b6000604051905090565b600080fd5b600080fd5b600080fd5b6000601f19601f8301169050919050565b7f4e487b7100000000000000000000000000000000000000000000000000000000600052604160045260246000fd5b620002508262000205565b810181811067ffffffffffffffff8211171562000272576200027162000216565b5b80604052505050565b600062000287620001ec565b905062000295828262000245565b919050565b600067ffffffffffffffff821115620002b857620002b762000216565b5b602082029050602081019050919050565b600080fd5b600073ffffffffffffffffffffffffffffffffffffffff82169050919050565b6000620002fb82620002ce565b9050919050565b6200030d81620002ee565b81146200031957600080fd5b50565b6000815190506200032d8162000302565b92915050565b60006200034a62000344846200029a565b6200027b565b9050808382526020820190506020840283018581111562000370576200036f620002c9565b5b835b818110156200039d57806200038888826200031c565b84526020840193505060208101905062000372565b5050509392505050565b600082601f830112620003bf57620003be62000200565b5b8151620003d184826020860162000333565b91505092915050565b6000819050919050565b620003ef81620003da565b8114620003fb57600080fd5b50565b6000815190506200040f81620003e4565b92915050565b600080600060608486031215620004315762000430620001f6565b5b600084015167ffffffffffffffff811115620004525762000451620001fb565b5b6200046086828701620003a7565b935050602062000473868287016200031c565b92505060406200048686828701620003fe565b9150509250925092565b600060208284031215620004a957620004a8620001f6565b5b6000620004b984828501620003fe565b91505092915050565b7f4e487b7100000000000000000000000000000000000000000000000000000000600052601160045260246000fd5b6000620004fe82620003da565b91506200050b83620003da565b9250817fffffffffffffffffffffffffffffffffffffffffffffffffffffffffffffffff0483118215151615620005475762000546620004c2565b5b828202905092915050565b60006200055f82620003da565b91506200056c83620003da565b9250827fffffffffffffffffffffffffffffffffffffffffffffffffffffffffffffffff03821115620005a457620005a3620004c2565b5b828201905092915050565b6000620005bc82620003da565b91506000821415620005d357620005d2620004c2565b5b600182039050919050565b6000620005eb82620003da565b9150620005f883620003da565b9250828210156200060e576200060d620004c2565b5b828203905092915050565b7f4e487b7100000000000000000000000000000000000000000000000000000000600052603260045260246000fd5b61125980620006586000396000f3fe608060405234801561001057600080fd5b50600436106100935760003560e01c806389fde7af1161006657806389fde7af146101345780638c0fd00114610152578063a0712d6814610170578063c41a360a1461018c578063d56d229d146101bc57610093565b806316c1274614610098578063225d29a1146100b6578063300a63bc146100e657806333c41a9014610104575b600080fd5b6100a06101da565b6040516100ad9190610a6e565b60405180910390f35b6100d060048036038101906100cb9190610ad0565b6102a9565b6040516100dd9190610b16565b60405180910390f35b6100ee6102c1565b6040516100fb9190610b16565b60405180910390f35b61011e60048036038101906101199190610b5d565b6102c7565b60405161012b9190610ba5565b60405180910390f35b61013c6103b7565b6040516101499190610d1b565b60405180910390f35b61015a610567565b6040516101679190610b16565b60405180910390f35b61018a60048036038101906101859190610b5d565b61056d565b005b6101a660048036038101906101a19190610b5d565b61086b565b6040516101b39190610d4c565b60405180910390f35b6101c461095a565b6040516101d19190610dc6565b60405180910390f35b6060600060025467ffffffffffffffff8111156101fa576101f9610de1565b5b6040519080825280602002602001820160405280156102285781602001602082028036833780820191505090505b50905060005b6002548110156102a1576102418161086b565b82828151811061025457610253610e10565b5b602002602001019073ffffffffffffffffffffffffffffffffffffffff16908173ffffffffffffffffffffffffffffffffffffffff1681525050808061029990610e6e565b91505061022e565b508091505090565b60036020528060005260406000206000915090505481565b60015481565b60008060009054906101000a900473ffffffffffffffffffffffffffffffffffffffff1673ffffffffffffffffffffffffffffffffffffffff16636352211e836040518263ffffffff1660e01b81526004016103239190610b16565b60206040518083038186803b15801561033b57600080fd5b505afa92505050801561036c57506040513d601f19601f820116820180604052508101906103699190610ecc565b60015b6103ac573d806000811461039c576040519150601f19603f3d011682016040523d82523d6000602084013e6103a1565b606091505b5060009150506103b2565b60019150505b919050565b6060600060025467ffffffffffffffff8111156103d7576103d6610de1565b5b60405190808252806020026020018201604052801561040a57816020015b60608152602001906001900390816103f55790505b50905060005b60025481101561055f5760008054906101000a900473ffffffffffffffffffffffffffffffffffffffff1673ffffffffffffffffffffffffffffffffffffffff1663c87b56dd826040518263ffffffff1660e01b81526004016104739190610b16565b60006040518083038186803b15801561048b57600080fd5b505afa9250505080156104c157506040513d6000823e3d601f19601f820116820180604052508101906104be9190610ff0565b60015b61052b573d80600081146104f1576040519150601f19603f3d011682016040523d82523d6000602084013e6104f6565b606091505b506040518060200160405280600081525083838151811061051a57610519610e10565b5b60200260200101819052505061054c565b8083838151811061053f5761053e610e10565b5b6020026020010181905250505b808061055790610e6e565b915050610410565b508091505090565b60025481565b60008054906101000a900473ffffffffffffffffffffffffffffffffffffffff1673ffffffffffffffffffffffffffffffffffffffff16636352211e826040518263ffffffff1660e01b81526004016105c69190610b16565b60206040518083038186803b1580156105de57600080fd5b505afa92505050801561060f57506040513d601f19601f8201168201806040525081019061060c9190610ecc565b60015b61064b573d806000811461063f576040519150601f19603f3d011682016040523d82523d6000602084013e610644565b606091505b5050610686565b6040517f08c379a000000000000000000000000000000000000000000000000000000000815260040161067d90611096565b60405180910390fd5b6000600360003373ffffffffffffffffffffffffffffffffffffffff1673ffffffffffffffffffffffffffffffffffffffff168152602001908152602001600020549050600081141561070e576040517f08c379a000000000000000000000000000000000000000000000000000000000815260040161070590611102565b60405180910390fd5b6001811415610752576040517f08c379a00000000000000000000000000000000000000000000000000000000081526004016107499061116e565b60405180910390fd5b42811115610795576040517f08c379a000000000000000000000000000000000000000000000000000000000815260040161078c906111da565b60405180910390fd5b6001600360003373ffffffffffffffffffffffffffffffffffffffff1673ffffffffffffffffffffffffffffffffffffffff1681526020019081526020016000208190555060008054906101000a900473ffffffffffffffffffffffffffffffffffffffff1673ffffffffffffffffffffffffffffffffffffffff1663a144819433846040518363ffffffff1660e01b81526004016108359291906111fa565b600060405180830381600087803b15801561084f57600080fd5b505af1158015610863573d6000803e3d6000fd5b505050505050565b60008060009054906101000a900473ffffffffffffffffffffffffffffffffffffffff1673ffffffffffffffffffffffffffffffffffffffff16636352211e836040518263ffffffff1660e01b81526004016108c79190610b16565b60206040518083038186803b1580156108df57600080fd5b505afa92505050801561091057506040513d601f19601f8201168201806040525081019061090d9190610ecc565b60015b610950573d8060008114610940576040519150601f19603f3d011682016040523d82523d6000602084013e610945565b606091505b506000915050610955565b809150505b919050565b60008054906101000a900473ffffffffffffffffffffffffffffffffffffffff1681565b600081519050919050565b600082825260208201905092915050565b6000819050602082019050919050565b600073ffffffffffffffffffffffffffffffffffffffff82169050919050565b60006109d5826109aa565b9050919050565b6109e5816109ca565b82525050565b60006109f783836109dc565b60208301905092915050565b6000602082019050919050565b6000610a1b8261097e565b610a258185610989565b9350610a308361099a565b8060005b83811015610a61578151610a4888826109eb565b9750610a5383610a03565b925050600181019050610a34565b5085935050505092915050565b60006020820190508181036000830152610a888184610a10565b905092915050565b6000604051905090565b600080fd5b600080fd5b610aad816109ca565b8114610ab857600080fd5b50565b600081359050610aca81610aa4565b92915050565b600060208284031215610ae657610ae5610a9a565b5b6000610af484828501610abb565b91505092915050565b6000819050919050565b610b1081610afd565b82525050565b6000602082019050610b2b6000830184610b07565b92915050565b610b3a81610afd565b8114610b4557600080fd5b50565b600081359050610b5781610b31565b92915050565b600060208284031215610b7357610b72610a9a565b5b6000610b8184828501610b48565b91505092915050565b60008115159050919050565b610b9f81610b8a565b82525050565b6000602082019050610bba6000830184610b96565b92915050565b600081519050919050565b600082825260208201905092915050565b6000819050602082019050919050565b600081519050919050565b600082825260208201905092915050565b60005b83811015610c26578082015181840152602081019050610c0b565b83811115610c35576000848401525b50505050565b6000601f19601f8301169050919050565b6000610c5782610bec565b610c618185610bf7565b9350610c71818560208601610c08565b610c7a81610c3b565b840191505092915050565b6000610c918383610c4c565b905092915050565b6000602082019050919050565b6000610cb182610bc0565b610cbb8185610bcb565b935083602082028501610ccd85610bdc565b8060005b85811015610d095784840389528151610cea8582610c85565b9450610cf583610c99565b925060208a01995050600181019050610cd1565b50829750879550505050505092915050565b60006020820190508181036000830152610d358184610ca6565b905092915050565b610d46816109ca565b82525050565b6000602082019050610d616000830184610d3d565b92915050565b6000819050919050565b6000610d8c610d87610d82846109aa565b610d67565b6109aa565b9050919050565b6000610d9e82610d71565b9050919050565b6000610db082610d93565b9050919050565b610dc081610da5565b82525050565b6000602082019050610ddb6000830184610db7565b92915050565b7f4e487b7100000000000000000000000000000000000000000000000000000000600052604160045260246000fd5b7f4e487b7100000000000000000000000000000000000000000000000000000000600052603260045260246000fd5b7f4e487b7100000000000000000000000000000000000000000000000000000000600052601160045260246000fd5b6000610e7982610afd565b91507fffffffffffffffffffffffffffffffffffffffffffffffffffffffffffffffff821415610eac57610eab610e3f565b5b600182019050919050565b600081519050610ec681610aa4565b92915050565b600060208284031215610ee257610ee1610a9a565b5b6000610ef084828501610eb7565b91505092915050565b600080fd5b600080fd5b610f0c82610c3b565b810181811067ffffffffffffffff82111715610f2b57610f2a610de1565b5b80604052505050565b6000610f3e610a90565b9050610f4a8282610f03565b919050565b600067ffffffffffffffff821115610f6a57610f69610de1565b5b610f7382610c3b565b9050602081019050919050565b6000610f93610f8e84610f4f565b610f34565b905082815260208101848484011115610faf57610fae610efe565b5b610fba848285610c08565b509392505050565b600082601f830112610fd757610fd6610ef9565b5b8151610fe7848260208601610f80565b91505092915050565b60006020828403121561100657611005610a9a565b5b600082015167ffffffffffffffff81111561102457611023610a9f565b5b61103084828501610fc2565b91505092915050565b600082825260208201905092915050565b7f616c7265616479206d696e746564000000000000000000000000000000000000600082015250565b6000611080600e83611039565b915061108b8261104a565b602082019050919050565b600060208201905081810360008301526110af81611073565b9050919050565b7f6e6f742077686974656c69737465640000000000000000000000000000000000600082015250565b60006110ec600f83611039565b91506110f7826110b6565b602082019050919050565b6000602082019050818103600083015261111b816110df565b9050919050565b7f63616e206f6e6c79206d696e7420310000000000000000000000000000000000600082015250565b6000611158600f83611039565b915061116382611122565b602082019050919050565b600060208201905081810360008301526111878161114b565b9050919050565b7f6e6f742079657420756e6c6f636b656400000000000000000000000000000000600082015250565b60006111c4601083611039565b91506111cf8261118e565b602082019050919050565b600060208201905081810360008301526111f3816111b7565b9050919050565b600060408201905061120f6000830185610d3d565b61121c6020830184610b07565b939250505056fea26469706673582212206280af32b70666a061ffc7a54a746a1ee8a3001c0e53fca84d5869fa376246ab64736f6c63430008090033a2646970667358221220bbbe59783b332013915f9501b8fa48743ccd5bff837f6e8ebce3e73700b9deac64736f6c63430008090033",
  "linkReferences": {},
  "deployedLinkReferences": {}
}