{
    "_format": "hh-sol-artifact-1",
    "contractName": "WCFactory",
    "sourceName": "contracts/WCFactory.sol",
    "abi": [
        {
            "anonymous": false,
            "inputs": [
                {
                    "indexed": false,
                    "internalType": "address",
                    "name": "curNFTaddress",
                    "type": "address"
                },
                {
                    "indexed": false,
                    "internalType": "address",
                    "name": "curWCCaddress",
                    "type": "address"
                }
            ],
            "name": "Created",
            "type": "event"
        },
        {
            "anonymous": false,
            "inputs": [
                {
                    "indexed": false,
                    "internalType": "address",
                    "name": "createdNFTaddress",
                    "type": "address"
                }
            ],
            "name": "CreatedNFT",
            "type": "event"
        },
        {
            "inputs": [],
            "name": "curNFTaddress",
            "outputs": [
                {
                    "internalType": "address",
                    "name": "",
                    "type": "address"
                }
            ],
            "stateMutability": "view",
            "type": "function"
        },
        {
            "inputs": [],
            "name": "curWCCaddress",
            "outputs": [
                {
                    "internalType": "address",
                    "name": "",
                    "type": "address"
                }
            ],
            "stateMutability": "view",
            "type": "function"
        },
        {
            "inputs": [],
            "name": "makeNewERC721",
            "outputs": [],
            "stateMutability": "nonpayable",
            "type": "function"
        },
        {
            "inputs": [
                {
                    "internalType": "address[]",
                    "name": "users",
                    "type": "address[]"
                }
            ],
            "name": "makeNewFullScenario",
            "outputs": [],
            "stateMutability": "nonpayable",
            "type": "function"
        },
        {
            "inputs": [
                {
                    "internalType": "address[]",
                    "name": "users",
                    "type": "address[]"
                },
                {
                    "internalType": "address",
                    "name": "nftContractAddr",
                    "type": "address"
                },
                {
                    "internalType": "uint256",
                    "name": "intervalBtwUsers",
                    "type": "uint256"
                }
            ],
            "name": "makeNewWCC",
            "outputs": [],
            "stateMutability": "nonpayable",
            "type": "function"
        }
    ],
    "bytecode": "0x608060405234801561001057600080fd5b50615685806100206000396000f3fe60806040523480156200001157600080fd5b50600436106200005e5760003560e01c80632b4a01a414620000635780634b92585d14620000835780639aa1a6e114620000a5578063a129fdf014620000c7578063f7f88f7914620000d3575b600080fd5b6200008160048036038101906200007b91906200083d565b620000f3565b005b6200008d620002d7565b6040516200009c91906200089f565b60405180910390f35b620000af620002fd565b604051620000be91906200089f565b60405180910390f35b620000d162000321565b005b620000f16004803603810190620000eb9190620008f7565b6200038d565b005b6000604051620001039062000633565b604051809103906000f08015801562000120573d6000803e3d6000fd5b50905060008282603c604051620001379062000641565b620001459392919062000a8d565b604051809103906000f08015801562000162573d6000803e3d6000fd5b5090508173ffffffffffffffffffffffffffffffffffffffff166393ac3638826040518263ffffffff1660e01b8152600401620001a091906200089f565b600060405180830381600087803b158015620001bb57600080fd5b505af1158015620001d0573d6000803e3d6000fd5b50505050816000806101000a81548173ffffffffffffffffffffffffffffffffffffffff021916908373ffffffffffffffffffffffffffffffffffffffff16021790555080600160006101000a81548173ffffffffffffffffffffffffffffffffffffffff021916908373ffffffffffffffffffffffffffffffffffffffff1602179055507f587ece4cd19692c5be1a4184503d607d45542d2aca0698c0068f52e09ccb541c60008054906101000a900473ffffffffffffffffffffffffffffffffffffffff16600160009054906101000a900473ffffffffffffffffffffffffffffffffffffffff16604051620002ca92919062000ad1565b60405180910390a1505050565b600160009054906101000a900473ffffffffffffffffffffffffffffffffffffffff1681565b60008054906101000a900473ffffffffffffffffffffffffffffffffffffffff1681565b6000604051620003319062000633565b604051809103906000f0801580156200034e573d6000803e3d6000fd5b5090507f44453fd1b4b804cdcef4c8037de7b08e98c56c619b6787b6f58c1b896c6a175a816040516200038291906200089f565b60405180910390a150565b6000838383604051620003a09062000641565b620003ae9392919062000b0f565b604051809103906000f080158015620003cb573d6000803e3d6000fd5b5090503073ffffffffffffffffffffffffffffffffffffffff168373ffffffffffffffffffffffffffffffffffffffff16638da5cb5b6040518163ffffffff1660e01b815260040160206040518083038186803b1580156200042c57600080fd5b505afa15801562000441573d6000803e3d6000fd5b505050506040513d601f19601f8201168201806040525081019062000467919062000b6a565b73ffffffffffffffffffffffffffffffffffffffff1614620004c0576040517f08c379a0000000000000000000000000000000000000000000000000000000008152600401620004b79062000c49565b60405180910390fd5b8273ffffffffffffffffffffffffffffffffffffffff166393ac3638826040518263ffffffff1660e01b8152600401620004fb91906200089f565b600060405180830381600087803b1580156200051657600080fd5b505af11580156200052b573d6000803e3d6000fd5b50505050826000806101000a81548173ffffffffffffffffffffffffffffffffffffffff021916908373ffffffffffffffffffffffffffffffffffffffff16021790555080600160006101000a81548173ffffffffffffffffffffffffffffffffffffffff021916908373ffffffffffffffffffffffffffffffffffffffff1602179055507f587ece4cd19692c5be1a4184503d607d45542d2aca0698c0068f52e09ccb541c60008054906101000a900473ffffffffffffffffffffffffffffffffffffffff16600160009054906101000a900473ffffffffffffffffffffffffffffffffffffffff166040516200062592919062000ad1565b60405180910390a150505050565b6130f48062000c6c83390190565b6118f08062003d6083390190565b6000604051905090565b600080fd5b600080fd5b600080fd5b6000601f19601f8301169050919050565b7f4e487b7100000000000000000000000000000000000000000000000000000000600052604160045260246000fd5b620006b38262000668565b810181811067ffffffffffffffff82111715620006d557620006d462000679565b5b80604052505050565b6000620006ea6200064f565b9050620006f88282620006a8565b919050565b600067ffffffffffffffff8211156200071b576200071a62000679565b5b602082029050602081019050919050565b600080fd5b600073ffffffffffffffffffffffffffffffffffffffff82169050919050565b60006200075e8262000731565b9050919050565b620007708162000751565b81146200077c57600080fd5b50565b600081359050620007908162000765565b92915050565b6000620007ad620007a784620006fd565b620006de565b90508083825260208201905060208402830185811115620007d357620007d26200072c565b5b835b81811015620008005780620007eb88826200077f565b845260208401935050602081019050620007d5565b5050509392505050565b600082601f83011262000822576200082162000663565b5b81356200083484826020860162000796565b91505092915050565b60006020828403121562000856576200085562000659565b5b600082013567ffffffffffffffff8111156200087757620008766200065e565b5b62000885848285016200080a565b91505092915050565b620008998162000751565b82525050565b6000602082019050620008b660008301846200088e565b92915050565b6000819050919050565b620008d181620008bc565b8114620008dd57600080fd5b50565b600081359050620008f181620008c6565b92915050565b60008060006060848603121562000913576200091262000659565b5b600084013567ffffffffffffffff8111156200093457620009336200065e565b5b62000942868287016200080a565b935050602062000955868287016200077f565b92505060406200096886828701620008e0565b9150509250925092565b600081519050919050565b600082825260208201905092915050565b6000819050602082019050919050565b620009a98162000751565b82525050565b6000620009bd83836200099e565b60208301905092915050565b6000602082019050919050565b6000620009e38262000972565b620009ef81856200097d565b9350620009fc836200098e565b8060005b8381101562000a3357815162000a178882620009af565b975062000a2483620009c9565b92505060018101905062000a00565b5085935050505092915050565b6000819050919050565b6000819050919050565b600062000a7562000a6f62000a698462000a40565b62000a4a565b620008bc565b9050919050565b62000a878162000a54565b82525050565b6000606082019050818103600083015262000aa98186620009d6565b905062000aba60208301856200088e565b62000ac9604083018462000a7c565b949350505050565b600060408201905062000ae860008301856200088e565b62000af760208301846200088e565b9392505050565b62000b0981620008bc565b82525050565b6000606082019050818103600083015262000b2b8186620009d6565b905062000b3c60208301856200088e565b62000b4b604083018462000afe565b949350505050565b60008151905062000b648162000765565b92915050565b60006020828403121562000b835762000b8262000659565b5b600062000b938482850162000b53565b91505092915050565b600082825260208201905092915050565b7f492063616e2774207472616e73666572206d696e74696e672070726976696c6560008201527f67657320746f205743432c2062656361757365204920616d206e6f742074686560208201527f204e465420636f6e7472616374206f776e657200000000000000000000000000604082015250565b600062000c3160538362000b9c565b915062000c3e8262000bad565b606082019050919050565b6000602082019050818103600083015262000c648162000c22565b905091905056fe60a0604052600c6080908152503480156200001957600080fd5b506040518060400160405280600e81526020017f4d6f636b43726561746f724e46540000000000000000000000000000000000008152506040518060400160405280600381526020017f4d434e000000000000000000000000000000000000000000000000000000000081525081600090805190602001906200009e92919062000228565b508060019080519060200190620000b792919062000228565b505050620000da620000ce6200013060201b60201c565b6200013860201b60201c565b620000ea620001fe60201b60201c565b600760006101000a81548173ffffffffffffffffffffffffffffffffffffffff021916908373ffffffffffffffffffffffffffffffffffffffff1602179055506200033d565b600033905090565b6000600660009054906101000a900473ffffffffffffffffffffffffffffffffffffffff16905081600660006101000a81548173ffffffffffffffffffffffffffffffffffffffff021916908373ffffffffffffffffffffffffffffffffffffffff1602179055508173ffffffffffffffffffffffffffffffffffffffff168173ffffffffffffffffffffffffffffffffffffffff167f8be0079c531659141344cd1fd0a4f28419497f9722a3daafe3b4186f6b6457e060405160405180910390a35050565b6000600660009054906101000a900473ffffffffffffffffffffffffffffffffffffffff16905090565b828054620002369062000307565b90600052602060002090601f0160209004810192826200025a5760008555620002a6565b82601f106200027557805160ff1916838001178555620002a6565b82800160010185558215620002a6579182015b82811115620002a557825182559160200191906001019062000288565b5b509050620002b59190620002b9565b5090565b5b80821115620002d4576000816000905550600101620002ba565b5090565b7f4e487b7100000000000000000000000000000000000000000000000000000000600052602260045260246000fd5b600060028204905060018216806200032057607f821691505b60208210811415620003375762000336620002d8565b5b50919050565b608051612d9462000360600039600081816108640152610a610152612d946000f3fe608060405234801561001057600080fd5b506004361061012c5760003560e01c80637d9f6db5116100ad578063a22cb46511610071578063a22cb4651461031d578063b88d4fde14610339578063c87b56dd14610355578063e985e9c514610385578063f2fde38b146103b55761012c565b80637d9f6db51461028b5780638da5cb5b146102a957806393ac3638146102c757806395d89b41146102e3578063a1448194146103015761012c565b806342842e0e116100f457806342842e0e146101e75780636352211e1461020357806370a0823114610233578063714cd12414610263578063715018a6146102815761012c565b806301ffc9a71461013157806306fdde0314610161578063081812fc1461017f578063095ea7b3146101af57806323b872dd146101cb575b600080fd5b61014b60048036038101906101469190611d5d565b6103d1565b6040516101589190611da5565b60405180910390f35b6101696104b3565b6040516101769190611e59565b60405180910390f35b61019960048036038101906101949190611eb1565b610545565b6040516101a69190611f1f565b60405180910390f35b6101c960048036038101906101c49190611f66565b61058b565b005b6101e560048036038101906101e09190611fa6565b6106a3565b005b61020160048036038101906101fc9190611fa6565b610703565b005b61021d60048036038101906102189190611eb1565b610723565b60405161022a9190611f1f565b60405180910390f35b61024d60048036038101906102489190611ff9565b6107aa565b60405161025a9190612035565b60405180910390f35b61026b610862565b6040516102789190612035565b60405180910390f35b610289610886565b005b61029361089a565b6040516102a09190611f1f565b60405180910390f35b6102b16108c0565b6040516102be9190611f1f565b60405180910390f35b6102e160048036038101906102dc9190611ff9565b6108ea565b005b6102eb610936565b6040516102f89190611e59565b60405180910390f35b61031b60048036038101906103169190611f66565b6109c8565b005b6103376004803603810190610332919061207c565b610acf565b005b610353600480360381019061034e91906121f1565b610ae5565b005b61036f600480360381019061036a9190611eb1565b610b47565b60405161037c9190611e59565b60405180910390f35b61039f600480360381019061039a9190612274565b610b81565b6040516103ac9190611da5565b60405180910390f35b6103cf60048036038101906103ca9190611ff9565b610c15565b005b60007f80ac58cd000000000000000000000000000000000000000000000000000000007bffffffffffffffffffffffffffffffffffffffffffffffffffffffff1916827bffffffffffffffffffffffffffffffffffffffffffffffffffffffff1916148061049c57507f5b5e139f000000000000000000000000000000000000000000000000000000007bffffffffffffffffffffffffffffffffffffffffffffffffffffffff1916827bffffffffffffffffffffffffffffffffffffffffffffffffffffffff1916145b806104ac57506104ab82610c99565b5b9050919050565b6060600080546104c2906122e3565b80601f01602080910402602001604051908101604052809291908181526020018280546104ee906122e3565b801561053b5780601f106105105761010080835404028352916020019161053b565b820191906000526020600020905b81548152906001019060200180831161051e57829003601f168201915b5050505050905090565b600061055082610d03565b6004600083815260200190815260200160002060009054906101000a900473ffffffffffffffffffffffffffffffffffffffff169050919050565b600061059682610723565b90508073ffffffffffffffffffffffffffffffffffffffff168373ffffffffffffffffffffffffffffffffffffffff161415610607576040517f08c379a00000000000000000000000000000000000000000000000000000000081526004016105fe90612387565b60405180910390fd5b8073ffffffffffffffffffffffffffffffffffffffff16610626610d4e565b73ffffffffffffffffffffffffffffffffffffffff16148061065557506106548161064f610d4e565b610b81565b5b610694576040517f08c379a000000000000000000000000000000000000000000000000000000000815260040161068b90612419565b60405180910390fd5b61069e8383610d56565b505050565b6106b46106ae610d4e565b82610e0f565b6106f3576040517f08c379a00000000000000000000000000000000000000000000000000000000081526004016106ea906124ab565b60405180910390fd5b6106fe838383610ea4565b505050565b61071e83838360405180602001604052806000815250610ae5565b505050565b60008061072f8361119e565b9050600073ffffffffffffffffffffffffffffffffffffffff168173ffffffffffffffffffffffffffffffffffffffff1614156107a1576040517f08c379a000000000000000000000000000000000000000000000000000000000815260040161079890612517565b60405180910390fd5b80915050919050565b60008073ffffffffffffffffffffffffffffffffffffffff168273ffffffffffffffffffffffffffffffffffffffff16141561081b576040517f08c379a0000000000000000000000000000000000000000000000000000000008152600401610812906125a9565b60405180910390fd5b600360008373ffffffffffffffffffffffffffffffffffffffff1673ffffffffffffffffffffffffffffffffffffffff168152602001908152602001600020549050919050565b7f000000000000000000000000000000000000000000000000000000000000000081565b61088e6111db565b6108986000611259565b565b600760009054906101000a900473ffffffffffffffffffffffffffffffffffffffff1681565b6000600660009054906101000a900473ffffffffffffffffffffffffffffffffffffffff16905090565b6108f26111db565b80600760006101000a81548173ffffffffffffffffffffffffffffffffffffffff021916908373ffffffffffffffffffffffffffffffffffffffff16021790555050565b606060018054610945906122e3565b80601f0160208091040260200160405190810160405280929190818152602001828054610971906122e3565b80156109be5780601f10610993576101008083540402835291602001916109be565b820191906000526020600020905b8154815290600101906020018083116109a157829003601f168201915b5050505050905090565b600760009054906101000a900473ffffffffffffffffffffffffffffffffffffffff1673ffffffffffffffffffffffffffffffffffffffff16610a09610d4e565b73ffffffffffffffffffffffffffffffffffffffff1614610a5f576040517f08c379a0000000000000000000000000000000000000000000000000000000008152600401610a5690612615565b60405180910390fd5b7f00000000000000000000000000000000000000000000000000000000000000008110610ac1576040517f08c379a0000000000000000000000000000000000000000000000000000000008152600401610ab890612681565b60405180910390fd5b610acb828261131f565b5050565b610ae1610ada610d4e565b838361133d565b5050565b610af6610af0610d4e565b83610e0f565b610b35576040517f08c379a0000000000000000000000000000000000000000000000000000000008152600401610b2c906124ab565b60405180910390fd5b610b41848484846114aa565b50505050565b6060610b51611506565b610b5a83611526565b604051602001610b6b929190612729565b6040516020818303038152906040529050919050565b6000600560008473ffffffffffffffffffffffffffffffffffffffff1673ffffffffffffffffffffffffffffffffffffffff16815260200190815260200160002060008373ffffffffffffffffffffffffffffffffffffffff1673ffffffffffffffffffffffffffffffffffffffff16815260200190815260200160002060009054906101000a900460ff16905092915050565b610c1d6111db565b600073ffffffffffffffffffffffffffffffffffffffff168173ffffffffffffffffffffffffffffffffffffffff161415610c8d576040517f08c379a0000000000000000000000000000000000000000000000000000000008152600401610c84906127ca565b60405180910390fd5b610c9681611259565b50565b60007f01ffc9a7000000000000000000000000000000000000000000000000000000007bffffffffffffffffffffffffffffffffffffffffffffffffffffffff1916827bffffffffffffffffffffffffffffffffffffffffffffffffffffffff1916149050919050565b610d0c816115fe565b610d4b576040517f08c379a0000000000000000000000000000000000000000000000000000000008152600401610d4290612517565b60405180910390fd5b50565b600033905090565b816004600083815260200190815260200160002060006101000a81548173ffffffffffffffffffffffffffffffffffffffff021916908373ffffffffffffffffffffffffffffffffffffffff160217905550808273ffffffffffffffffffffffffffffffffffffffff16610dc983610723565b73ffffffffffffffffffffffffffffffffffffffff167f8c5be1e5ebec7d5bd14f71427d1e84f3dd0314c0f7b2291e5b200ac8c7c3b92560405160405180910390a45050565b600080610e1b83610723565b90508073ffffffffffffffffffffffffffffffffffffffff168473ffffffffffffffffffffffffffffffffffffffff161480610e5d5750610e5c8185610b81565b5b80610e9b57508373ffffffffffffffffffffffffffffffffffffffff16610e8384610545565b73ffffffffffffffffffffffffffffffffffffffff16145b91505092915050565b8273ffffffffffffffffffffffffffffffffffffffff16610ec482610723565b73ffffffffffffffffffffffffffffffffffffffff1614610f1a576040517f08c379a0000000000000000000000000000000000000000000000000000000008152600401610f119061285c565b60405180910390fd5b600073ffffffffffffffffffffffffffffffffffffffff168273ffffffffffffffffffffffffffffffffffffffff161415610f8a576040517f08c379a0000000000000000000000000000000000000000000000000000000008152600401610f81906128ee565b60405180910390fd5b610f97838383600161163f565b8273ffffffffffffffffffffffffffffffffffffffff16610fb782610723565b73ffffffffffffffffffffffffffffffffffffffff161461100d576040517f08c379a00000000000000000000000000000000000000000000000000000000081526004016110049061285c565b60405180910390fd5b6004600082815260200190815260200160002060006101000a81549073ffffffffffffffffffffffffffffffffffffffff02191690556001600360008573ffffffffffffffffffffffffffffffffffffffff1673ffffffffffffffffffffffffffffffffffffffff168152602001908152602001600020600082825403925050819055506001600360008473ffffffffffffffffffffffffffffffffffffffff1673ffffffffffffffffffffffffffffffffffffffff16815260200190815260200160002060008282540192505081905550816002600083815260200190815260200160002060006101000a81548173ffffffffffffffffffffffffffffffffffffffff021916908373ffffffffffffffffffffffffffffffffffffffff160217905550808273ffffffffffffffffffffffffffffffffffffffff168473ffffffffffffffffffffffffffffffffffffffff167fddf252ad1be2c89b69c2b068fc378daa952ba7f163c4a11628f55a4df523b3ef60405160405180910390a46111998383836001611765565b505050565b60006002600083815260200190815260200160002060009054906101000a900473ffffffffffffffffffffffffffffffffffffffff169050919050565b6111e3610d4e565b73ffffffffffffffffffffffffffffffffffffffff166112016108c0565b73ffffffffffffffffffffffffffffffffffffffff1614611257576040517f08c379a000000000000000000000000000000000000000000000000000000000815260040161124e9061295a565b60405180910390fd5b565b6000600660009054906101000a900473ffffffffffffffffffffffffffffffffffffffff16905081600660006101000a81548173ffffffffffffffffffffffffffffffffffffffff021916908373ffffffffffffffffffffffffffffffffffffffff1602179055508173ffffffffffffffffffffffffffffffffffffffff168173ffffffffffffffffffffffffffffffffffffffff167f8be0079c531659141344cd1fd0a4f28419497f9722a3daafe3b4186f6b6457e060405160405180910390a35050565b61133982826040518060200160405280600081525061176b565b5050565b8173ffffffffffffffffffffffffffffffffffffffff168373ffffffffffffffffffffffffffffffffffffffff1614156113ac576040517f08c379a00000000000000000000000000000000000000000000000000000000081526004016113a3906129c6565b60405180910390fd5b80600560008573ffffffffffffffffffffffffffffffffffffffff1673ffffffffffffffffffffffffffffffffffffffff16815260200190815260200160002060008473ffffffffffffffffffffffffffffffffffffffff1673ffffffffffffffffffffffffffffffffffffffff16815260200190815260200160002060006101000a81548160ff0219169083151502179055508173ffffffffffffffffffffffffffffffffffffffff168373ffffffffffffffffffffffffffffffffffffffff167f17307eab39ab6107e8899845ad3d59bd9653f200f220920489ca2b5937696c318360405161149d9190611da5565b60405180910390a3505050565b6114b5848484610ea4565b6114c1848484846117c6565b611500576040517f08c379a00000000000000000000000000000000000000000000000000000000081526004016114f790612a58565b60405180910390fd5b50505050565b6060604051806080016040528060438152602001612d1c60439139905090565b6060600060016115358461195d565b01905060008167ffffffffffffffff811115611554576115536120c6565b5b6040519080825280601f01601f1916602001820160405280156115865781602001600182028036833780820191505090505b509050600082602001820190505b6001156115f3578080600190039150507f3031323334353637383961626364656600000000000000000000000000000000600a86061a8153600a85816115dd576115dc612a78565b5b04945060008514156115ee576115f3565b611594565b819350505050919050565b60008073ffffffffffffffffffffffffffffffffffffffff166116208361119e565b73ffffffffffffffffffffffffffffffffffffffff1614159050919050565b600181111561175f57600073ffffffffffffffffffffffffffffffffffffffff168473ffffffffffffffffffffffffffffffffffffffff16146116d35780600360008673ffffffffffffffffffffffffffffffffffffffff1673ffffffffffffffffffffffffffffffffffffffff16815260200190815260200160002060008282546116cb9190612ad6565b925050819055505b600073ffffffffffffffffffffffffffffffffffffffff168373ffffffffffffffffffffffffffffffffffffffff161461175e5780600360008573ffffffffffffffffffffffffffffffffffffffff1673ffffffffffffffffffffffffffffffffffffffff16815260200190815260200160002060008282546117569190612b0a565b925050819055505b5b50505050565b50505050565b6117758383611ab0565b61178260008484846117c6565b6117c1576040517f08c379a00000000000000000000000000000000000000000000000000000000081526004016117b890612a58565b60405180910390fd5b505050565b60006117e78473ffffffffffffffffffffffffffffffffffffffff16611cce565b15611950578373ffffffffffffffffffffffffffffffffffffffff1663150b7a02611810610d4e565b8786866040518563ffffffff1660e01b81526004016118329493929190612bb5565b602060405180830381600087803b15801561184c57600080fd5b505af192505050801561187d57506040513d601f19601f8201168201806040525081019061187a9190612c16565b60015b611900573d80600081146118ad576040519150601f19603f3d011682016040523d82523d6000602084013e6118b2565b606091505b506000815114156118f8576040517f08c379a00000000000000000000000000000000000000000000000000000000081526004016118ef90612a58565b60405180910390fd5b805181602001fd5b63150b7a0260e01b7bffffffffffffffffffffffffffffffffffffffffffffffffffffffff1916817bffffffffffffffffffffffffffffffffffffffffffffffffffffffff191614915050611955565b600190505b949350505050565b600080600090507a184f03e93ff9f4daa797ed6e38ed64bf6a1f01000000000000000083106119bb577a184f03e93ff9f4daa797ed6e38ed64bf6a1f01000000000000000083816119b1576119b0612a78565b5b0492506040810190505b6d04ee2d6d415b85acef810000000083106119f8576d04ee2d6d415b85acef810000000083816119ee576119ed612a78565b5b0492506020810190505b662386f26fc100008310611a2757662386f26fc100008381611a1d57611a1c612a78565b5b0492506010810190505b6305f5e1008310611a50576305f5e1008381611a4657611a45612a78565b5b0492506008810190505b6127108310611a75576127108381611a6b57611a6a612a78565b5b0492506004810190505b60648310611a985760648381611a8e57611a8d612a78565b5b0492506002810190505b600a8310611aa7576001810190505b80915050919050565b600073ffffffffffffffffffffffffffffffffffffffff168273ffffffffffffffffffffffffffffffffffffffff161415611b20576040517f08c379a0000000000000000000000000000000000000000000000000000000008152600401611b1790612c8f565b60405180910390fd5b611b29816115fe565b15611b69576040517f08c379a0000000000000000000000000000000000000000000000000000000008152600401611b6090612cfb565b60405180910390fd5b611b7760008383600161163f565b611b80816115fe565b15611bc0576040517f08c379a0000000000000000000000000000000000000000000000000000000008152600401611bb790612cfb565b60405180910390fd5b6001600360008473ffffffffffffffffffffffffffffffffffffffff1673ffffffffffffffffffffffffffffffffffffffff16815260200190815260200160002060008282540192505081905550816002600083815260200190815260200160002060006101000a81548173ffffffffffffffffffffffffffffffffffffffff021916908373ffffffffffffffffffffffffffffffffffffffff160217905550808273ffffffffffffffffffffffffffffffffffffffff16600073ffffffffffffffffffffffffffffffffffffffff167fddf252ad1be2c89b69c2b068fc378daa952ba7f163c4a11628f55a4df523b3ef60405160405180910390a4611cca600083836001611765565b5050565b6000808273ffffffffffffffffffffffffffffffffffffffff163b119050919050565b6000604051905090565b600080fd5b600080fd5b60007fffffffff0000000000000000000000000000000000000000000000000000000082169050919050565b611d3a81611d05565b8114611d4557600080fd5b50565b600081359050611d5781611d31565b92915050565b600060208284031215611d7357611d72611cfb565b5b6000611d8184828501611d48565b91505092915050565b60008115159050919050565b611d9f81611d8a565b82525050565b6000602082019050611dba6000830184611d96565b92915050565b600081519050919050565b600082825260208201905092915050565b60005b83811015611dfa578082015181840152602081019050611ddf565b83811115611e09576000848401525b50505050565b6000601f19601f8301169050919050565b6000611e2b82611dc0565b611e358185611dcb565b9350611e45818560208601611ddc565b611e4e81611e0f565b840191505092915050565b60006020820190508181036000830152611e738184611e20565b905092915050565b6000819050919050565b611e8e81611e7b565b8114611e9957600080fd5b50565b600081359050611eab81611e85565b92915050565b600060208284031215611ec757611ec6611cfb565b5b6000611ed584828501611e9c565b91505092915050565b600073ffffffffffffffffffffffffffffffffffffffff82169050919050565b6000611f0982611ede565b9050919050565b611f1981611efe565b82525050565b6000602082019050611f346000830184611f10565b92915050565b611f4381611efe565b8114611f4e57600080fd5b50565b600081359050611f6081611f3a565b92915050565b60008060408385031215611f7d57611f7c611cfb565b5b6000611f8b85828601611f51565b9250506020611f9c85828601611e9c565b9150509250929050565b600080600060608486031215611fbf57611fbe611cfb565b5b6000611fcd86828701611f51565b9350506020611fde86828701611f51565b9250506040611fef86828701611e9c565b9150509250925092565b60006020828403121561200f5761200e611cfb565b5b600061201d84828501611f51565b91505092915050565b61202f81611e7b565b82525050565b600060208201905061204a6000830184612026565b92915050565b61205981611d8a565b811461206457600080fd5b50565b60008135905061207681612050565b92915050565b6000806040838503121561209357612092611cfb565b5b60006120a185828601611f51565b92505060206120b285828601612067565b9150509250929050565b600080fd5b600080fd5b7f4e487b7100000000000000000000000000000000000000000000000000000000600052604160045260246000fd5b6120fe82611e0f565b810181811067ffffffffffffffff8211171561211d5761211c6120c6565b5b80604052505050565b6000612130611cf1565b905061213c82826120f5565b919050565b600067ffffffffffffffff82111561215c5761215b6120c6565b5b61216582611e0f565b9050602081019050919050565b82818337600083830152505050565b600061219461218f84612141565b612126565b9050828152602081018484840111156121b0576121af6120c1565b5b6121bb848285612172565b509392505050565b600082601f8301126121d8576121d76120bc565b5b81356121e8848260208601612181565b91505092915050565b6000806000806080858703121561220b5761220a611cfb565b5b600061221987828801611f51565b945050602061222a87828801611f51565b935050604061223b87828801611e9c565b925050606085013567ffffffffffffffff81111561225c5761225b611d00565b5b612268878288016121c3565b91505092959194509250565b6000806040838503121561228b5761228a611cfb565b5b600061229985828601611f51565b92505060206122aa85828601611f51565b9150509250929050565b7f4e487b7100000000000000000000000000000000000000000000000000000000600052602260045260246000fd5b600060028204905060018216806122fb57607f821691505b6020821081141561230f5761230e6122b4565b5b50919050565b7f4552433732313a20617070726f76616c20746f2063757272656e74206f776e6560008201527f7200000000000000000000000000000000000000000000000000000000000000602082015250565b6000612371602183611dcb565b915061237c82612315565b604082019050919050565b600060208201905081810360008301526123a081612364565b9050919050565b7f4552433732313a20617070726f76652063616c6c6572206973206e6f7420746f60008201527f6b656e206f776e6572206f7220617070726f76656420666f7220616c6c000000602082015250565b6000612403603d83611dcb565b915061240e826123a7565b604082019050919050565b60006020820190508181036000830152612432816123f6565b9050919050565b7f4552433732313a2063616c6c6572206973206e6f7420746f6b656e206f776e6560008201527f72206f7220617070726f76656400000000000000000000000000000000000000602082015250565b6000612495602d83611dcb565b91506124a082612439565b604082019050919050565b600060208201905081810360008301526124c481612488565b9050919050565b7f4552433732313a20696e76616c696420746f6b656e2049440000000000000000600082015250565b6000612501601883611dcb565b915061250c826124cb565b602082019050919050565b60006020820190508181036000830152612530816124f4565b9050919050565b7f4552433732313a2061646472657373207a65726f206973206e6f74206120766160008201527f6c6964206f776e65720000000000000000000000000000000000000000000000602082015250565b6000612593602983611dcb565b915061259e82612537565b604082019050919050565b600060208201905081810360008301526125c281612586565b9050919050565b7f4e4f545f41554354494f4e5f434f4e5452414354000000000000000000000000600082015250565b60006125ff601483611dcb565b915061260a826125c9565b602082019050919050565b6000602082019050818103600083015261262e816125f2565b9050919050565b7f6e6f20666f6c696f2077697468207468697320746f6b656e4964000000000000600082015250565b600061266b601a83611dcb565b915061267682612635565b602082019050919050565b6000602082019050818103600083015261269a8161265e565b9050919050565b600081905092915050565b60006126b782611dc0565b6126c181856126a1565b93506126d1818560208601611ddc565b80840191505092915050565b7f2e6a736f6e000000000000000000000000000000000000000000000000000000600082015250565b60006127136005836126a1565b915061271e826126dd565b600582019050919050565b600061273582856126ac565b915061274182846126ac565b915061274c82612706565b91508190509392505050565b7f4f776e61626c653a206e6577206f776e657220697320746865207a65726f206160008201527f6464726573730000000000000000000000000000000000000000000000000000602082015250565b60006127b4602683611dcb565b91506127bf82612758565b604082019050919050565b600060208201905081810360008301526127e3816127a7565b9050919050565b7f4552433732313a207472616e736665722066726f6d20696e636f72726563742060008201527f6f776e6572000000000000000000000000000000000000000000000000000000602082015250565b6000612846602583611dcb565b9150612851826127ea565b604082019050919050565b6000602082019050818103600083015261287581612839565b9050919050565b7f4552433732313a207472616e7366657220746f20746865207a65726f2061646460008201527f7265737300000000000000000000000000000000000000000000000000000000602082015250565b60006128d8602483611dcb565b91506128e38261287c565b604082019050919050565b60006020820190508181036000830152612907816128cb565b9050919050565b7f4f776e61626c653a2063616c6c6572206973206e6f7420746865206f776e6572600082015250565b6000612944602083611dcb565b915061294f8261290e565b602082019050919050565b6000602082019050818103600083015261297381612937565b9050919050565b7f4552433732313a20617070726f766520746f2063616c6c657200000000000000600082015250565b60006129b0601983611dcb565b91506129bb8261297a565b602082019050919050565b600060208201905081810360008301526129df816129a3565b9050919050565b7f4552433732313a207472616e7366657220746f206e6f6e20455243373231526560008201527f63656976657220696d706c656d656e7465720000000000000000000000000000602082015250565b6000612a42603283611dcb565b9150612a4d826129e6565b604082019050919050565b60006020820190508181036000830152612a7181612a35565b9050919050565b7f4e487b7100000000000000000000000000000000000000000000000000000000600052601260045260246000fd5b7f4e487b7100000000000000000000000000000000000000000000000000000000600052601160045260246000fd5b6000612ae182611e7b565b9150612aec83611e7b565b925082821015612aff57612afe612aa7565b5b828203905092915050565b6000612b1582611e7b565b9150612b2083611e7b565b9250827fffffffffffffffffffffffffffffffffffffffffffffffffffffffffffffffff03821115612b5557612b54612aa7565b5b828201905092915050565b600081519050919050565b600082825260208201905092915050565b6000612b8782612b60565b612b918185612b6b565b9350612ba1818560208601611ddc565b612baa81611e0f565b840191505092915050565b6000608082019050612bca6000830187611f10565b612bd76020830186611f10565b612be46040830185612026565b8181036060830152612bf68184612b7c565b905095945050505050565b600081519050612c1081611d31565b92915050565b600060208284031215612c2c57612c2b611cfb565b5b6000612c3a84828501612c01565b91505092915050565b7f4552433732313a206d696e7420746f20746865207a65726f2061646472657373600082015250565b6000612c79602083611dcb565b9150612c8482612c43565b602082019050919050565b60006020820190508181036000830152612ca881612c6c565b9050919050565b7f4552433732313a20746f6b656e20616c7265616479206d696e74656400000000600082015250565b6000612ce5601c83611dcb565b9150612cf082612caf565b602082019050919050565b60006020820190508181036000830152612d1481612cd8565b905091905056fe697066733a2f2f62616679626569673575766163727865673463696a656f6735356a6d61626f7075776c7673337279756a3334627272766a7a7836787069753435752fa264697066735822122073706e8d52defdb15341c251dc3a630e7d0b0bc47868596a261bdd5d3512473c64736f6c63430008090033610100604052600c60c090815250600073ffffffffffffffffffffffffffffffffffffffff1660e09073ffffffffffffffffffffffffffffffffffffffff168152503480156200004e57600080fd5b50604051620018f0380380620018f083398181016040528101906200007491906200039e565b8173ffffffffffffffffffffffffffffffffffffffff1660808173ffffffffffffffffffffffffffffffffffffffff16815250508060a08181525050600083519050600060a05182620000c8919062000448565b42620000d59190620004a9565b90505b60008211156200016a578180620000ef9062000506565b92505060a0518162000102919062000535565b9050806000808785815181106200011e576200011d62000570565b5b602002602001015173ffffffffffffffffffffffffffffffffffffffff1673ffffffffffffffffffffffffffffffffffffffff16815260200190815260200160002081905550620000d8565b50505050506200059f565b6000604051905090565b600080fd5b600080fd5b600080fd5b6000601f19601f8301169050919050565b7f4e487b7100000000000000000000000000000000000000000000000000000000600052604160045260246000fd5b620001d9826200018e565b810181811067ffffffffffffffff82111715620001fb57620001fa6200019f565b5b80604052505050565b60006200021062000175565b90506200021e8282620001ce565b919050565b600067ffffffffffffffff8211156200024157620002406200019f565b5b602082029050602081019050919050565b600080fd5b600073ffffffffffffffffffffffffffffffffffffffff82169050919050565b6000620002848262000257565b9050919050565b620002968162000277565b8114620002a257600080fd5b50565b600081519050620002b6816200028b565b92915050565b6000620002d3620002cd8462000223565b62000204565b90508083825260208201905060208402830185811115620002f957620002f862000252565b5b835b81811015620003265780620003118882620002a5565b845260208401935050602081019050620002fb565b5050509392505050565b600082601f83011262000348576200034762000189565b5b81516200035a848260208601620002bc565b91505092915050565b6000819050919050565b620003788162000363565b81146200038457600080fd5b50565b60008151905062000398816200036d565b92915050565b600080600060608486031215620003ba57620003b96200017f565b5b600084015167ffffffffffffffff811115620003db57620003da62000184565b5b620003e98682870162000330565b9350506020620003fc86828701620002a5565b92505060406200040f8682870162000387565b9150509250925092565b7f4e487b7100000000000000000000000000000000000000000000000000000000600052601160045260246000fd5b6000620004558262000363565b9150620004628362000363565b9250817fffffffffffffffffffffffffffffffffffffffffffffffffffffffffffffffff04831182151516156200049e576200049d62000419565b5b828202905092915050565b6000620004b68262000363565b9150620004c38362000363565b9250827fffffffffffffffffffffffffffffffffffffffffffffffffffffffffffffffff03821115620004fb57620004fa62000419565b5b828201905092915050565b6000620005138262000363565b915060008214156200052a576200052962000419565b5b600182039050919050565b6000620005428262000363565b91506200054f8362000363565b92508282101562000565576200056462000419565b5b828203905092915050565b7f4e487b7100000000000000000000000000000000000000000000000000000000600052603260045260246000fd5b60805160a05160c05160e0516112db6200061560003960006109ab0152600081816101b701528181610225015281816103c5015281816103ed0152610460015260005050600081816102d801528181610488015281816105d501528181610840015281816108d301526109de01526112db6000f3fe608060405234801561001057600080fd5b50600436106100885760003560e01c806389fde7af1161005b57806389fde7af14610129578063a0712d6814610147578063c41a360a14610163578063d56d229d1461019357610088565b806316c127461461008d578063225d29a1146100ab57806333c41a90146100db578063714cd1241461010b575b600080fd5b6100956101b1565b6040516100a29190610af0565b60405180910390f35b6100c560048036038101906100c09190610b52565b6102bc565b6040516100d29190610b98565b60405180910390f35b6100f560048036038101906100f09190610bdf565b6102d4565b6040516101029190610c27565b60405180910390f35b6101136103c3565b6040516101209190610b98565b60405180910390f35b6101316103e7565b60405161013e9190610d9d565b60405180910390f35b610161600480360381019061015c9190610bdf565b6105d3565b005b61017d60048036038101906101789190610bdf565b6108cf565b60405161018a9190610dce565b60405180910390f35b61019b6109dc565b6040516101a89190610e48565b60405180910390f35b606060007f000000000000000000000000000000000000000000000000000000000000000067ffffffffffffffff8111156101ef576101ee610e63565b5b60405190808252806020026020018201604052801561021d5781602001602082028036833780820191505090505b50905060005b7f00000000000000000000000000000000000000000000000000000000000000008110156102b457610254816108cf565b82828151811061026757610266610e92565b5b602002602001019073ffffffffffffffffffffffffffffffffffffffff16908173ffffffffffffffffffffffffffffffffffffffff168152505080806102ac90610ef0565b915050610223565b508091505090565b60006020528060005260406000206000915090505481565b60007f000000000000000000000000000000000000000000000000000000000000000073ffffffffffffffffffffffffffffffffffffffff16636352211e836040518263ffffffff1660e01b815260040161032f9190610b98565b60206040518083038186803b15801561034757600080fd5b505afa92505050801561037857506040513d601f19601f820116820180604052508101906103759190610f4e565b60015b6103b8573d80600081146103a8576040519150601f19603f3d011682016040523d82523d6000602084013e6103ad565b606091505b5060009150506103be565b60019150505b919050565b7f000000000000000000000000000000000000000000000000000000000000000081565b606060007f000000000000000000000000000000000000000000000000000000000000000067ffffffffffffffff81111561042557610424610e63565b5b60405190808252806020026020018201604052801561045857816020015b60608152602001906001900390816104435790505b50905060005b7f00000000000000000000000000000000000000000000000000000000000000008110156105cb577f000000000000000000000000000000000000000000000000000000000000000073ffffffffffffffffffffffffffffffffffffffff1663c87b56dd826040518263ffffffff1660e01b81526004016104df9190610b98565b60006040518083038186803b1580156104f757600080fd5b505afa92505050801561052d57506040513d6000823e3d601f19601f8201168201806040525081019061052a9190611072565b60015b610597573d806000811461055d576040519150601f19603f3d011682016040523d82523d6000602084013e610562565b606091505b506040518060200160405280600081525083838151811061058657610585610e92565b5b6020026020010181905250506105b8565b808383815181106105ab576105aa610e92565b5b6020026020010181905250505b80806105c390610ef0565b91505061045e565b508091505090565b7f000000000000000000000000000000000000000000000000000000000000000073ffffffffffffffffffffffffffffffffffffffff16636352211e826040518263ffffffff1660e01b815260040161062c9190610b98565b60206040518083038186803b15801561064457600080fd5b505afa92505050801561067557506040513d601f19601f820116820180604052508101906106729190610f4e565b60015b6106b1573d80600081146106a5576040519150601f19603f3d011682016040523d82523d6000602084013e6106aa565b606091505b50506106ec565b6040517f08c379a00000000000000000000000000000000000000000000000000000000081526004016106e390611118565b60405180910390fd5b60008060003373ffffffffffffffffffffffffffffffffffffffff1673ffffffffffffffffffffffffffffffffffffffff1681526020019081526020016000205490506000811415610773576040517f08c379a000000000000000000000000000000000000000000000000000000000815260040161076a90611184565b60405180910390fd5b60018114156107b7576040517f08c379a00000000000000000000000000000000000000000000000000000000081526004016107ae906111f0565b60405180910390fd5b428111156107fa576040517f08c379a00000000000000000000000000000000000000000000000000000000081526004016107f19061125c565b60405180910390fd5b60016000803373ffffffffffffffffffffffffffffffffffffffff1673ffffffffffffffffffffffffffffffffffffffff168152602001908152602001600020819055507f000000000000000000000000000000000000000000000000000000000000000073ffffffffffffffffffffffffffffffffffffffff1663a144819433846040518363ffffffff1660e01b815260040161089992919061127c565b600060405180830381600087803b1580156108b357600080fd5b505af11580156108c7573d6000803e3d6000fd5b505050505050565b60007f000000000000000000000000000000000000000000000000000000000000000073ffffffffffffffffffffffffffffffffffffffff16636352211e836040518263ffffffff1660e01b815260040161092a9190610b98565b60206040518083038186803b15801561094257600080fd5b505afa92505050801561097357506040513d601f19601f820116820180604052508101906109709190610f4e565b60015b6109d2573d80600081146109a3576040519150601f19603f3d011682016040523d82523d6000602084013e6109a8565b606091505b507f00000000000000000000000000000000000000000000000000000000000000009150506109d7565b809150505b919050565b7f000000000000000000000000000000000000000000000000000000000000000081565b600081519050919050565b600082825260208201905092915050565b6000819050602082019050919050565b600073ffffffffffffffffffffffffffffffffffffffff82169050919050565b6000610a5782610a2c565b9050919050565b610a6781610a4c565b82525050565b6000610a798383610a5e565b60208301905092915050565b6000602082019050919050565b6000610a9d82610a00565b610aa78185610a0b565b9350610ab283610a1c565b8060005b83811015610ae3578151610aca8882610a6d565b9750610ad583610a85565b925050600181019050610ab6565b5085935050505092915050565b60006020820190508181036000830152610b0a8184610a92565b905092915050565b6000604051905090565b600080fd5b600080fd5b610b2f81610a4c565b8114610b3a57600080fd5b50565b600081359050610b4c81610b26565b92915050565b600060208284031215610b6857610b67610b1c565b5b6000610b7684828501610b3d565b91505092915050565b6000819050919050565b610b9281610b7f565b82525050565b6000602082019050610bad6000830184610b89565b92915050565b610bbc81610b7f565b8114610bc757600080fd5b50565b600081359050610bd981610bb3565b92915050565b600060208284031215610bf557610bf4610b1c565b5b6000610c0384828501610bca565b91505092915050565b60008115159050919050565b610c2181610c0c565b82525050565b6000602082019050610c3c6000830184610c18565b92915050565b600081519050919050565b600082825260208201905092915050565b6000819050602082019050919050565b600081519050919050565b600082825260208201905092915050565b60005b83811015610ca8578082015181840152602081019050610c8d565b83811115610cb7576000848401525b50505050565b6000601f19601f8301169050919050565b6000610cd982610c6e565b610ce38185610c79565b9350610cf3818560208601610c8a565b610cfc81610cbd565b840191505092915050565b6000610d138383610cce565b905092915050565b6000602082019050919050565b6000610d3382610c42565b610d3d8185610c4d565b935083602082028501610d4f85610c5e565b8060005b85811015610d8b5784840389528151610d6c8582610d07565b9450610d7783610d1b565b925060208a01995050600181019050610d53565b50829750879550505050505092915050565b60006020820190508181036000830152610db78184610d28565b905092915050565b610dc881610a4c565b82525050565b6000602082019050610de36000830184610dbf565b92915050565b6000819050919050565b6000610e0e610e09610e0484610a2c565b610de9565b610a2c565b9050919050565b6000610e2082610df3565b9050919050565b6000610e3282610e15565b9050919050565b610e4281610e27565b82525050565b6000602082019050610e5d6000830184610e39565b92915050565b7f4e487b7100000000000000000000000000000000000000000000000000000000600052604160045260246000fd5b7f4e487b7100000000000000000000000000000000000000000000000000000000600052603260045260246000fd5b7f4e487b7100000000000000000000000000000000000000000000000000000000600052601160045260246000fd5b6000610efb82610b7f565b91507fffffffffffffffffffffffffffffffffffffffffffffffffffffffffffffffff821415610f2e57610f2d610ec1565b5b600182019050919050565b600081519050610f4881610b26565b92915050565b600060208284031215610f6457610f63610b1c565b5b6000610f7284828501610f39565b91505092915050565b600080fd5b600080fd5b610f8e82610cbd565b810181811067ffffffffffffffff82111715610fad57610fac610e63565b5b80604052505050565b6000610fc0610b12565b9050610fcc8282610f85565b919050565b600067ffffffffffffffff821115610fec57610feb610e63565b5b610ff582610cbd565b9050602081019050919050565b600061101561101084610fd1565b610fb6565b90508281526020810184848401111561103157611030610f80565b5b61103c848285610c8a565b509392505050565b600082601f83011261105957611058610f7b565b5b8151611069848260208601611002565b91505092915050565b60006020828403121561108857611087610b1c565b5b600082015167ffffffffffffffff8111156110a6576110a5610b21565b5b6110b284828501611044565b91505092915050565b600082825260208201905092915050565b7f616c7265616479206d696e746564000000000000000000000000000000000000600082015250565b6000611102600e836110bb565b915061110d826110cc565b602082019050919050565b60006020820190508181036000830152611131816110f5565b9050919050565b7f6e6f742077686974656c69737465640000000000000000000000000000000000600082015250565b600061116e600f836110bb565b915061117982611138565b602082019050919050565b6000602082019050818103600083015261119d81611161565b9050919050565b7f63616e206f6e6c79206d696e7420310000000000000000000000000000000000600082015250565b60006111da600f836110bb565b91506111e5826111a4565b602082019050919050565b60006020820190508181036000830152611209816111cd565b9050919050565b7f6e6f742079657420756e6c6f636b656400000000000000000000000000000000600082015250565b60006112466010836110bb565b915061125182611210565b602082019050919050565b6000602082019050818103600083015261127581611239565b9050919050565b60006040820190506112916000830185610dbf565b61129e6020830184610b89565b939250505056fea2646970667358221220c17f3c6d568f53fa98b35253e78c55fa7f2f667e81e87b6c470615c4ac22868964736f6c63430008090033a2646970667358221220a0ac1b59cb0985c7ec352d5450a5b0ad460a879e1868b0e2a0a19d95e3d73b3964736f6c63430008090033",
    "linkReferences": {},
    "deployedLinkReferences": {}
}