{
  "_format": "hh-sol-artifact-1",
  "contractName": "WCFactory",
  "sourceName": "contracts/WCFactory.sol",
  "abi": [
    {
      "anonymous": false,
      "inputs": [
        {
          "indexed": false,
          "internalType": "address",
          "name": "curNFTaddress",
          "type": "address"
        },
        {
          "indexed": false,
          "internalType": "address",
          "name": "curWCCaddress",
          "type": "address"
        }
      ],
      "name": "Created",
      "type": "event"
    },
    {
      "anonymous": false,
      "inputs": [
        {
          "indexed": false,
          "internalType": "address",
          "name": "createdNFTaddress",
          "type": "address"
        }
      ],
      "name": "CreatedNFT",
      "type": "event"
    },
    {
      "inputs": [],
      "name": "curNFTaddress",
      "outputs": [
        {
          "internalType": "address",
          "name": "",
          "type": "address"
        }
      ],
      "stateMutability": "view",
      "type": "function"
    },
    {
      "inputs": [],
      "name": "curWCCaddress",
      "outputs": [
        {
          "internalType": "address",
          "name": "",
          "type": "address"
        }
      ],
      "stateMutability": "view",
      "type": "function"
    },
    {
      "inputs": [
        {
          "internalType": "uint256",
          "name": "nFolios",
          "type": "uint256"
        },
        {
          "internalType": "string",
          "name": "baseURI",
          "type": "string"
        },
        {
          "internalType": "string",
          "name": "suffixURI",
          "type": "string"
        }
      ],
      "name": "makeNewERC721",
      "outputs": [],
      "stateMutability": "nonpayable",
      "type": "function"
    },
    {
      "inputs": [
        {
          "internalType": "address[]",
          "name": "users",
          "type": "address[]"
        },
        {
          "internalType": "address",
          "name": "nftContractAddr",
          "type": "address"
        },
        {
          "internalType": "uint256",
          "name": "intervalBtwUsers",
          "type": "uint256"
        }
      ],
      "name": "makeNewWCC",
      "outputs": [],
      "stateMutability": "nonpayable",
      "type": "function"
    }
  ],
  "bytecode": "0x608060405234801561001057600080fd5b5061366b806100206000396000f3fe60806040523480156200001157600080fd5b5060043610620000525760003560e01c80630a176e3d14620000575780634b92585d14620000705780639aa1a6e114620000a0578063f7f88f7914620000b4575b600080fd5b6200006e6200006836600462000472565b620000cb565b005b60015462000084906001600160a01b031681565b6040516001600160a01b03909116815260200160405180910390f35b60005462000084906001600160a01b031681565b6200006e620000c536600462000511565b620001ff565b81516200017a57600d83106200013d5760405162461bcd60e51b815260206004820152602d60248201527f77697468206e6f207572692070726f76696465642c206d75737420686176652060448201526c3c3d203132206e466f6c696f7360981b606482015260840160405180910390fd5b604051806080016040528060438152602001620035f360439139915060405180604001604052806005815260200164173539b7b760d91b81525090505b60008383836040516200018d9062000395565b6200019b939291906200063d565b604051809103906000f080158015620001b8573d6000803e3d6000fd5b506040516001600160a01b03821681529091507f44453fd1b4b804cdcef4c8037de7b08e98c56c619b6787b6f58c1b896c6a175a906020015b60405180910390a150505050565b60008383836040516200021290620003a3565b620002209392919062000676565b604051809103906000f0801580156200023d573d6000803e3d6000fd5b509050306001600160a01b0316836001600160a01b0316638da5cb5b6040518163ffffffff1660e01b815260040160206040518083038186803b1580156200028457600080fd5b505afa15801562000299573d6000803e3d6000fd5b505050506040513d601f19601f82011682018060405250810190620002bf9190620006d7565b6001600160a01b031614156200032d5760405163a3106b9560e01b81526001600160a01b03828116600483015284169063a3106b9590602401600060405180830381600087803b1580156200031357600080fd5b505af115801562000328573d6000803e3d6000fd5b505050505b600080546001600160a01b038581166001600160a01b03199283168117909355600180549185169190921681179091556040805192835260208301919091527f587ece4cd19692c5be1a4184503d607d45542d2aca0698c0068f52e09ccb541c9101620001f1565b611da980620006ff83390190565b61114b80620024a883390190565b634e487b7160e01b600052604160045260246000fd5b604051601f8201601f1916810167ffffffffffffffff81118282101715620003f357620003f3620003b1565b604052919050565b600082601f8301126200040d57600080fd5b813567ffffffffffffffff8111156200042a576200042a620003b1565b6200043f601f8201601f1916602001620003c7565b8181528460208386010111156200045557600080fd5b816020850160208301376000918101602001919091529392505050565b6000806000606084860312156200048857600080fd5b83359250602084013567ffffffffffffffff80821115620004a857600080fd5b620004b687838801620003fb565b93506040860135915080821115620004cd57600080fd5b50620004dc86828701620003fb565b9150509250925092565b6001600160a01b0381168114620004fc57600080fd5b50565b80356200050c81620004e6565b919050565b6000806000606084860312156200052757600080fd5b833567ffffffffffffffff808211156200054057600080fd5b818601915086601f8301126200055557600080fd5b81356020828211156200056c576200056c620003b1565b8160051b92506200057f818401620003c7565b828152928401810192818101908a8511156200059a57600080fd5b948201945b84861015620005c85785359350620005b784620004e6565b83825294820194908201906200059f565b9750620005d99050888201620004ff565b955050505050604084013590509250925092565b6000815180845260005b818110156200061557602081850181015186830182015201620005f7565b8181111562000628576000602083870101525b50601f01601f19169290920160200192915050565b838152606060208201526000620006586060830185620005ed565b82810360408401526200066c8185620005ed565b9695505050505050565b606080825284519082018190526000906020906080840190828801845b82811015620006ba5781516001600160a01b03168452928401929084019060010162000693565b5050506001600160a01b0395909516908301525060400152919050565b600060208284031215620006ea57600080fd5b8151620006f781620004e6565b939250505056fe60a06040523480156200001157600080fd5b5060405162001da938038062001da98339810160408190526200003491620002de565b604080518082018252600e81526d135bd8dad0dc99585d1bdc93919560921b60208083019182528351808501909452600384526226a1a760e91b90840152815191929162000085916000916200016b565b5080516200009b9060019060208401906200016b565b505050620000b8620000b26200011560201b60201c565b62000119565b60808390528151620000d29060089060208501906200016b565b508051620000e89060099060208401906200016b565b5050600754600a80546001600160a01b0319166001600160a01b03909216919091179055506200038f9050565b3390565b600780546001600160a01b038381166001600160a01b0319831681179093556040519116919082907f8be0079c531659141344cd1fd0a4f28419497f9722a3daafe3b4186f6b6457e090600090a35050565b828054620001799062000352565b90600052602060002090601f0160209004810192826200019d5760008555620001e8565b82601f10620001b857805160ff1916838001178555620001e8565b82800160010185558215620001e8579182015b82811115620001e8578251825591602001919060010190620001cb565b50620001f6929150620001fa565b5090565b5b80821115620001f65760008155600101620001fb565b634e487b7160e01b600052604160045260246000fd5b600082601f8301126200023957600080fd5b81516001600160401b038082111562000256576200025662000211565b604051601f8301601f19908116603f0116810190828211818310171562000281576200028162000211565b816040528381526020925086838588010111156200029e57600080fd5b600091505b83821015620002c25785820183015181830184015290820190620002a3565b83821115620002d45760008385830101525b9695505050505050565b600080600060608486031215620002f457600080fd5b835160208501519093506001600160401b03808211156200031457600080fd5b620003228783880162000227565b935060408601519150808211156200033957600080fd5b50620003488682870162000227565b9150509250925092565b600181811c908216806200036757607f821691505b602082108114156200038957634e487b7160e01b600052602260045260246000fd5b50919050565b6080516119fe620003ab600039600061024301526119fe6000f3fe608060405234801561001057600080fd5b50600436106101425760003560e01c80638c0fd001116100b8578063b3bcea481161007c578063b3bcea48146102a6578063b88d4fde146102ae578063c87b56dd146102c1578063cd279c7c146102d4578063e985e9c5146102e7578063f2fde38b1461032357600080fd5b80638c0fd001146102415780638da5cb5b1461026757806395d89b4114610278578063a22cb46514610280578063a3106b951461029357600080fd5b806323b872dd1161010a57806323b872dd146101d757806342842e0e146101ea5780636352211e146101fd5780636c0360eb1461021057806370a0823114610218578063715018a61461023957600080fd5b806301ffc9a71461014757806306fdde031461016f5780630754617214610184578063081812fc146101af578063095ea7b3146101c2575b600080fd5b61015a6101553660046114bb565b610336565b60405190151581526020015b60405180910390f35b610177610388565b6040516101669190611530565b600a54610197906001600160a01b031681565b6040516001600160a01b039091168152602001610166565b6101976101bd366004611543565b61041a565b6101d56101d0366004611578565b610441565b005b6101d56101e53660046115a2565b61055c565b6101d56101f83660046115a2565b61058d565b61019761020b366004611543565b6105a8565b610177610608565b61022b6102263660046115de565b610696565b604051908152602001610166565b6101d561071c565b7f000000000000000000000000000000000000000000000000000000000000000061022b565b6007546001600160a01b0316610197565b610177610730565b6101d561028e3660046115f9565b61073f565b6101d56102a13660046115de565b61074e565b610177610778565b6101d56102bc3660046116c1565b610785565b6101776102cf366004611543565b6107bd565b6101d56102e236600461173d565b6107c8565b61015a6102f53660046117a8565b6001600160a01b03918216600090815260056020908152604080832093909416825291909152205460ff1690565b6101d56103313660046115de565b61082c565b60006001600160e01b031982166380ac58cd60e01b148061036757506001600160e01b03198216635b5e139f60e01b145b8061038257506301ffc9a760e01b6001600160e01b03198316145b92915050565b606060008054610397906117db565b80601f01602080910402602001604051908101604052809291908181526020018280546103c3906117db565b80156104105780601f106103e557610100808354040283529160200191610410565b820191906000526020600020905b8154815290600101906020018083116103f357829003601f168201915b5050505050905090565b6000610425826108a5565b506000908152600460205260409020546001600160a01b031690565b600061044c826105a8565b9050806001600160a01b0316836001600160a01b031614156104bf5760405162461bcd60e51b815260206004820152602160248201527f4552433732313a20617070726f76616c20746f2063757272656e74206f776e656044820152603960f91b60648201526084015b60405180910390fd5b336001600160a01b03821614806104db57506104db81336102f5565b61054d5760405162461bcd60e51b815260206004820152603d60248201527f4552433732313a20617070726f76652063616c6c6572206973206e6f7420746f60448201527f6b656e206f776e6572206f7220617070726f76656420666f7220616c6c00000060648201526084016104b6565b6105578383610904565b505050565b6105663382610972565b6105825760405162461bcd60e51b81526004016104b690611816565b6105578383836109f1565b61055783838360405180602001604052806000815250610785565b6000818152600260205260408120546001600160a01b0316806103825760405162461bcd60e51b8152602060048201526018602482015277115490cdcc8c4e881a5b9d985b1a59081d1bdad95b88125160421b60448201526064016104b6565b60088054610615906117db565b80601f0160208091040260200160405190810160405280929190818152602001828054610641906117db565b801561068e5780601f106106635761010080835404028352916020019161068e565b820191906000526020600020905b81548152906001019060200180831161067157829003601f168201915b505050505081565b60006001600160a01b0382166107005760405162461bcd60e51b815260206004820152602960248201527f4552433732313a2061646472657373207a65726f206973206e6f7420612076616044820152683634b21037bbb732b960b91b60648201526084016104b6565b506001600160a01b031660009081526003602052604090205490565b610724610b62565b61072e6000610bbc565b565b606060018054610397906117db565b61074a338383610c0e565b5050565b610756610b62565b600a80546001600160a01b0319166001600160a01b0392909216919091179055565b60098054610615906117db565b61078f3383610972565b6107ab5760405162461bcd60e51b81526004016104b690611816565b6107b784848484610cdd565b50505050565b606061038282610d10565b600a546001600160a01b0316336001600160a01b0316146108185760405162461bcd60e51b815260206004820152600a6024820152693737ba1036b4b73a32b960b11b60448201526064016104b6565b6108228383610e0c565b6105578282610e26565b610834610b62565b6001600160a01b0381166108995760405162461bcd60e51b815260206004820152602660248201527f4f776e61626c653a206e6577206f776e657220697320746865207a65726f206160448201526564647265737360d01b60648201526084016104b6565b6108a281610bbc565b50565b6000818152600260205260409020546001600160a01b03166108a25760405162461bcd60e51b8152602060048201526018602482015277115490cdcc8c4e881a5b9d985b1a59081d1bdad95b88125160421b60448201526064016104b6565b600081815260046020526040902080546001600160a01b0319166001600160a01b0384169081179091558190610939826105a8565b6001600160a01b03167f8c5be1e5ebec7d5bd14f71427d1e84f3dd0314c0f7b2291e5b200ac8c7c3b92560405160405180910390a45050565b60008061097e836105a8565b9050806001600160a01b0316846001600160a01b031614806109c557506001600160a01b0380821660009081526005602090815260408083209388168352929052205460ff165b806109e95750836001600160a01b03166109de8461041a565b6001600160a01b0316145b949350505050565b826001600160a01b0316610a04826105a8565b6001600160a01b031614610a2a5760405162461bcd60e51b81526004016104b690611863565b6001600160a01b038216610a8c5760405162461bcd60e51b8152602060048201526024808201527f4552433732313a207472616e7366657220746f20746865207a65726f206164646044820152637265737360e01b60648201526084016104b6565b610a998383836001610ec0565b826001600160a01b0316610aac826105a8565b6001600160a01b031614610ad25760405162461bcd60e51b81526004016104b690611863565b600081815260046020908152604080832080546001600160a01b03199081169091556001600160a01b0387811680865260038552838620805460001901905590871680865283862080546001019055868652600290945282852080549092168417909155905184937fddf252ad1be2c89b69c2b068fc378daa952ba7f163c4a11628f55a4df523b3ef91a4505050565b6007546001600160a01b0316331461072e5760405162461bcd60e51b815260206004820181905260248201527f4f776e61626c653a2063616c6c6572206973206e6f7420746865206f776e657260448201526064016104b6565b600780546001600160a01b038381166001600160a01b0319831681179093556040519116919082907f8be0079c531659141344cd1fd0a4f28419497f9722a3daafe3b4186f6b6457e090600090a35050565b816001600160a01b0316836001600160a01b03161415610c705760405162461bcd60e51b815260206004820152601960248201527f4552433732313a20617070726f766520746f2063616c6c65720000000000000060448201526064016104b6565b6001600160a01b03838116600081815260056020908152604080832094871680845294825291829020805460ff191686151590811790915591519182527f17307eab39ab6107e8899845ad3d59bd9653f200f220920489ca2b5937696c31910160405180910390a3505050565b610ce88484846109f1565b610cf484848484610f48565b6107b75760405162461bcd60e51b81526004016104b6906118a8565b6060610d1b826108a5565b60008281526006602052604081208054610d34906117db565b80601f0160208091040260200160405190810160405280929190818152602001828054610d60906117db565b8015610dad5780601f10610d8257610100808354040283529160200191610dad565b820191906000526020600020905b815481529060010190602001808311610d9057829003601f168201915b505050505090506000610dbe611055565b9050805160001415610dd1575092915050565b815115610e03578082604051602001610deb9291906118fa565b60405160208183030381529060405292505050919050565b6109e984611064565b61074a8282604051806020016040528060008152506110cb565b6000828152600260205260409020546001600160a01b0316610ea15760405162461bcd60e51b815260206004820152602e60248201527f45524337323155524953746f726167653a2055524920736574206f66206e6f6e60448201526d32bc34b9ba32b73a103a37b5b2b760911b60648201526084016104b6565b600082815260066020908152604090912082516105579284019061140c565b60018111156107b7576001600160a01b03841615610f06576001600160a01b03841660009081526003602052604081208054839290610f0090849061193f565b90915550505b6001600160a01b038316156107b7576001600160a01b03831660009081526003602052604081208054839290610f3d908490611956565b909155505050505050565b60006001600160a01b0384163b1561104a57604051630a85bd0160e11b81526001600160a01b0385169063150b7a0290610f8c90339089908890889060040161196e565b602060405180830381600087803b158015610fa657600080fd5b505af1925050508015610fd6575060408051601f3d908101601f19168201909252610fd3918101906119ab565b60015b611030573d808015611004576040519150601f19603f3d011682016040523d82523d6000602084013e611009565b606091505b5080516110285760405162461bcd60e51b81526004016104b6906118a8565b805181602001fd5b6001600160e01b031916630a85bd0160e11b1490506109e9565b506001949350505050565b606060088054610397906117db565b606061106f826108a5565b6000611079611055565b9050600081511161109957604051806020016040528060008152506110c4565b806110a3846110fe565b6040516020016110b49291906118fa565b6040516020818303038152906040525b9392505050565b6110d5838361119b565b6110e26000848484610f48565b6105575760405162461bcd60e51b81526004016104b6906118a8565b6060600061110b83611334565b600101905060008167ffffffffffffffff81111561112b5761112b611635565b6040519080825280601f01601f191660200182016040528015611155576020820181803683370190505b5090508181016020015b600019016f181899199a1a9b1b9c1cb0b131b232b360811b600a86061a8153600a850494508461118e57611193565b61115f565b509392505050565b6001600160a01b0382166111f15760405162461bcd60e51b815260206004820181905260248201527f4552433732313a206d696e7420746f20746865207a65726f206164647265737360448201526064016104b6565b6000818152600260205260409020546001600160a01b0316156112565760405162461bcd60e51b815260206004820152601c60248201527f4552433732313a20746f6b656e20616c7265616479206d696e7465640000000060448201526064016104b6565b611264600083836001610ec0565b6000818152600260205260409020546001600160a01b0316156112c95760405162461bcd60e51b815260206004820152601c60248201527f4552433732313a20746f6b656e20616c7265616479206d696e7465640000000060448201526064016104b6565b6001600160a01b038216600081815260036020908152604080832080546001019055848352600290915280822080546001600160a01b0319168417905551839291907fddf252ad1be2c89b69c2b068fc378daa952ba7f163c4a11628f55a4df523b3ef908290a45050565b60008072184f03e93ff9f4daa797ed6e38ed64bf6a1f0160401b83106113735772184f03e93ff9f4daa797ed6e38ed64bf6a1f0160401b830492506040015b6d04ee2d6d415b85acef8100000000831061139f576d04ee2d6d415b85acef8100000000830492506020015b662386f26fc1000083106113bd57662386f26fc10000830492506010015b6305f5e10083106113d5576305f5e100830492506008015b61271083106113e957612710830492506004015b606483106113fb576064830492506002015b600a83106103825760010192915050565b828054611418906117db565b90600052602060002090601f01602090048101928261143a5760008555611480565b82601f1061145357805160ff1916838001178555611480565b82800160010185558215611480579182015b82811115611480578251825591602001919060010190611465565b5061148c929150611490565b5090565b5b8082111561148c5760008155600101611491565b6001600160e01b0319811681146108a257600080fd5b6000602082840312156114cd57600080fd5b81356110c4816114a5565b60005b838110156114f35781810151838201526020016114db565b838111156107b75750506000910152565b6000815180845261151c8160208601602086016114d8565b601f01601f19169290920160200192915050565b6020815260006110c46020830184611504565b60006020828403121561155557600080fd5b5035919050565b80356001600160a01b038116811461157357600080fd5b919050565b6000806040838503121561158b57600080fd5b6115948361155c565b946020939093013593505050565b6000806000606084860312156115b757600080fd5b6115c08461155c565b92506115ce6020850161155c565b9150604084013590509250925092565b6000602082840312156115f057600080fd5b6110c48261155c565b6000806040838503121561160c57600080fd5b6116158361155c565b91506020830135801515811461162a57600080fd5b809150509250929050565b634e487b7160e01b600052604160045260246000fd5b600067ffffffffffffffff8084111561166657611666611635565b604051601f8501601f19908116603f0116810190828211818310171561168e5761168e611635565b816040528093508581528686860111156116a757600080fd5b858560208301376000602087830101525050509392505050565b600080600080608085870312156116d757600080fd5b6116e08561155c565b93506116ee6020860161155c565b925060408501359150606085013567ffffffffffffffff81111561171157600080fd5b8501601f8101871361172257600080fd5b6117318782356020840161164b565b91505092959194509250565b60008060006060848603121561175257600080fd5b61175b8461155c565b925060208401359150604084013567ffffffffffffffff81111561177e57600080fd5b8401601f8101861361178f57600080fd5b61179e8682356020840161164b565b9150509250925092565b600080604083850312156117bb57600080fd5b6117c48361155c565b91506117d26020840161155c565b90509250929050565b600181811c908216806117ef57607f821691505b6020821081141561181057634e487b7160e01b600052602260045260246000fd5b50919050565b6020808252602d908201527f4552433732313a2063616c6c6572206973206e6f7420746f6b656e206f776e6560408201526c1c881bdc88185c1c1c9bdd9959609a1b606082015260800190565b60208082526025908201527f4552433732313a207472616e736665722066726f6d20696e636f72726563742060408201526437bbb732b960d91b606082015260800190565b60208082526032908201527f4552433732313a207472616e7366657220746f206e6f6e20455243373231526560408201527131b2b4bb32b91034b6b83632b6b2b73a32b960711b606082015260800190565b6000835161190c8184602088016114d8565b8351908301906119208183602088016114d8565b01949350505050565b634e487b7160e01b600052601160045260246000fd5b60008282101561195157611951611929565b500390565b6000821982111561196957611969611929565b500190565b6001600160a01b03858116825284166020820152604081018390526080606082018190526000906119a190830184611504565b9695505050505050565b6000602082840312156119bd57600080fd5b81516110c4816114a556fea2646970667358221220cae14c22c708d051608953772ec371e733b3ba7ea6b3a73cc3c32e8f4366cb2964736f6c6343000809003360806040523480156200001157600080fd5b506040516200114b3803806200114b833981016040819052620000349162000384565b600080546001600160a01b0319166001600160a01b03841690811790915560408051638c0fd00160e01b81529051638c0fd00191600480820192602092909190829003018186803b1580156200008957600080fd5b505afa1580156200009e573d6000803e3d6000fd5b505050506040513d601f19601f82011682018060405250810190620000c491906200045a565b6002556000805460408051636c0360eb60e01b815290516001600160a01b0390921692636c0360eb92600480840193829003018186803b1580156200010857600080fd5b505afa1580156200011d573d6000803e3d6000fd5b505050506040513d6000823e601f3d908101601f1916820160405262000147919081019062000474565b80516200015d9160049160209091019062000278565b5060008054604080516316779d4960e31b815290516001600160a01b039092169263b3bcea4892600480840193829003018186803b1580156200019f57600080fd5b505afa158015620001b4573d6000803e3d6000fd5b505050506040513d6000823e601f3d908101601f19168201604052620001de919081019062000474565b8051620001f49160059160209091019062000278565b5060018190554260035582515b80156200026e5780620002148162000533565b9150506006600085838151811062000230576200023062000559565b6020908102919091018101516001600160a01b0316825281810192909252604001600090812080546001810182559082529190200181905562000201565b50505050620005ac565b82805462000286906200056f565b90600052602060002090601f016020900481019282620002aa5760008555620002f5565b82601f10620002c557805160ff1916838001178555620002f5565b82800160010185558215620002f5579182015b82811115620002f5578251825591602001919060010190620002d8565b506200030392915062000307565b5090565b5b8082111562000303576000815560010162000308565b634e487b7160e01b600052604160045260246000fd5b604051601f8201601f191681016001600160401b03811182821017156200035f576200035f6200031e565b604052919050565b80516001600160a01b03811681146200037f57600080fd5b919050565b6000806000606084860312156200039a57600080fd5b83516001600160401b0380821115620003b257600080fd5b818601915086601f830112620003c757600080fd5b8151602082821115620003de57620003de6200031e565b8160051b9250620003f181840162000334565b828152928401810192818101908a8511156200040c57600080fd5b948201945b848610156200043557620004258662000367565b8252948201949082019062000411565b975062000446905088820162000367565b955050505050604084015190509250925092565b6000602082840312156200046d57600080fd5b5051919050565b600060208083850312156200048857600080fd5b82516001600160401b0380821115620004a057600080fd5b818501915085601f830112620004b557600080fd5b815181811115620004ca57620004ca6200031e565b620004de601f8201601f1916850162000334565b91508082528684828501011115620004f557600080fd5b60005b8181101562000515578381018501518382018601528401620004f8565b81811115620005275760008583850101525b50909695505050505050565b6000816200055157634e487b7160e01b600052601160045260246000fd5b506000190190565b634e487b7160e01b600052603260045260246000fd5b600181811c908216806200058457607f821691505b60208210811415620005a657634e487b7160e01b600052602260045260246000fd5b50919050565b610b8f80620005bc6000396000f3fe608060405234801561001057600080fd5b50600436106100a95760003560e01c806389fde7af1161007157806389fde7af146101125780638b294b55146101275780638c0fd00114610147578063a0712d6814610150578063c41a360a14610165578063d56d229d1461019057600080fd5b806316c12746146100ae57806326afa48b146100cc5780632f0b4fa9146100ed578063300a63bc146101005780637358c57a14610109575b600080fd5b6100b66101a3565b6040516100c391906107e6565b60405180910390f35b6100df6100da36600461084b565b61024b565b6040519081526020016100c3565b6100df6100fb366004610868565b6102d9565b6100df60015481565b6100df60035481565b61011a61030a565b6040516100c391906108f0565b61013a610135366004610952565b6103aa565b6040516100c3919061096b565b6100df60025481565b61016361015e366004610952565b6103e1565b005b610178610173366004610952565b6105d0565b6040516001600160a01b0390911681526020016100c3565b600054610178906001600160a01b031681565b6060600060025467ffffffffffffffff8111156101c2576101c261097e565b6040519080825280602002602001820160405280156101eb578160200160208202803683370190505b50905060005b600254811015610245576102096101738260016109aa565b82828151811061021b5761021b6109c2565b6001600160a01b03909216602092830291909101909101528061023d816109d8565b9150506101f1565b50919050565b6001600160a01b03811660009081526006602052604081205480610276575064e8d4a5100092915050565b6001600160a01b03831660009081526006602052604081206102996001846109f3565b815481106102a9576102a96109c2565b90600052602060002001549050600154816102c49190610a0a565b6003546102d191906109aa565b949350505050565b600660205281600052604060002081815481106102f557600080fd5b90600052602060002001600091509150505481565b6060600060025467ffffffffffffffff8111156103295761032961097e565b60405190808252806020026020018201604052801561035c57816020015b60608152602001906001900390816103475790505b50905060005b6002548110156102455761037a6101358260016109aa565b82828151811061038c5761038c6109c2565b602002602001018190525080806103a2906109d8565b915050610362565b606060046103b783610670565b60056040516020016103cb93929190610ac3565b6040516020818303038152906040529050919050565b600081815260076020526040902054156104335760405162461bcd60e51b815260206004820152600e60248201526d185b1c9958591e481b5a5b9d195960921b60448201526064015b60405180910390fd5b3360009081526006602052604090208054806104805760405162461bcd60e51b815260206004820152600c60248201526b6e6f20616c6c6f77616e636560a01b604482015260640161042a565b60008261048e6001846109f3565b8154811061049e5761049e6109c2565b906000526020600020015490506000600154826104bb9190610a0a565b6003546104c891906109aa565b90504281111561050d5760405162461bcd60e51b815260206004820152601060248201526f1b9bdd081e595d081d5b9b1bd8dad95960821b604482015260640161042a565b8380548061051d5761051d610af6565b60019003818190600052602060002001600090559055600082600161054291906109aa565b9050600061054f876103aa565b600054604051633349e71f60e21b81529192506001600160a01b03169063cd279c7c9061058490339086908690600401610b0c565b600060405180830381600087803b15801561059e57600080fd5b505af11580156105b2573d6000803e3d6000fd5b50505060009788525050600760205260409095209490945550505050565b600081815260076020526040812054806105ed5750600092915050565b6000546040516331a9108f60e11b8152600481018390526001600160a01b0390911690636352211e9060240160206040518083038186803b15801561063157600080fd5b505afa158015610645573d6000803e3d6000fd5b505050506040513d601f19601f820116820180604052508101906106699190610b3c565b9392505050565b6060600061067d8361070d565b600101905060008167ffffffffffffffff81111561069d5761069d61097e565b6040519080825280601f01601f1916602001820160405280156106c7576020820181803683370190505b5090508181016020015b600019016f181899199a1a9b1b9c1cb0b131b232b360811b600a86061a8153600a850494508461070057610705565b6106d1565b509392505050565b60008072184f03e93ff9f4daa797ed6e38ed64bf6a1f0160401b831061074c5772184f03e93ff9f4daa797ed6e38ed64bf6a1f0160401b830492506040015b6d04ee2d6d415b85acef81000000008310610778576d04ee2d6d415b85acef8100000000830492506020015b662386f26fc10000831061079657662386f26fc10000830492506010015b6305f5e10083106107ae576305f5e100830492506008015b61271083106107c257612710830492506004015b606483106107d4576064830492506002015b600a83106107e0576001015b92915050565b6020808252825182820181905260009190848201906040850190845b818110156108275783516001600160a01b031683529284019291840191600101610802565b50909695505050505050565b6001600160a01b038116811461084857600080fd5b50565b60006020828403121561085d57600080fd5b813561066981610833565b6000806040838503121561087b57600080fd5b823561088681610833565b946020939093013593505050565b60005b838110156108af578181015183820152602001610897565b838111156108be576000848401525b50505050565b600081518084526108dc816020860160208601610894565b601f01601f19169290920160200192915050565b6000602080830181845280855180835260408601915060408160051b870101925083870160005b8281101561094557603f198886030184526109338583516108c4565b94509285019290850190600101610917565b5092979650505050505050565b60006020828403121561096457600080fd5b5035919050565b60208152600061066960208301846108c4565b634e487b7160e01b600052604160045260246000fd5b634e487b7160e01b600052601160045260246000fd5b600082198211156109bd576109bd610994565b500190565b634e487b7160e01b600052603260045260246000fd5b60006000198214156109ec576109ec610994565b5060010190565b600082821015610a0557610a05610994565b500390565b6000816000190483118215151615610a2457610a24610994565b500290565b8054600090600181811c9080831680610a4357607f831692505b6020808410821415610a6557634e487b7160e01b600052602260045260246000fd5b818015610a795760018114610a8a57610ab7565b60ff19861689528489019650610ab7565b60008881526020902060005b86811015610aaf5781548b820152908501908301610a96565b505084890196505b50505050505092915050565b6000610acf8286610a29565b8451610adf818360208901610894565b610aeb81830186610a29565b979650505050505050565b634e487b7160e01b600052603160045260246000fd5b60018060a01b0384168152826020820152606060408201526000610b3360608301846108c4565b95945050505050565b600060208284031215610b4e57600080fd5b81516106698161083356fea2646970667358221220ab47ec6142bd6db4a37e7c51efc918a33201a637464c72f94e2da0108e9354ae64736f6c63430008090033697066733a2f2f62616679626569676333747278746b676932776979617863656b763666776b6e66636f76337a7432667871677563326e63356a787078696e3437752fa2646970667358221220de3b9497ef90d3035bdaa3e040f9d8436d42b300301c1f44d9c3eb5c8c9621d864736f6c63430008090033",
  "linkReferences": {},
  "deployedLinkReferences": {}
}